:1040000000000120D5C90000FDC90000FFC9000063
:1040100001CA000003CA000005CA00000000000039
:1040200000000000000000000000000007CA0000BF
:1040300009CA0000000000000BCA00000DCA000001
:104040000FCA0000318400000FCA00005D6000004C
:10405000E16F00000FCA00000FCA0000C95C000039
:104060000FCA00000FCA0000258900000FCA000017
:104070000FCA00000FCA00000FCA00000FCA0000DC
:104080000FCA00005D5000000FCA00000FCA0000F8
:104090000FCA00000FCA00000FCA00000FCA0000BC
:1040A0000FCA00000FCA0000798800000FCA000084
:1040B000D95A00000FCA00000000000000000000F4
:1040C0000FCA00000FCA00000FCA00000FCA00008C
:1040D0000FCA00000FCA00000FCA00000000000055
:1040E00000000000000000000000000000000000D0
:1040F00000000000000000000000000000000000C0
:1041000000000000000000000000000000000000AF
:10411000000000000000000000000000000000009F
:10412000000000000000000000000000000000008F
:10413000000000000000000000000000000000007F
:10414000000000000000000000000000000000006F
:10415000000000000000000000000000000000005F
:10416000000000000000000000000000000000004F
:10417000000000000000000000000000000000003F
:10418000000000000000000000000000000000002F
:10419000000000000000000000000000000000001F
:1041A000000000000000000000000000000000000F
:1041B00000000000000000000000000000000000FF
:1041C00000000000000000000000000000000000EF
:1041D00000000000000000000000000000000000DF
:1041E00000000000000000000000000000000000CF
:1041F00000000000000000000000000000000000BF
:1042000010B5054C237833B9044B13B10448AFF310
:1042100000800123237010BDF0000020000000008A
:10422000A4E3000008B5034B1BB103490348AFF3F7
:10423000008008BD00000000F4000020A4E300009E
:10424000154B002B08BF134B9D46A3F5803A002168
:104250008B460F461348144A121A08F0D5FD0F4B2F
:10426000002B00D098470E4B002B00D09847002021
:10427000002104000D000D48002802D00C48AFF3C7
:10428000008008F09DFD2000290001F03FF908F0B2
:1042900083FD00BF000008000000012000000000B6
:1042A00000000000F0000020E81E002000000000D8
:1042B00000000000000000002DE9F04F2DED048B00
:1042C000B7B0B94B049306ABDFF810B3DFF810A317
:1042D000DFEDB69A03931AE1CAED008AB0EE480A00
:1042E00003F006F9B0EE409A9BED000A03F060F986
:1042F000B0EE408A9AED000A03F0FAF8F0EE408A38
:104300009AED000A03F054F9A94B8DED050A1868DF
:1043100009F092FC9EA3D3E9002309F0E5FC09F023
:10432000BBFF049A32F9025F04920446284609F062
:1043300071FCA04A80461068894609F07DFC94A370
:10434000D3E9002309F0D0FC09F0A6FF09F074FCC2
:10435000064619EE100A0F4609F06EFC8EA3D3E94B
:10436000002309F0C1FC42464B4609F0BDFC0B4658
:1043700002463946304609F001FB09F08DFF8D4AAF
:1043800009EE100A18EE100A82ED009A09F054FCAA
:1043900081A3D3E9002309F0A7FC42464B4609F06C
:1043A000A3FC064620460F4609F046FC02460B4693
:1043B0003046394609F0E2FA09F06EFF7E4A7C4B3E
:1043C00008EE100A106883ED008A09F035FC70A32E
:1043D000D3E9002309F088FC09F05EFF774B04461F
:1043E000186809F029FC6AA3D3E9002309F07CFCD2
:1043F00009F052FF09F020FC064618EE900A0F461D
:1044000009F01AFC64A3D3E9002309F06DFC4246CD
:104410004B4609F069FC02460B463046394609F026
:10442000ADFA09F039FF9DED050A644B08EE900ADC
:1044300010EE100AC3ED008A09F0FEFB56A3D3E983
:10444000002309F051FC42464B4609F04DFC06465C
:1044500020460F4609F0F0FB02460B46304639462F
:1044600009F08CFA09F018FF07EE100A28EE088A06
:1044700067EE077A09EE098A4F4A48EEA87A10607B
:10448000B4EEE78AF1EE10FA40F38C814C4B1C78C5
:104490004C4BD3ED007A4C4B67EEA97A43F824508D
:1044A00017EE900A09F0C8FB3BA3D3E900230646A8
:1044B0000F464046494609F017FC0B46024639466E
:1044C000304609F05BFA09F0E7FEA4F10B033D4A20
:1044D0003D4910603D4A1278002BB8BF9B1851F837
:1044E00023303B491D4407EE905A631CF8EEE77AEF
:1044F00041F824500399DBB2E1EC017A9342039135
:1045000070D22F4A13700B460EAA9A4272D0314BCA
:104510009BED008AD3ED007A38EE278A18EE100A58
:1045200009F08AFB1EA3D3E9002304460D4609F0D7
:104530006BFE50B11AA3D3E900232046294609F0A7
:104540001BFA09F0A9FE08EE100A234BDAED008AE7
:10455000D3ED007A8BED008A78EEA78A18EE900AE8
:1045600009F06AFB0EA3D3E9002304460D4609F0C7
:104570004BFE00283FF4B0AE09A3D3E90023204648
:10458000294609F0F9F909F087FECAF80000A5E606
:10459000AE47E17A14AEEF3F7B14AE47E17A843F39
:1045A0004AD8124DFB211940EA020020A4707D3F39
:1045B0008C0100209001002094010020980100202F
:1045C0000C010020100100206006002000000020E7
:1045D000180400201C00002020000020B80100204A
:1045E000BC010020924B4FF000021A700B460EAA3D
:1045F0009A428CD106A826AA16A9DFF86C8201F08F
:1046000055FC26AD16AC46461AAFB4EC017AF5EC73
:10461000017A27EE077A67EEA77A77EE277A17EE08
:10462000900A09F009FB41EC100B09F075F851EC08
:10463000100B09F031FEA74246F8040BE5D17D4A84
:1046400013780133137004F089F87B4A1368C31A96
:104650000A2B40F2A18098ED027AD8ED037A10601F
:1046600077EE277A754D764C17EE900A09F0E4FA4A
:1046700065A3D3E9002309F037FB064628680F46F7
:1046800009F0DAFA62A3D3E9002309F02DFB09F05F
:1046900003FE09F0D1FA02460B463046394609F0CE
:1046A0006DF909F0F9FD674B9FED677AD3ED008A4C
:1046B000D4ED007A654B286078EEC78A93ED009AB6
:1046C000C3ED008A78EEA77A08EE100A17EE900A7A
:1046D00009F0B2FA50A3D3E9002309F005FB09F071
:1046E000DBFD9FED5B7A2060C8EE877A594D2C6820
:1046F00038EEC99AFDEEE77A17EE900A09F08AFAC9
:10470000064619EE100A0F4609F096FA44A3D3E9BB
:10471000002309F0E9FA02460B463046394609F013
:104720002DF9064620460F4609F074FA0B4602465C
:104730003946304609F022F909F086FD40F2FE3391
:10474000984202DC01285CDC02232B60FDEEC87A73
:10475000012C17EE902A40F2FE33B8BF01249C4290
:104760004FEA4202A8BF1C46C82A3DDDA2F1C8019B
:10477000FF29A8BFFF21384B1B785BB1374B187856
:10478000A0BB5210FC23FF2A0093A8BFFF222346A0
:1047900001F0E0F9324B1C60012037B0BDEC048B16
:1047A000BDE8F08F224B1C78264BD3ED007A2D4BC1
:1047B00067EEA97A43F8245017EE900A09F03CFA04
:1047C00019A3D3E9002306460F464046494609F09F
:1047D0008BFA0B4602463946304609F0CFF809F00D
:1047E0005BFDA4F1090372E60021C4E7FC2300226B
:1047F000009309112346104601F0ACF9184B1C60D8
:10480000CAE72860A2E700BF9A9999999999B93F98
:10481000CDCCCCCCCCCCEC3F2B8716D9CEF7EF3F10
:104820009A9999999999A93F7B14AE47E17A843F67
:104830000C0100200E010020A40100201401002022
:1048400078010020100100200000FA45A00100209E
:1048500000007A44080000201800002022010020F7
:104860006401002060060020240100202DE9F043AF
:10487000A64AA74C13780133DBB2802B88BF0023F4
:104880001370237000254FF0805365705B6EA14A52
:104890006371190E180CA1701B0A582189B0E571BB
:1048A000E0702371A171157001F0E0FAB0F5FA6FB4
:1048B00080F21B81984A2B461570984A984D1278C1
:1048C000237298492B780E78E672083A48BFD218BE
:1048D0000021A172511C9942A8BF0021652060727D
:1048E000481C9842A8BF0020451C9D42A8BF002537
:1048F0006E1C9E42A8BF0026771CBB42D8BF002773
:10490000DFF828E207F1010C9C45A8BF4FF0000C2E
:10491000DEED006A9EED017ADEED027A0CF101080F
:104920004345D8BF4FF000087F4BFDEEE66A53F8D1
:10493000277053F8266053F8255053F8200053F899
:10494000211053F8229053F8288053F82CC0E775B3
:1049500016EE903ABDEEC77A3F121AB284F819C02B
:1049600017EE103AA775FDEEE77A37124FEA2C2CB6
:1049700084F81B8084F818C066754FEA202C2E122C
:1049800027754FEA28280F1284F810C084F81A807F
:10499000E5740FFA83F8A6746074E173A77317EED9
:1049A000903A84F80D90DEED037A6277FDEEE77AB7
:1049B000151217EE902A1BB24FEA29264FEA28203B
:1049C0001912257715B22673A07784F8201084F881
:1049D00021302E1203AB0DF10A0202A90DF10600DF
:1049E00084F81F8084F8235084F8226002F06CFA67
:1049F0000DF1120204A90DF10E0002F09BFA06AAB5
:104A00000DF1160105A802F0A5FABDF90630BDF9B1
:104A10001010BDF91220BDF90870BDF90A60BDF98A
:104A20000C50BDF90E0084F825301B124FEA252EDC
:104A30004FEA202C4FEA27294FEA262884F8243011
:104A400084F8277013120F1284F82AE084F82CC01F
:104A500084F82F1084F8312084F8303084F82960ED
:104A600084F82B5084F82E7084F8269084F82880DF
:104A700084F82D0002F07EFA054602F08DFA064613
:104A800002F09CFA2F1203464FEA262E4FEA202C02
:104A90000DF11E0207A90DF11A0084F8336084F8A5
:104AA000353084F8375084F832E084F834C084F824
:104AB000367002F08FFCBDF91A30BDF91C10BDF93B
:104AC0001E2084F839300E121B1215123E2084F875
:104AD000383084F83B1084F83A6084F83D2084F83C
:104AE0003C50607009B0BDE8F08341F294139842E5
:104AF000094A02DDFF231370DFE6A0F5FA630A21FD
:104B0000B3FBF1F3DBB21370D7E600BF9C010020CA
:104B1000140300209D010020180100200C0100203A
:104B2000000000200E0100201804002024010020B5
:104B3000F0B5B94BB94C1B78237000254FF080536A
:104B400065705B6E6371190E1A0C83B01B0AA1703D
:104B5000E270237101F08AF9B0F5FA6F80F2F28009
:104B6000AF4A2B461570AF4DAF4AD5ED007A92EDA6
:104B7000007AA371FDEEE77A17EE903AF3EE047A2D
:104B8000B4EEE77A43F30723F1EE10FAE37100F392
:104B90000F81002395ED027AD5ED016AD5ED037AF8
:104BA0002372BDEEC77AFDEEE66AFDEEE77A17EEF8
:104BB000102A17EE901A16EE903A12B208B21BB2F3
:104BC000111205121E12A37222730DF1060301AA1F
:104BD000E172A0730DF1020168466573667202F01E
:104BE00073F9BDF900109DF90300904A9DF9055035
:104BF0001278002361F3070360F30F239DF9070088
:104C000065F31743091260F31F63083AE1732361E8
:104C100000F1BE80864B18788649531C8342A8BF9A
:104C2000002351F8222051F823606275B51A17123B
:104C300015F1FF0F2775C0F29880FF2D00F38A80D1
:104C4000002DC0F2CF80EEB2002501338342A8BF11
:104C50000023A67551F82370BE1A16F1FF0F7CDBF6
:104C6000FF2E00F39D80002EC0F2BF80F6B201330C
:104C70008342A8BF0023E67551F82370BE1A16F1CF
:104C8000FF0F6EDBFF2E00F38780002EC0F2B08096
:104C9000F6B201339842D8BF0023267651F823702C
:104CA000BE1A16F1FF0F6FDBFF2E7FDC002EC0F265
:104CB000A280F6B201339842D8BF0023667651F83D
:104CC0002370BE1A16F1FF0F5ADBFF2E6CDC002E8C
:104CD000C0F29480F6B201339842D8BF0023A67682
:104CE00051F82370BE1A16F1FF0F45DBFF2E59DC79
:104CF000002EC0F28680F6B201338342A8BF0023A3
:104D0000E67651F823108B1A13F1FF0F30DBFF2BDF
:104D100044DC002B63DBDAB22023227765776370F3
:104D20003E4C0022214604F11E05134611F8010BEA
:104D30000344DBB21A44A942D2B2F7D1A377E27797
:104D400003B0F0BD41F294139842354A5CDDFF2375
:104D5000137008E7FF26002577E7FF2645F02005BA
:104D600085E7FF2645F0100593E7FF2640256CE711
:104D7000FF2245F00105CFE7FF2645F00205BBE71E
:104D8000FF2645F00405A6E7FF2645F0080591E754
:104D9000274B187802443FE7FF267AE7FF22BBE75C
:104DA000FF2664E7FF26A7E7FF2694E7FF2681E7B3
:104DB00037EE677AF2EE047A67EE277A17EE900AFA
:104DC00008F03AFF41EC100B08F0A6FC51EC100B78
:104DD00009F03AFAFF28A8BFFF20C3B2DAE6521A58
:104DE000D2B2C6E7961BF6B2C0E7D61BF6B2B5E75D
:104DF000D61BF6B2B6E7D61BF6B2C6E7D61BF6B29E
:104E0000BFE7D61BF6B2B8E7A0F5FA630A21B3FBF9
:104E1000F1F3DBB21370A6E60E01002014030020AC
:104E20001801002024010020140100200C010020A2
:104E300000000020180400202DE9F041A4B003F088
:104E40008DFC7C497C4A0B681468C31AA34203D2C8
:104E5000002024B0BDE8F081784C794B24780860BC
:104E600053F8243003F0070302334FF080511360EE
:104E70004C6ED422200C210A250ED723E4B28DF8E3
:104E800011508DF812008DF813108DF814408DF824
:104E900010208DF8153000F0E9FFB0F5FA6F80F2C0
:104EA0009F80684F00233B70012310AA0093049D4C
:104EB0008DF81C40D726062106A8002406958DF8FB
:104EC0001D608DF8404004F0D3F85F495F4E804686
:104ED00010A807F0A1FF0825034610AA0095414637
:104EE00006A804F0C5F8D6ED007A594B594A93ED5F
:104EF000007A3B788DF84130FDEEE77A12788DF834
:104F0000402017EE903AF3EE047AB4EEE77A43F3DA
:104F10000723F1EE10FA05468DF8423072DC204688
:104F2000D6ED016A96ED027AD6ED037A8DF843004C
:104F3000FDEEE66ABDEEC77AFDEEE77A16EE901A50
:104F400017EE100A17EE904A49BA40BA64BA0DF14A
:104F50000E0303AAADF84410ADF846000DF10A01A6
:104F600002A8ADF8484001F0AFFFBDF908309DF947
:104F70000B109DF90D209DF90F60002463F30704C9
:104F800061F30F2462F31744FF20294610AA1D1273
:104F900066F31F640F23009006A88DF84A50CDF8E1
:104FA0004B4004F065F80646002004F05BF801244D
:104FB0000023294D00933146022306AA01941AA822
:104FC00004F09CF81AA92A6803F0FAFF2B6823441E
:104FD000272B12DD252320462B6024B0BDE8F0816D
:104FE00041F294139842174FD7BFA0F5FA63FF23FD
:104FF0000A22B3FBF2F33B7056E720462B6024B045
:10500000BDE8F08137EE677AF2EE047A67EE277A30
:1050100017EE900A08F010FE41EC100B08F07CFB34
:1050200051EC100B09F010F9FF28A8BFFF20C0B207
:1050300076E700BFA8010020140000200C0100202A
:1050400018040020180100205CE300002401002067
:10505000140100200E01002004000020054BD3F8AD
:10506000402132B100210122C3F840119A6040BFB3
:105070005A60704700100140F0B583B002F02EFE78
:10508000002003F0A3F903F0E7FB0F4B0F4F104E86
:105090000022C3F8FC2F022003F07AFC04F076F81B
:1050A00003249625002318461946FF22009500F098
:1050B00051FDC7F800664FF4967003F069FC013C9F
:1050C000F0D103B0F0BD00BF00100040000001406F
:1050D0003546526EF0B585B002F000FE002003F0B8
:1050E00075F903F0B9FB144B144F154E0022C3F8A9
:1050F000FC2F03F071F903F075F9032496250023C2
:10510000FF2210461946009500F024FDC7F80066FE
:105110004FF4967003F03CFC013CF0D12023029345
:10512000CDE90044234622464FF47A71532002F021
:10513000FDFD05B0F0BD00BF0010004000000140C3
:105140003546526EF0B583B002F0C8FD002003F082
:105150003DF903F081FB134B134F144E0022C3F8AB
:10516000FC2F03F039F903F03DF9032496250023C1
:1051700018461A46FF21009500F0ECFCC7F80066BF
:105180004FF4967003F004FC013CF0D123464FF439
:10519000FA624FF47A71152003B0BDE8F04003F0D5
:1051A0000BBC00BF00100040000001403546526EAD
:1051B0002DE9F0414E4D2C78022C84B03AD024B128
:1051C000012C67D004B0BDE8F08101232B7002F000
:1051D00085FD204603F0FAF803F03EFB454BDFF86F
:1051E0002881C3F8FC4F022003F0D2FB03F0CEFF6E
:1051F000414F03249626002318461946FF220096A5
:1052000000F0A8FCC8F800764FF4967003F0C0FBDD
:10521000013CF0D1394B28781A78394960F3020201
:1052200001201A70087003F099FA364B186004B028
:10523000BDE8F08100242C7002F050FD204603F000
:10524000C5F803F009FB2B4BDFF8BC80C3F8FC4F1B
:1052500003F0C2F803F0C6F8274F03249626002374
:10526000FF2210461946009600F074FCC8F800763C
:105270004FF4967003F08CFB013CF0D12023029395
:10528000CDE90044234622464FF47A71532002F0C0
:105290004DFDBFE702232B7002F020FD002003F03C
:1052A00095F803F0D9FA134BDFF85C80124F002217
:1052B000C3F8FC2F03F090F803F094F8032496262B
:1052C000002318461A46FF21009600F043FCC8F858
:1052D00000764FF4967003F05BFB013CF0D123465F
:1052E0004FF4FA624FF47A71152003F065FB91E7F1
:1052F000AC010020001000403546526EDC02002058
:10530000680100206C010020000001402DE9F041FF
:1053100084B003F023FA6D4B04464FF0A0401B7895
:10532000D0F81025012101FA03F313407CD0684B1B
:105330001A7852B9674A19701460DFF8BC8198F87E
:1053400000308BBB04B0BDE8F081624D2B68E21ADF
:105350001A3A40F2CD318A4209D81E230021009327
:1053600008464FF0FF33FF2200F0F4FB2B686FF488
:105370007A72A218D21A40F69E718A4240F2818057
:10538000E31A41F288329342D7D91E23FF22DFF875
:105390006881009310464FF0FF33002100F0DAFBE4
:1053A00098F80030002BCDD04B4B1B68E31AB3F5B7
:1053B000FA7FC7D9494B4A4A1B781278002B51D142
:1053C000092A58D90DF10F020DF10E010DF10D0052
:1053D00000F078FF434B9DF80D10434A9DF80E40B6
:1053E00059709DF80F009C700121D870117003F066
:1053F000B5F93E4B3E4F3F4E1860142496250023CE
:10540000FF2108461A46009500F0A4FBC7F8006685
:105410004FF4967003F0BCFA013CF0D1002388F8F9
:10542000003004B0BDE8F081294A1578002D84D001
:10543000284D13702A68A21A192A7FF67EAFB2F59A
:105440007A7F2FD224490A68A21AB2F5C87F244A6B
:1054500002D213780133DBB22748137001230C60AA
:1054600003706FE7254B196841F28733641A9C4239
:10547000A6D8022A21D8FFF79BFE002388F8003027
:10548000CFE700221E23009311464FF0FF33FF2089
:1054900000F060FB2B6841F28832E31A93427FF6FA
:1054A0004CAF72E741F287339A423FF646AF144B56
:1054B0001B789940C0F80C153FE7124B01221A7077
:1054C00003F04CF9104B1860A8E700BF190000204A
:1054D000200100201C010020B001002074010020E8
:1054E00021010020DC020020680100206C01002066
:1054F000000001403546526EB401002070010020CA
:105500001A00002084010020800100202DE9F04FC6
:10551000A74BA84C1978A84D01224FF0A0404FF09E
:10552000804302FA01F1C0F818154FF01026C0F8B8
:1055300008154FF40041C3F87825C4F8041500217C
:105540002260C6F80C122C7804F5E07491B040F893
:1055500024101D46C3F800111A60D5F80031002B45
:10556000FBD0944C954D03F09DF8C4F800561A23D7
:1055700006220721082000F0BBFA1122C4F80056C9
:1055800010230D210E2000920F2201F06DFCFA264F
:1055900001F0CAFD00231A4619460096FF2000F0CC
:1055A000D9FAC4F800564FF4967003F0F1F90023CD
:1055B0001A461846FF21009600F0CCFAC4F80056AF
:1055C0004FF4967003F0E4F9002318461946FF22C1
:1055D000009600F0BFFA08AEC4F800564FF496707B
:1055E00003F0D6F9C4F80056304602F08DFA96E87A
:1055F0000F00734C84E80F00237803F00703012B9E
:1056000002D0002B40F03282DFF8E0A18AF80030AF
:105610006B4B5878FF2803D0DA78997800F0E8FED1
:10562000674988884FF6FF7398420ED0B1F90E2073
:10563000B1F90C3000930192B1F90A30B1F90820A8
:10564000B1F9061000B201F033FF9AF80030022BD6
:1056500000F01B82002B00F01382012B00F00D8262
:1056600000F0F0FA574B534D544C012600221E60B7
:10567000C3F800224FF08052C3F80465506E03F067
:10568000B7F93220C5F8004603F082F900F0EEFBCE
:1056900007EE900A9FED4C7A4C4BF8EE677AF4EEE9
:1056A000C77AC3ED007AF1EE10FA494B079312D591
:1056B0001E704FF49677032600231A461946FF20E2
:1056C000009700F047FAC5F800464FF4FA7003F06F
:1056D0005FF9013EF0D100260A23CDE905639AF86F
:1056E0000070DFF80CB13B4DDFF8C890DFF8CC80DC
:1056F000CDF80CA0022FC9F8008601D103F056FCAA
:1057000003F02CF88246002E39D144F620639842EB
:1057100000F231819BF8003043B12F4B1B6842F2FD
:105720001072AAEB0303934200F21D812B4B1B78EE
:10573000002B40F0B380FFF7E9FD00F05FFB00288D
:1057400040F0A7802649274800F05EFB002851D191
:10575000039B1F78022F14D0002F40F0F5802B7888
:1057600033B1059B069AAAEB0303934200F26081D2
:10577000C9F8008602F0F2FF8246002EC5D001264D
:10578000C8E72B78002BB5D0FFF770F8164B597887
:10579000184603F033F9039B1F7800232B70002F6A
:1057A00040F0D080C9F80086CDF814A0A8E700BF6B
:1057B0001A00002000000140190000203546526EFA
:1057C000DC02002000D00040008054451000002082
:1057D00022010020C00100206C0100208401002073
:1057E00020060020EC02002014030020AC01002061
:1057F00068010020FEF760FD0028A9D0A5492A789D
:105800000B781D2A03F1010398BF01320B7098BF7A
:105810002A7000F02BFBA04B07EE900A1B68049344
:10582000B8EE677A07EE903AF8EEE77A9B4BB4EE63
:10583000E77AF1EE10FA83ED007A26D5079B1C7803
:105840001CBB974A13680133642B136080DD02F0A0
:1058500063FF4FF080410123C1F818450A468B6071
:10586000D2F80431002BFBD08E4B002201244C6077
:105870000220C3F8002503F08BF88B4B1A784FF009
:10588000A0439440C3F80C4562E7854A00231360A7
:105890005EE701F0B9FA01F0B1FC53E7834B002455
:1058A0001C7001F0ADFD824B1B685345C0F0B28007
:1058B000804B1B6844F62062AAEB030393427FF6F9
:1058C0003AAF7A4A012414707B4A0023137001F026
:1058D000BFFD0DF13E0301930EAB00930DF13602B7
:1058E0000FAB0DF13A010DA801F0B8FD8BF80040A7
:1058F000724CBDF83A70BDF83E30BDF834C0BDF80A
:105900003600BDF83C10BDF83820E780E381A4F8EC
:1059100004C020816181A28102F020FF684B0A242B
:10592000186096270023FF2218461146009700F0C2
:1059300011F9C9F800864FF4967003F029F8013C7C
:10594000F0D1F8E6CDF814A0012F7FF4D3AE2B7878
:10595000002B3FF40DAFFFF76FFA08B100232B7057
:10596000039B1F78C6E6554B0FCB02F0FFF80023D0
:105970008BF80030DAE600F0ABFD00283FF4FFAE14
:105980000DF13E020FA90DF13A0000F09BFC4B49CE
:105990009DF83A204B789DF83C409DF83E609B1A5C
:1059A00003FB03F3012B0ADC8B781B1B03FB03F3C4
:1059B0002BB9CB789B1B03FB03F3012B52DD3F4F2D
:1059C00010467A70FE7032463E4EBC70012321466E
:1059D000337000F00DFD97E80F0002F0C7F8337840
:1059E000002B3FF4CCAE032496260023FF2108466B
:1059F0001A46009600F0AEF8C9F800864FF496708B
:105A000002F0C6FF013CF0D102F0A8FE2E4B0126A9
:105A100018607FE6FF22FA23009310464FF0FF3311
:105A2000214600F097F8224A0AF5FA7313603FE71F
:105A3000FFF77EF8254B5978184602F06FFB244B90
:105A40002F70D3F80021544642B1D3F80825C3F88B
:105A5000007102F00702063206921B68039B059450
:105A60001F7847E6174A01231370BCE7DFF864A0EC
:105A7000022B08BF8AF80030CAE5FFF7FDFAEFE510
:105A8000FFF728FB9AF80030E7E5FFF75BFB9AF891
:105A90000030DFE50D0100200C0000201000002088
:105AA0007C010020003000401A0000201800002077
:105AB000880100208001002084010020DC020020F9
:105AC0006C010020740100207001002014030020EC
:105AD00000D00040AC010020044BD3F8042122B1D7
:105AE0000022C3F80025C3F80421704700C001401C
:105AF000DFF85CC0F0B40124CDB2C7B28CF801105D
:105B00008CF8033004FA07F704FA05F5D1B2DBB2DA
:105B10008CF802200D4E8CF800004FF0A04204FAE1
:105B200001F19C4047EA05030B43C6E90075C6E94D
:105B30000214C2F818753361C2F81855C2F8181566
:105B4000C2F81845C2F80835F0BC70476808002054
:105B50007C080020F0B40028049D67DB00FB00F007
:105B6000801140F2FF36324CB042A8BF3046206070
:105B7000002908DB01FB01F1891140F2FF3081426D
:105B8000A8BF01466160002A08DB02FB02F2921105
:105B900040F2FF318A42A8BF0A46A260002BA8BF8C
:105BA000E360244BD3F8002512B10022C3F800258E
:105BB0002149204B0A78C3F860252048204A2768ED
:105BC0004E781780C0F8606567688E785780C0F897
:105BD0006465C978A768C0F86815E168D1800024B9
:105BE00001204FF4806197800226C3F800052D0143
:105BF000C3F804450827C3F8081540F2FF31C3F87D
:105C00000C451181C3F810655181C3F81445918189
:105C1000C3F82025D181C3F82475C3F82855C3F8EB
:105C200000639860C3F80002F0BC7047004C9FE727
:105C30002400002000C001407C08002004C0014076
:105C400080080020F0B41A4B1A4D1B481B4A002153
:105C500001240526C3F80045C3F81065C3F81415E0
:105C60002E6830400243164E2A600A204FF0030C83
:105C70000727C3F81825134DC3F8F0C50822C3F849
:105C8000F475C3F8F815C3F800038020C3F82C5648
:105C9000C3F8302630601A46C3F800111C60D2F8F1
:105CA0000031002BFBD001235360F0BC704700BFD4
:105CB00000700040D0080020CCE8E8FE1000010190
:105CC00000E100E0B0080020444BD3F80C211AB1E9
:105CD000D3F80421002A61D0404BD3F80421002AD4
:105CE00065D0F0B500213E48C3F80411C3F80C118B
:105CF000027802F0FF071AB33A4C3B4D0170268A36
:105D00003A4A2E800520C3F810059578012060F3EB
:105D1000020595701268C3F8182508250722C3F8F4
:105D2000F425C3F82C461A46C3F83056C3F80011C0
:105D30001860D2F80031002BFBD001235360F0BD76
:105D4000284A2B492B4D16682B4C0E6001262E70CD
:105D50002568D2F804C0C1F804C035442560256820
:105D6000D2F808E0D2F80CC0C1F808E0B5F57A7FA7
:105D7000C1F80CC01CDC0821C3F82C26C3F830166F
:105D8000164B00220121C3F800211A461960D2F8EF
:105D90000031002BFBD001235360F0BD0121C3F87B
:105DA0000C2159600D4BD3F80421002A99D170477A
:105DB0000E49276006250670C3F81055887804241C
:105DC00064F3020088700968C3F818151032C3F82C
:105DD000F475C3F82C26C3F83066D1E70070004094
:105DE000C5010020B0080020C2010020D00800201A
:105DF00090080020C401002034000020014B1878D6
:105E0000704700BFC401002016490A7802F0FF0362
:105E100092B1154B021D9A4202D91A1D90420DD320
:105E20001A6802605A6842609A688260DB68C360E0
:105E300000230B7008207047184670471A880280AC
:105E40005A8842809A888280DA88C2801A890281C0
:105E50005A8942819A898281DB89C38100230B7030
:105E600008207047C4010020900800200D4A1388C4
:105E70009BB282B083B113889FED0B7A07EE903A04
:105E8000F8EEE77A67EE877AFDEEE77A17EE900A8A
:105E9000CDED017A02B070474FF46163184601936B
:105EA00002B07047C201002005C0283FD0ED034A70
:105EB00090ED074A90ED061A90ED052AD0ED025AB2
:105EC000D0ED013ADFED452AD0ED041AD0ED007A8D
:105ED0009FED433A9FED430A74EEC46A35EEC16A02
:105EE00033EEC27A26EEA25A77EEA10A73EE823A18
:105EF00034EE844A26EE222A75EE815A77EEE17A54
:105F000075EE071A37EE457A33EEC41A61EE831A3E
:105F100070EEA54A32EE275A77EEC27A26EE832A31
:105F200027EE033A66EE806A27EE007A2DED028BAB
:105F300070EEE55A34EEA38A72EE060A61EE228A0A
:105F400074EEE34A35EE210A72EE463A37EE277ACE
:105F500076EEC66A77EE837A36EE426A35EE615A9D
:105F600038EE048A74EEC44A30EE420A35EE025A24
:105F700037EE027A77EEC27A76EEC36A35EEA82A59
:105F800033EE833A75EEE85A30EEA14A36EE616A96
:105F9000F1EE413A81ED008AC2ED002ABDEC028BA0
:105FA00081ED010A82ED014A81ED022A82ED021A99
:105FB00081ED037A82ED033AC1ED044AC2ED042A71
:105FC00081ED055A82ED056AC1ED065AC2ED063A29
:105FD000C1ED077AC2ED076A704700BF00000000FC
:105FE000F304353FF30435BF184B70B4C3F808050C
:105FF000C3F80C154FF00041C3F81025144CC3F83A
:10600000241500221021134E134DC3F840250720FC
:10601000C3F83465C3F838154FF0FF36C3F8502580
:10602000C3F84455C3F8481540250821C3F8002299
:10603000C3F80863C3F80453C3F85425C3F8000534
:1060400084F80323216070BC704700BF003000401B
:1060500000E100E0F4080020D408002010B50C4B4B
:10606000D3F818313BB10B4B1A7822B10A4A002100
:10607000126819709047094B0549094A1C684FF08E
:10608000A0400023C0F80845C1F81831137010BDB6
:1060900000300040CC010020D0010020C8010020C9
:1060A000C6010020F0B4114C237803F0FF05002B4B
:1060B000FAD1DFF848C00E4BCCF800204FF0A04CCE
:1060C0000C4E0D4FC3F83475C3F844650227CCF865
:1060D0000C25012230707170C3F84875C3F8505513
:1060E000C3F8382522701A61F0BC7047C601002041
:1060F00000300040D4080020F4080020C80100202F
:10610000F0B4114A137803F0FF04002BFAD10F4BBF
:106110000F4D104E104F29604FF0A04CC3F834754E
:106120000125C3F84465CCF80C1502213070747059
:10613000C3F84855C3F8381515701D611378002B46
:10614000FCD17878F0BC7047C601002000300040D8
:10615000C8010020D4080020F40800202DE9F041F7
:10616000DDF818C0134D2C7804F0FF06002CFAD18E
:10617000114CDFF84C80C4F834354FF0A0430F4F7A
:10618000C4F84475C8F800C0C3F80CC5DFF834C0C3
:10619000DFF834E03870012301317E70C4F84835EF
:1061A000C4F838152B702361CCF800208EF800302D
:1061B000BDE8F081C601002000300040D408002076
:1061C000C8010020D0010020CC010020F0B5394AE0
:1061D000394B947992F805C01579107AD178D7792E
:1061E00092F80EE09678D3ED023A93ED014A0CEB6B
:1061F000042C0FFA8CFC01EB052107EB0027557AE4
:10620000907AD47AA3F838C007EE10CA3FB205EBF3
:106210000025F8EEC74A107B5F8707EE107A2DB293
:1062200004EB0024B8EEC75A507B52781D8607EE67
:10623000105A24B2F8EEC75A00EB0E2007EE104AAF
:1062400009B200B207EE901A02EB0622B8EEC76A56
:1062500007EE100A12B2F8EEC76AF8EEE77A07EE18
:10626000102A1A6CD986B8EEC77A67EEA37A64EE64
:10627000A34A25EE235A65EE845A26EE046A66EE9A
:10628000846A0E4E0E495C869886013200240120F5
:1062900083ED157AC3ED067AC3ED074A83ED085AFC
:1062A000C3ED035A83ED046AC3ED056A1A643470C2
:1062B0000870F0BD9809002014090020D4010020C6
:1062C000DD01002030B4474BD3ED007AFDEEE77AD4
:1062D00017EE904A002CACBF17EE905AE51CAD109B
:1062E000FF2C2B4606DDB5F1400348BFA5F13D0369
:1062F0009B10403313F13F0F0EDA13F1400448BFF7
:1063000003F14304A310403B6FF07E04A342B8BFE7
:1063100023467F33DBB203E07F2BC8BFFE23F3DDD0
:10632000314C0370D4ED007AFDEEE77A17EE900A57
:1063300017EE904A0028B8BFC41CA410FF282346BB
:1063400006DDB4F1400348BFA4F13D039B10403388
:1063500013F13F0F0EDA13F1400048BF03F1430081
:106360008310403B6FF07E008342B8BF03467F330B
:10637000DBB203E07F2BC8BFFE23F3DD1B480B70AD
:10638000D0ED007AFDEEE77A17EE901A17EE900A3C
:106390000029B8BFC81C8010FF29034606DDB0F1F4
:1063A000400348BFA0F13D039B10403313F13F0F62
:1063B00010DA13F1400148BF03F143018B10403B59
:1063C0006FF07E018B42B8BF0B467F33DBB2137098
:1063D00030BC70477F2BC8BFFE23F1DD137030BC8B
:1063E000704700BFF80100200002002008020020D2
:1063F00010B4B0F17F0459D43F2C30DCA30006EE7A
:10640000903AB1F17F00F8EEE66A31D43F2849DDD9
:10641000AF390B0107EE103AB2F17F03B8EEC77A3D
:1064200033D43F2B3ADDA2F1AF031B0107EE903AC4
:10643000234B244993ED026A234A244BF8EEE77A72
:1064400066EE866A27EE067A67EE867AC1ED006A06
:1064500082ED007AC3ED007A5DF8044B7047AF38E7
:10646000030106EE903AB1F17F00F8EEE66ACDD571
:1064700010F13F0F16DAA1F14F00030107EE103AB9
:10648000B2F17F03B8EEC77ACBD513F13F0F05DA2F
:10649000A2F14F031B0107EE903AC9E79B0007EEFC
:1064A000903AC5E7830007EE103AB5E714F13F0FC5
:1064B000A4DAA0F14F04230106EE903AA1E700BF51
:1064C00014090020F4010020FC0100200402002037
:1064D000014B1878704700BFE50100200000000064
:1064E0002DE9F04F2DED048BBFB002F029F9E24EFB
:1064F000074630684CF25033381A984200F29C83B9
:10650000B0F57A7FC0F0938307EE900AF8EEE77A51
:10651000DA4C17EE900A07F08FFBCFA3D3E90023E4
:1065200007F0E2FB07F0B8FED54A137808EE100A30
:10653000002B00F08983D34D376002F00FF944F649
:106540001F639842064600F2C380B5F93680B5F95C
:1065500038B0B5F93AA0404607F05CFBC0A3D3E9D8
:10656000002307F0C1FBCDE90001584607F052FBBC
:10657000BBA3D3E9002307F0B7FBCDE902015046E6
:1065800007F048FBB6A3D3E9002307F0ADFB42F2C6
:106590000F739E42CDE9040140F26483DFF810934B
:1065A000B94BD9ED007ADFF80CB3DFF80CA3CDEDD1
:1065B000067AD3ED007ADBF80070CDED077ADAEDDC
:1065C000007A099301374FF47A7842F21073CDEDD7
:1065D000087A08FB0738069807F02EFBA2A3D3E938
:1065E000002307F081FB07F057FE07F025FBDDE9EC
:1065F000002307F0C3F907F04FFE08EE900A079852
:10660000C9ED008A07F018FB97A3D3E9002307F030
:106610006BFB07F041FE07F00FFBDDE9022307F0FB
:10662000ADF907F039FE099B09EE100A089883EDD1
:10663000009A07F001FB8CA3D3E9002307F054FB79
:1066400007F02AFE07F0F8FADDE9042307F096F9CF
:1066500007F022FE464507EE900ACAF8000037D937
:106660008A4B8B4A93ED006AD2ED006A894B78EE33
:10667000C68A39EE669A93ED007AF5EEC08A77EE17
:10668000C77AF1EE10FAB5EEC09A48BFF1EE688A0B
:10669000F1EE10FA48BFB1EE499AF5EEC07AF1EE8C
:1066A00010FA78EE898A48BFF1EE677A78EEA78A09
:1066B000B2EE0E7AF4EEC78AF1EE10FA03D5764AFE
:1066C000137801331370062FCBF8007000F3498361
:1066D000724BD5ED077AD3ED004A714AD5ED066AC3
:1066E000D2ED005A6F4B95ED096A93ED005A95ED86
:1066F000087ADFED6D8A77EEE47A76EEE56A67EE8A
:10670000885A37EE457A35EE866ACDED2B7A16EE4D
:10671000100ACDED2A6A8DED2C7A07F08DFA54A37C
:10672000D3E9002307F0E0FA07F0B6FD2A696B69A8
:10673000E96868620CA80D920E930C9101F0CAF8FA
:10674000DDED2A1A9DED2B2ADDED2C2A9DED0E1A8A
:10675000DDED0D0A9DED0C0A01F0C8F9DDED2A7A98
:10676000DDED2B6A9DED2C7A95ED0A6A66EEA66A40
:1067700067EEA77A27EE077A77EEA67A20EE080A68
:1067800077EE877A36EE006A17EE900A85ED0A6A90
:1067900007F052FA41EC100B06F0BEFF53EC102B41
:1067A00018EE100ACDE9002307F046FADDE90023D0
:1067B00007F09AFA00223D4B07F096FA07F06CFDBD
:1067C00000EE100A09EE100A00F092FEB0EE408AC8
:1067D000B0EE490A00F0ECFE2AA8B0EE409ACDEDEA
:1067E0002D8A01F02FF8DDED2A6A9DED2B7ADDED83
:1067F0002C7A94ED000AD4ED010A94ED021AD4ED3E
:10680000031A8DED2D9A66EE886A27EE087A67EEF8
:10681000887AB0EE662AF0EE472AF0EE493AB0EEFA
:10682000673ACDED2A6A8DED2B7ACDED2C7A01F009
:1068300097F82EAD28468DED2E0ACDED2F0A8DED61
:10684000301ACDED311A00F0FDFF95E80F0084E815
:106850000F0039E0AFF300808DEDB5A0F7C6B03E74
:106860007B14AE47E17A743FD7A3703D0AD7EF3F60
:106870001EA7E8482EFFEF3FD8010020880900201E
:10688000DC01002014090020EC010020F8010020A8
:106890000002002008020020E4010020FC0100208A
:1068A000F401002004020020000000000000E03F8E
:1068B000E8010020E0010020F001002017B7D138E6
:1068C0000AD7233C00401C46FFEE009A94ED000AD4
:1068D000D4ED010A94ED021AD4ED031ACDED128A1B
:1068E000CDED138ACDED149A01F030F89DED143AF8
:1068F0009DED122ADDED132A1FED109A01F06CF8C0
:106900008DED120ACDED130A8DED141A01F026FF5C
:1069100041F287335FED167ADDED0C1A9DED0D2AFD
:10692000DDED0E2A9DED120ADDED130A9DED141A20
:10693000984298BFB0EE679A01F0C2F820EE490A7B
:1069400060EEC90A21EE491AB7EE008A36A88DED2D
:10695000360ACDED370A8DED381A8DED398A00F003
:1069600071FFDDED393A9DED383A94ED000AD4ED32
:10697000010A94ED021AD4ED031A9DED362ADDEDDD
:10698000372A00F0EDFF0BA90DF12E020DF12A00C0
:1069900084ED000AC4ED010A84ED021AC4ED031A65
:1069A00000F018FDBDF92A3006EE903ABDF92C3002
:1069B00007EE103ABDF92E3007EE903AF8EEE66A8F
:1069C000B8EEC77AF8EEE77A18A8CDED186A8DED23
:1069D000197ACDED1A7A00F07DFFDDED0E7ADDED4E
:1069E000181A9DED192ADDED1A2ADDED0D0A9DED2F
:1069F0000C0AF1EE677AB0EE671ACDED0E7A01F06F
:106A000075F89DED0E5ADDED0C5A9DED0D6ADDED2C
:106A10001A7ADDED186A9DED197A60EE255A20EE9E
:106A2000066A20EE050A76EEE56A37EE467A37EE1C
:106A3000C00A1BA8CDED1B6A8DED1C7A8DED1D0AD9
:106A400000F048FFF0EE681AB0EE482AF0EE682A2F
:106A5000DDED0D0A9DED0E1A9DED0C0ACDED1E8AA1
:106A60008DED1F8ACDED208A01F040F8DDED0D6A35
:106A7000DDED0C7A9DED0E7A60EE277A20EE077A36
:106A800020EE260A78EEE77A38EE400A78EEC78ADA
:106A900021A8CDED217A8DED220ACDED238A00F0DB
:106AA00019FFDDED220A9DED231ADDED1B1A9DED88
:106AB0001C2ADDED1D2A9DED210A01F001F8DDED16
:106AC0000C1A9DED0D2ADDED0E2A01F00FF8B5EE42
:106AD000C00AF1EE10FADDED1B1A9DED1C2ADDED6A
:106AE0001D2ADDED220A9DED231A9DED210A58BFD6
:106AF000B0EE698A00F0FAFF00F03AFE5FED8F7A9F
:106B0000AF4BD4ED010A94ED021AD4ED031A9DEDBA
:106B10001E2ADDED1F2A9DED203A20EE088A94ED15
:106B2000000A68EE277AFDEEE77A17EE902A1A80BF
:106B300000F052FFF0EE607AF0EE400AB0EE670A25
:106B400000F09CFD38EE408A18EE100A07F074F849
:106B500093A3D3E900238046894607F055FB70B123
:106B600091A3D3E900234046494606F005FF07F00C
:106B700093FB08EE100A07F05FF8804689468CA365
:106B8000D3E900234046494607F020FB50B186A3D5
:106B9000D3E900234046494606F0F0FE07F07CFBAF
:106BA00008EE100ADFED877A9FED873A44F61F63FF
:106BB0009E4298BFB0EE673A28EE038A18EE100A9C
:106BC00007F03AF8002206460F46804B07F08CF893
:106BD00032463B4607F088F802460B4600207C49C7
:106BE00006F0CAFE07F058FB9DED0C2ADDED0D2ADC
:106BF0009DED0E3A94ED000AD4ED010A94ED021ACF
:106C0000D4ED031A03EE900A22EE082A62EE882AD7
:106C100023EE083A00F0A4FE6E4884ED000AC4EDAD
:106C2000010A84ED021AC4ED031A00F00BFE3FB016
:106C3000BDEC048BBDE8F08F674A9FED688A13783E
:106C4000644C002B7FF477AC654D4FF07E510023F0
:106C5000E160012123606360A3606B62AB62EB6261
:106C6000117069E45F4FD7ED007AF5EE407AF1EEEE
:106C700010FA6BD0DFF8809199ED007A8DED067AED
:106C8000DFF87881D8ED008AF5EE408AF1EE10FA4F
:106C900079D0554B099393ED007A8DED077A534BDC
:106CA00093ED009AB5EE409AF1EE10FA62D0DFF85B
:106CB00050A19AED007A8DED087A17EE900A06F051
:106CC000BBFF3DA3D3E9002307F00EF807F0E4FA79
:106CD00006F0B2FFDDE9002306F050FE07F0DCFA13
:106CE000386018EE900A06F0A7FF33A3D3E900231B
:106CF00006F0FAFF07F0D0FA06F09EFFDDE9022366
:106D000006F03CFE07F0C8FAC8F8000019EE100AB9
:106D100006F092FF28A3D3E9002306F0E5FF07F071
:106D2000BBFA06F089FFDDE9042306F027FE07F031
:106D3000B3FA2E4BDFF8CCB02D4A18600023CBF805
:106D40000030137042F6F828012744E407EE908AD9
:106D5000DFF8A490F8EEE77ACDED067AC9ED007A77
:106D60008EE7234B1B78062B7FF6B2AC214B01221A
:106D70001A70ADE407EE10AAB8EEC79ADFF880A04B
:106D80008DED089A99E707EE10BA174B0993F8EEC4
:106D9000C78ACDED078AC3ED008A80E7AFF3008094
:106DA000A7E8482EFF2109404AD8124DFB2119407F
:106DB000A7E8482EFF2109C0D7A3703D0AD7EF3FAF
:106DC000D60100206F12833A17B7D1380000E03F98
:106DD0000000F03F88090020DC010020CDCC4C3DB4
:106DE00014090020F8010020EC0100200802002016
:106DF000E4010020E5010020E8010020000200205D
:106E0000F0010020E001002030B5124C237883B05F
:106E1000D3B9114C237813B1002003B030BD0F4D0E
:106E20009E202968FFF76CF900F003000328F3D1D6
:106E30002B6800930A4A0B4B0E21A020FFF78EF916
:106E40000120207003B030BDFFF74AFB0023237000
:106E5000DFE700BFDD010020D4010020140900207D
:106E6000CD61000098090020F8B5144C01254FF0C1
:106E7000A04605FA03F31746C6F818350A462360FC
:106E80000146C6F80835384600232364FFF7ACF8FE
:106E90000B490C4B2268616028462946A360FFF726
:106EA00001F9226860211020FFF7FCF822686421B4
:106EB0001120BDE8F840FFF7F5B800BF1409002025
:106EC000CDCC1C3AA721A0392DE9F041174C8046C2
:106ED000E06816461D460F4606F0AEFE0022144B33
:106EE00006F002FF07F0B0F9A8F80000206806F0ED
:106EF000A3FE00220E4B06F0F7FE07F0A5F938803E
:106F0000606806F099FE0022094B06F0EDFE07F0DE
:106F10009BF93080A06806F08FFE0022044B06F03B
:106F2000E3FE07F091F92880BDE8F0818809002090
:106F30000040DF4010B4064BB3F930400480B3F991
:106F400032000880B3F9343013805DF8044B704789
:106F50001409002010B4064BB3F936400480B3F98D
:106F600038000880B3F93A3013805DF8044B70475D
:106F700014090020064B9FED077AD3ED097A67EEDE
:106F8000877AFDEEE77A17EE903A18B2704700BFA5
:106F90001409002000007A44064B9FED077AD3EDD8
:106FA0000A7A67EE877AFDEEE77A17EE903A18B222
:106FB000704700BF1409002000007A44064B9FED83
:106FC000077AD3ED0B7A67EE877AFDEEE77A17EE54
:106FD000903A18B2704700BF1409002000007A44AC
:106FE0004FF04023D3F8043123B1044B1A780AB18F
:106FF00000221A70024B00221A70704719020020FA
:10700000180200202DE9F041214C237806468846DD
:1070100017465BBB4FF040221E4B1F4D83F800808C
:1070200002205F700021C2F888654FF40074C2F836
:1070300048050120C2F84435C2F850151346C2F87D
:107040003815C2F83455C2F84015C2F80042C2F8EB
:107050000411C2F82411906002E0D3F824211AB977
:10706000D3F80421002AF8D0BDE8F08101F076FBC6
:10707000054604E001F072FB401B312802D823785A
:10708000002BF7D12378002BC4D0BDE8F08100BFDE
:1070900018020020B8090020F8090020F8B51F4C9C
:1070A000237806460F4643BB4FF040221C4B1D4C35
:1070B0001F70002101204FF48455C2F88865C2F882
:1070C0004805C2F84435C2F850151346C2F83805D1
:1070D000C2F83445C2F84015C2F80052C2F8041193
:1070E000C2F82411906002E0D3F824211AB9D3F831
:1070F0000421002AF8D02078F8BD01F02FFB0546C6
:1071000004E001F02BFB401B312802D82378002B30
:10711000F7D12378002BC7D0F8BD00BF180200209C
:10712000B8090020F80900204FF0402370B506226E
:107130004FF0C86102200324C3F80805C3F80C45CA
:107140000120C3F82415C3F8002501F021FC0D210E
:107150002C20FFF7A3FF0D210446013C0846FFF752
:107160009DFFE4B2FD2C214C214D8CBF0D202C2025
:10717000892209212070FFF745FF2078FF220B218B
:10718000FFF740FF2B782478FBB94FF040231948D4
:10719000194D002201210270C3F88845C3F8481533
:1071A0000624C3F844054FF48450C3F85025C3F8AF
:1071B0003845C3F83455C3F84025C3F80002C3F876
:1071C0000421C3F82421996070BD01F0C7FA064676
:1071D00004E001F0C3FA801B312802D82B78002B81
:1071E000F7D12B78002BD0D070BD00BF4400002019
:1071F00018020020B8090020F80900202DE9F04FFE
:10720000654D83B001F0AAFA2B68C31A092B40F22E
:10721000AA80624C624994F801C091F800902278EB
:10722000E778A37866792179286042EA0C2243EA5C
:10723000072341EA0621B9F10D0F12B21BB209B2C0
:1072400000F09480574D5848B5F90050574FDFF87B
:1072500074A1DFF87481DFF874E101950078544D72
:10726000B7F90070B5F90060BAF900B0B8F900C01C
:10727000BEF90050009760B35A4505DD02F1010BDD
:107280000FFA8BFBAAF800B0B24203DA561E484848
:1072900036B20680634505DD03F1010C0FFA8CFC64
:1072A000A8F800C0AB4203DA5D1E2DB2AEF8005064
:1072B0000098814205DD4F1C38B200903B48009F8A
:1072C00007800198814204DA481E07B235480197C9
:1072D000078042F2107E921B0EFB02F2ABEB060619
:1072E00092FBF6F6334A0198DFF8E480009FA6F59A
:1072F0009C565B1B083E16800EFB03F32E4AACEB3C
:10730000050593FBF5F5A5F59C55091A083D158073
:10731000381A0EFB01F1294A91FBF0F198F8003080
:10732000A1F59C510839118023BB4FF0402324481C
:107330000022012102700625C3F88895C3F848157C
:10734000C3F844054FF48450C3F85025C3F83855AA
:10735000C3F83445C3F84025C3F80002C3F804213C
:10736000C3F82421996003B0BDE8F08F50421A465B
:1073700003B267E701F0F2F9054604E001F0EEF927
:10738000401B312803D898F80030002BF6D198F82C
:107390000030002BC9D0E6E714020020F8090020D5
:1073A00044000020420000200C0200204000002089
:1073B0003A0000200E0200201002002012020020DD
:1073C000B8090020380000203C0000203E000020CA
:1073D0001802002010B4074C074BB4F90040048099
:1073E000B3F90000054B0880B3F9003013805DF855
:1073F000044B70470E0200201002002012020020F1
:107400000C4B1A78A2B9F0B40B490C4F0C4E0D4836
:107410000D4D0E4C4FF4FA420A803A803280012121
:107420004FF40342028019702A802280F0BC70471A
:10743000704700BF0C020020420000203A000020EC
:107440003E00002040000020380000203C000020CA
:10745000014B00221A7070470C02002030B40E4D10
:107460000E4CB5F900500580B4F900400C480C8072
:10747000B0F900000B491080B1F900100A4A1980D8
:10748000029BB2F90010094A1980039BB2F900204F
:107490001A8030BC704700BF3A000020380000203E
:1074A0003E0000203C000020420000204000002060
:1074B00070B4094C094E2080094C318009480A49B2
:1074C00022800A4DBDF90C40BDF9102004800A80CD
:1074D0002B8070BC704700BF3A00002038000020AD
:1074E0003E00002042000020400000203C00002020
:1074F000DFED297AB4EEE70AF1EE10FA08D59FED38
:10750000277A30EE070AB4EEE70AF1EE10FAF8D463
:10751000DFED237AB4EEE70AF1EE10FA08DD9FED15
:107520001F7A30EE470AB4EEE70AF1EE10FAF8DC03
:107530009FED1C7ADFED1C7A20EE077AB5EEC00ACB
:10754000F1EE10FA60EE277A27EE007A11D437EECA
:10755000C70AB5EEC00AF1EE10FA11D460EE007A57
:107560009FED127A77EEC07A67EE877A37EE800A5F
:10757000704737EE870AB5EEC00AF1EE10FAEDD586
:1075800060EE407A9FED097A77EEC07A67EE877AEF
:1075900037EE800A704700BFDB0F49C0DB0FC940E0
:1075A000DB0F49407B81CF3E83F9A23F6666663E92
:1075B000DFED2B7A9FED2B7A30EE270AB4EEC70A67
:1075C000F1EE10FA08D5DFED287A30EE270AB4EE96
:1075D000C70AF1EE10FAF8D4DFED247AB4EEE70A28
:1075E000F1EE10FA08DD9FED207A30EE470AB4EE96
:1075F000E70AF1EE10FAF8DC9FED1D7ADFED1D7A57
:1076000020EE077AB5EEC00AF1EE10FA60EE277AA6
:1076100027EE007A11D437EEC70AB5EEC00AF1EEB4
:1076200010FA11D460EE007A9FED137A77EEC07AEB
:1076300067EE877A30EE270A704737EE870AB5EE95
:10764000C00AF1EE10FAEDD560EE407A9FED0A7AAD
:1076500077EEC07A67EE877A30EE270A704700BF70
:10766000DB0FC93FDB0F49C0DB0FC940DB0F4940CF
:107670007B81CF3E83F9A23F6666663EF5EEC00A87
:10768000F1EE10FADFED337A4CBFF1EE606AF0EE06
:10769000606AB5EEC00AF1EE10FAF4EEE76A4CBF8C
:1076A000B1EE406AB0EE406AF1EE10FA4DD4F4EE5D
:1076B000C66AF1EE10FA2BD486EE267ADFED267A32
:1076C000DFED265A9FED266A67EE076A66EEA77A17
:1076D00077EEA57A67EEA67A77EEC67A67EEA67A97
:1076E00067EE877A77EE877AF5EEC00AF1EE10FA48
:1076F00048BF9FED1C7AB5EEC00A48BF77EE677AA7
:10770000F1EE10FA01D5F1EE677AB0EE670A704734
:10771000C6EE865A9FED107A9FED105A9FED106AC3
:10772000DFED117A65EEA56A26EE877A37EE057AE7
:1077300027EE267A37EE467A27EE267A27EE257A46
:1077400037EE257A77EEC77ACEE7DFED087AB0EE2E
:10775000670A704795BFD63316733EBD4423233E58
:107760002CBEA73EDA0F4940DB0FC93F00000000E6
:10777000B5EEC00AF1EE10FA48BFB1EE400A30EEA5
:10778000007AF7EE007A37EE677ADFED276A9FED31
:10779000273ADFED277A9FED275ADFED275ADFEDF5
:1077A000273A9FED274A27EE076A20EE260A67EE62
:1077B000066A30EE670A26EE036A26EE855A70EEF8
:1077C000067A67EE266A77EEC57A66EEA55A67EE08
:1077D000266A77EEE57A27EE267A66EEA36A27EE2A
:1077E000047A77EEA67A48BFFFEE004A77EE877AF2
:1077F00058BFF7EE004A67EEA47A08B517EE900A74
:1078000006F01AFA02460B4605A1D1E9000106F07E
:10781000B3F806F041FD00EE100A08BDAFF300809A
:107820004AD8124DFB21F93F8A1E9E3F6414653EE3
:10783000CACFCA3D0AE2323E098ED93EC60E9E3EEE
:10784000D955E13E10B5D0ED007A90ED016AD0ED4A
:10785000026A90ED037A26EE066A67EEA77A66EE74
:10786000A66A77EE867A27EE077A77EEA67A04463E
:1078700077EE877A17EE900A06F0DEF941EC100BEE
:1078800005F04AFF51EC100B06F006FD07EE100A5A
:10789000B5EEC07AF1EE10FA1BDDF7EE006AC6EE27
:1078A000877AD4ED005A94ED016AD4ED026A94ED22
:1078B000037A65EEA75A26EE276A66EEA76A67EE98
:1078C000277AC4ED005A84ED016AC4ED026AC4ED62
:1078D000037A10BD10B5D0ED007AD0ED016A90EDBD
:1078E000027A66EEA66A67EEA77A27EE077A77EE47
:1078F000A67A044677EE877A17EE900A06F09CF98E
:1079000041EC100B05F008FF51EC100B06F0C4FC25
:1079100007EE900AF5EEC07AF1EE10FA15DDB7EE3B
:10792000007A87EE276AD4ED006A94ED017AD4EDEF
:10793000027A66EE866A27EE067A67EE867AC4EDEC
:10794000006A84ED017AC4ED027A10BD8CB0B1EE0C
:10795000400AF1EE600AB1EE411A0CB0704700BF68
:1079600020EE234A60EEA34A61EE235A20EEA25A8B
:1079700021EE826A61EEA26A61EE837A20EE027ADB
:1079800077EEA57A36EE046A61EE035A20EE834A5A
:1079900076EEA46A37EE057A61EE024A20EE225AAC
:1079A00020EE033A61EE222A20EE822A36EE046AA5
:1079B00076EEA46A61EEA31A37EE851A37EE257AC1
:1079C00036EE620A76EEC30A71EEC71A31EE421A3B
:1079D00090B010B0704700BFB1EE405AB1EE604AAF
:1079E000DFED367A62EE843A62EE055AF1EE414AF4
:1079F0002DED028B25EE277A62EE218A23EE218A75
:107A000064EEA76A75EEA35A63EE243A24EE276A61
:107A100075EEA35A37EE287A62EEA43A76EE886ABB
:107A200022EEA18A37EE237A36EE086A63EE053A33
:107A300022EE048A36EE236A76EE886A61EEA77A31
:107A400023EE043A22EE242A62EE852A37EE433AE8
:107A500077EEE57A76EEE22A36EE422A20EEA75A53
:107A600020EE276A61EE836A21EE827A61EE277A40
:107A700061EEA21A60EEA25A76EE866A37EE057AB9
:107A800020EE026A71EEA71A61EE037A21EE022A55
:107A900060EE222A20EE831A76EEA56A71EE861A2F
:107AA00077EE277A36EEC20A77EEE20A31EEC11A95
:107AB00090B010B0BDEC028B704700BF000000001A
:107AC00060EE027A20EEA27A21EE022A60EE222AED
:107AD00021EE211A60EEA11A37EE420A71EE620A17
:107AE00037EEE11A8EB00EB0704700BF60EE211A7B
:107AF00020EE822A61EE222A71EE821A86B031EEE1
:107B0000A20A06B0704700BFF0B44FF0805384461D
:107B10001C694FF42C33B3FBF4F304FB03F3240987
:107B200019D01D686A1C1CD00433002206E0D968F5
:107B3000B1F1FF3F03F1100306D00D46013294422C
:107B4000D3E900079E68F2D1CCE90050CCE9027677
:107B50006046F0BC70474FF0FF363746304635463A
:107B6000F2E72E462F462846EEE700BF2DE9F04308
:107B70008BB002AE86E80F004FF080524FF0FF331B
:107B8000156906934FF42C3EBEFBF5FE0EFB05F483
:107B90002D0907930893099300F0898027687B1CBF
:107BA00000F0968004F11003002106E052F8100B5B
:107BB000B0F1FF3F4FD01346074601318D421A46C0
:107BC00053E9039853F804CCF0D10023013D8D42D2
:107BD00072DC414AD2F80034002BFBD002233E492C
:107BE000C2F80435D1F80034002BFBD03A4AC1F872
:107BF00008E5D2F80034002BFBD000233649C2F848
:107C00000435D1F80034002BFBD0334AD2F80034CD
:107C1000002BFBD001233049C2F80435D1F80034E1
:107C2000002BFBD02C4A314604F1100051F8043BE4
:107C30002360D2F80034002BFBD004348442F5D109
:107C400000232549C2F80435D1F80034002BFBD0BD
:107C50000BB0BDE8F083CDE90679CDE9088C029F31
:107C60001A6898680190DDE9038CD21B586818BF28
:107C70000122404518BF0122019884451FD0059874
:107C8000A9B1DDE9063237EA0303089B14BF0027D8
:107C9000012738EA020218BF00273CEA030315D186
:107CA000099B30EA030311D187B14B1E8EE70021F7
:107CB000013D8D420B468CDD04EB0314A5E7DB6828
:107CC00005989842DCD1002AC2D0D9E70B467DE75F
:107CD00023460021C3E700BF00E00140124BD3F868
:107CE0005025AAB1D3F85025042A12D0D3F8502534
:107CF0000C2A0ED000210120C3F800121A46C3F846
:107D000010111861D2F85035002BFBD1C2F8103198
:107D10007047054AD2F85035042BFBD0024AD2F8FE
:107D200050350C2BFBD07047001000402DE9F001BE
:107D30003C4FDFF80481022501240426FA29C8F803
:107D40008050C7F8FC4FC7F80C65C7F8080560D02D
:107D5000B1F57A7F55D10021C7F810150799069C17
:107D6000314D324E0020074661F3070764F30F27B9
:107D7000059C2C4905EA17454FF4847C64F3134CA9
:107D800045F4827464F31F4763F35967284BC1F8C5
:107D9000243503F14433C1F82835CCF30F45254B86
:107DA000C1F81C3525F48874C1F820350123C1F8C9
:107DB0002C05214DC1F8303564F31F4CAA231E2435
:107DC000C1F814C5C1F81875C1F8444540F2071749
:107DD000C1F834254FF0FF34C1F83C3508220223A6
:107DE000C1F83875C1F81001C1F80C01C1F8084399
:107DF000C1F80423306085F801032B60BDE8F00171
:107E0000704740F2E930814206D10321C7F81015CE
:107E1000A4E7C7F81055A1E7B1F5FA6F08BFC7F896
:107E200010459BE700100040F8FEFFFF30020020E5
:107E300011223344A70DE60E00E100E0F0B4364C09
:107E4000364BDFF8ECC02668022501240427FA2906
:107E5000CCF88050C3F8FC4FC3F80C75C3F8080584
:107E600050D0B1F57A7F45D10021C3F810152B4BC6
:107E70002B4D2C48C3F8245500210C4666F307040B
:107E800005F14435C3F8285500EA1440264DC3F8DF
:107E90001C5540F44170C3F820550125C3F82C153A
:107EA00060F31F44C3F830554FF48475C3F814557C
:107EB000C3F818451E24C3F844451C4EC3F83425A6
:107EC0001B48AA2540F207144FF0FF32C3F83C5577
:107ED000C3F83845C3F810110824C3F80C11C3F8CF
:107EE00008230222C3F80443316080F801130260C2
:107EF000F0BC704740F2E930814206D10321C3F85B
:107F00001015B4E7C3F81055B1E7B1F5FA6F08BF23
:107F1000C3F81045ABE700BF480000200010004048
:107F200011223344F8FCFFFFA70DE60E30020020BB
:107F300000E100E010B41E4BD3F85025032A20D0F6
:107F4000D3F85025012A1CD0D3F85025022A18D086
:107F5000D3F85025AAB1D3F85025042A1DD0D3F860
:107F600050250C2A19D000210120C3F800121A460E
:107F7000C3F810111861D2F85035002BFBD1C2F8AC
:107F800010310B4B0B4A112401200521C3F800428C
:107F9000586011705DF8044B7047054AD2F85035AF
:107FA000042BFBD0024AD2F850350C2BFBD0E8E76B
:107FB000001000402102002030B41F4BD3F85025A0
:107FC000092A03D0D3F850250A2A0FD11B4B1A4A8D
:107FD0001B481C4900241C60032501230224C2F80D
:107FE0000052136004700B6030BC7047D3F850250A
:107FF000002AEBD0D3F85025042A12D0D3F850250C
:108000000C2A0ED000210120C3F800121A46C3F832
:1080100010111861D2F85035002BFBD1C2F8103185
:10802000D4E7054AD2F85035042BFBD0024AD2F8E7
:1080300050350C2BFBD0C9E7001000401C0200207B
:10804000210200202C02002038B5304C23682BB1CF
:108050004CE000F083FB401B022802D82368002B71
:10806000F7D12B4BD3F85025092A03D0D3F850254C
:108070000A2A20D12749264A274B002008600325D9
:1080800001200421C2F8005210601970D2F8503556
:10809000002BFBD0D2F850350C2BF7D0D2F850354E
:1080A000042BF3D0D2F8003243F018030121C2F8B8
:1080B0000032216038BDD3F85025002ADAD0D3F839
:1080C0005025042A16D0D3F850250C2A12D00021AE
:1080D0000120C3F800121A46C3F810111861D2F833
:1080E0005035002BFBD1C2F81031C3E700F036FB4E
:1080F0000546B3E7064BD3F85025042AFBD0044BC2
:10810000D3F850250C2AFBD0B4E700BF2C02002086
:10811000001000401C020020210200200029F8B5B8
:108120003F4E23DD031D321D824288BFB3426CD80F
:108130004B1E072B69D921F003070744034632463B
:1081400053F8044B42F8044BBB42F9D121F003032E
:1081500099420BD0C25CF2545A1C914206DD0233A4
:10816000845CB454994201DDC25CF2542D4C236806
:108170002BB13BE000F0F2FA401B022802D8236842
:10818000002BF7D1284BC3F80465D3F85025092AF2
:1081900003D0D3F850250A2A0DD1244B224A244972
:1081A00000201860032501230220C2F8005213604A
:1081B00008702360F8BDD3F85025002AEDD0D3F81D
:1081C0005025042A16D0D3F850250C2A12D00021AD
:1081D0000120C3F800121A46C3F810111861D2F832
:1081E0005035002BFBD1C2F81031D6E700F0B6FABB
:1081F0000546C4E70C4AD2F85035042BFBD00A4A96
:10820000D2F850350C2BFBD0C7E70138044B0144A2
:1082100010F8012F03F8012B8842F9D1A6E700BF1F
:10822000780A00202C020020001000401C020020D0
:108230002102002010B4224A224B23491068234A0D
:108240000860C3F80425D3F85025032A20D0D3F8BA
:108250005025012A1CD0D3F85025022A18D0D3F873
:108260005025AAB1D3F85025042A1DD0D3F85025A3
:108270000C2A19D000210120C3F800121A46C3F8B5
:1082800010111861D2F85035002BFBD1C2F8103113
:108290000C4B0F4A112401200521C3F800425860FD
:1082A00011705DF8044B7047064AD2F85035042B24
:1082B000FBD0044AD2F850350C2BFBD0E8E700BFC6
:1082C0003C0200200010004024020020780B002017
:1082D0002102002089102DE97043254D27D400F19B
:1082E000080305F10802824288BFAB4294BF012314
:1082F00000230B2994BF002303F0010301316BB36A
:1083000040EA05035B0729D14C0800EBC4042A4668
:108310000346F3E802899C42E2E80289F9D121F0A0
:108320000103994203D050F8232045F82320114C33
:1083300023682BB10EE000F011FA801B022802D84E
:108340002368002BF7D10C4BC3F80455BDE87043EC
:10835000FFF77ABE00F002FA0646F1E7044B00EBA5
:10836000810150F8042B43F8042B8142F9D1DEE758
:10837000780A00202C02002000100040034A044B21
:1083800010681B68C01A18BF012070472402002023
:108390003C02002010B40A4C0022234653F8041B70
:1083A00040F8041B61780132B2EB910FF6DD054A0B
:1083B000054B12681A6008465DF8044B704700BF11
:1083C000780B00203C02002024020020014B1860A2
:1083D000704700BF30020020014B00221A60704736
:1083E00034020020014B00221A607047380200203E
:1083F0000D4A0E490023C2F80031C2F80431C2F818
:108400000831C2F80C31C2F81031C2F81431C2F888
:108410001831C2F81C31C2F82831C2F83031C2F824
:1084200034310B60704700BF001000402C02002068
:108430008B4B1A6802B110478A4BD3F804110029FC
:1084400048D1D3F80C21A2B18748864A8749002336
:108450000360C2F80C310B78022B37D00B78012B5C
:1084600040D00B78042B1ED00B78DBB2052B42D00A
:1084700070477D490A60C3F80021C3F80421C3F89E
:108480000821C3F80C21C3F81021C3F81421C3F844
:108490001821C3F81C21C3F82821C3F83021C3F8E0
:1084A00034210A607047724BC2F80435134603E06A
:1084B000D3F85025032A03D0D3F85025022AF7D148
:1084C000684A11200523C2F800020B70694B1B6833
:1084D0003BB11847C3F80421D3F80C31002BB3D1BA
:1084E00070477047644A136801331360634B1B681D
:1084F000002BEED1BCE770B45F4C614D20682D7845
:1085000001302060002D59D0D2F800345D4A127835
:10851000002B62D05C4B5D480124A2421C6002F13A
:1085200002065B4B40F3998004681C60B408012C80
:108530001AD045685D60022C16D085689D60032CBA
:1085400012D0C568DD60042C0ED005691D61052CB4
:108550000AD045695D61062C06D0072C856918BFD5
:10856000C4699D6118BFDC6126F00305AE420DD0E1
:10857000445D5C55AA4205F1010407DB055D1D550C
:10858000A24204F1010501DB405D5855FAB13548BE
:108590000422032501240A70C0F804350246C0F8FD
:1085A00000520460D2F85035002BFBD0D2F80032D4
:1085B00043F01803C2F8003270BC70470B70012002
:1085C0002E4B90601B68002BF6D070BC81E7254BCA
:1085D0000520012208709A60EEE72B4B4FF0FF3028
:1085E000012A186002F102052A48294B31DD04688E
:1085F0001C60AC08012C1AD046685E60022C16D0B4
:1086000086689E60032C12D0C668DE60042C0ED0F3
:1086100006691E61052C0AD046695E61062C06D0EB
:10862000072C866918BFC4699E6118BFDC6125F0FC
:108630000304A542AAD0055D1D55A24204F101051F
:10864000A4DB445D5C556C1CAA42A4BF005D1855B8
:108650009CE704781C700125F3E705781D708DE711
:1086600030020020001000402C02002021020020D7
:10867000780B0020380200203C0200203402002049
:1086800020020020280200201C020020580A00209E
:10869000780A0020380A0020014B1868704700BF94
:1086A0002C020020144B1548F0B4FA27C3F840758B
:1086B000002201210427C3F80425C3F80815C3F8D4
:1086C00010754FF48037C3F804730D4D0D4CC3F88B
:1086D00000124FF480670760402780F80A730A4E43
:1086E0002A600A4822600A4D0A4C32602A602260E1
:1086F00019600170F0BC704700A0004000E100E08C
:108700004002002048020020500200207402002095
:10871000440200204C02002030B40649064C074BAE
:108720004FF4806501200022C4F8805008611A705F
:1087300030BC704700A0004000E100E0740200205F
:10874000044B054A01219964D3F84805136818447D
:10875000704700BF00A0004040020020014B186895
:10876000704700BF48020020F0B4164C164D174B5E
:10877000174F184E22602860002401253C605D6080
:10878000032731604FF480364FF48071DD60C3F809
:108790000445C3F80875C3F81045C3F84005C3F88D
:1087A0000463C3F800120AB1C3F800520A4B074A27
:1087B00060244FF08060012183F81A431860116033
:1087C000F0BC7047680200206402002000A0014055
:1087D000700200205402002000E100E0F0B5174DC7
:1087E000174B184FDFF868E0DFF868C0164E012419
:1087F0002C6000253D60CEF800405C60CCF8002085
:108800000322DC60114FC3F80455C3F808254FF468
:108810008032C3F81055C3F840054FF48075C3F893
:10882000042360204FF08062C3F80052C3F8004276
:1088300086F81A0332601C603960F0BD68020020BF
:1088400000A001407002002000E100E0640200206E
:108850006002002054020020014B01225A60704740
:1088600000A00140024A034B106001221A607047C9
:10887000580200205C02002010B5224BD3F84021A2
:108880007AB10021204AC3F840111068C8B91F4BC3
:108890001B6898471E4A136893B1012B1FD0022B07
:1088A00015D0184BD3F8442152B10021194AC3F80E
:1088B0004411136823B1184BBDE810401B681847DA
:1088C00010BD16480068C3F840051160DFE7134982
:1088D0000C4B0968C3F8401500231360E1E70F4B08
:1088E0000F491B68096807480B44322B38BF3223F5
:1088F000C0F840350221034B1160D3F84421002A0F
:10890000DED0D2E700A00140600200205402002027
:108910005C020020700200206C0200206402002033
:108920005802002010B4134A1349144B144C002071
:10893000C2F840010A682468FA320A601A680132F3
:108940001A601A68A24211D30E4C0F4A21680131F5
:10895000216018601368013313601368B3F57A7FE0
:1089600004D30A490B6801330B6010605DF8044BB7
:10897000704700BF00A000404002002044020020D9
:108980004C000020480200204C0200205002002031
:10899000074B1A7852B107490B6882B00344019320
:1089A0000A68019B9A42FBD102B07047704700BF32
:1089B000740200204802002038B5154603221C46E8
:1089C000FFF73CFA074B084A1D601460FFF732FCC2
:1089D000064B01220021C3F80012C3F804251A60D7
:1089E00038BD00BF540000209402002000D0004099
:1089F000014B1860704700BF5C00002070B4374B1B
:108A00001B6853BB002924DD354E031D321D8242F5
:108A100088BFB34257D84B1E072B54D921F003050A
:108A200005440346324653F8044B42F8044BAB422C
:108A3000F9D121F0030399420BD0C25CF2545A1CC5
:108A4000914206DD0233845CB454994201DDC25C7C
:108A5000F254244B196070BC70470029F9DD224A9A
:108A6000031D141D844288BF934222D84B1E072B3E
:108A70001FD921F003050544034653F8044B42F87F
:108A8000044BAB42F9D121F003039942E1D0144ADF
:108A9000C55C1A445C1C8C421574DADA0233045D3E
:108AA00054749942D5DDC35C93740E4B196070BC4D
:108AB000704701380D4B441810F8012F03F8012FAF
:108AC000A042F9D1C5E70138054B441810F8012F31
:108AD00003F8012BA042F9D1BBE700BF94020020AC
:108AE0007C100020800200208C1000208B100020C1
:108AF0002DE9F04F85B0FFF741FC002840F0DC8005
:108B0000FFF71EFEB24AB34913680968C41A8C42C3
:108B100002D28342C0F09E80AF4CB04923680391DB
:108B2000096810605A1C8A420294226040F39580C2
:108B300000232360FFF712FE039B00901C68002CAB
:108B400060DDA74BDFF8B4B2DFF8A0A21B68019389
:108B500000265B4652463146A14606E002F1040C6F
:108B6000C14562460346414647DD009C1D68019FA2
:108B7000651B181DBD42044601F10108EED9C1452F
:108B800040F3EC8042EA000502F1040C45EA0C05D2
:108B90001D436D0740F0D280A9F102056D1A062D24
:108BA00040F2CC8009F1FF39A9EB01014FEA510EE7
:108BB000141F03EBCE0E1D1F083AF4E90267E2E929
:108BC0000267F5E90267E3E802677345F5D121F032
:108BD0000103994203EB080208D0511E5AF82230D3
:108BE0005BF822204AF821304BF82120C1454FF094
:108BF0000106624603464146B7DC4C4616B1039B6C
:108C0000C3F80090774E784D3368EC7100218B42A9
:108C10004FF01002C8BF9B186A70C8BF6B706D4BD5
:108C200029701B68EB72190E1A14297200211B128D
:108C30006A72C5F802100122AB72AA71FFF72CFD0F
:108C4000002834D169786848FFF744FB029B1B6811
:108C500003B9336005B0BDE8F08F002A3FF46AAF76
:108C6000614D604EE97103F10B022A705F4A306872
:108C700052F8231010240028C8BF00196C704FF060
:108C800000024FEA116464F307024FEA114464F3EF
:108C90000F22C8BF68700C0A554864F3174261F38D
:108CA0001F62C15CC5F8022001232972AB71FFF776
:108CB000F3FC0028FBD1C5E74E4C2046FFF76AFBCA
:108CC0004D4B05280546D3F800347FF719AF002B2C
:108CD0003FF416AF404B02931A46D4F802301668A0
:108CE0001BBA002E3FD1002B3FF40AAF3B4A039240
:108CF00014683F2C3FF704AF002CDFF8F0A011DD23
:108D0000DAF8002093423FF4FBAEAAF1040000EB36
:108D10008400524604E052F8041F8B423FF4F0AE48
:108D20008242F8D14AF82430FFF718FD0399334AFC
:108D30000B6842F8240001330B60E1E6304901EB97
:108D4000890500E00434516842F8041B5968196031
:108D5000AA422346F6D109F1FF3947E709F1FF3965
:108D600002F1040C42E7013E204A52F826209A42C2
:108D70007FF4C6AEFFF7F2FC2049224A224B41F8AD
:108D80002600224E156025F0030001221A602044BF
:108D90003246234653F8041B42F8041B8342F9D1A0
:108DA00025F003039D420BD0E25CF2545A1CAA4208
:108DB00006DA0233A15CB1549D42C4BFE25CF254B6
:108DC000029B227819680A4B0B4403F8012C97E6A2
:108DD0008C02002054000020840200207802002031
:108DE00050000020800200207C1000207C0E00201B
:108DF0007C1100207C0C0020001000407C0F002023
:108E0000780E00207C020020980200207C0D0020BB
:108E10002DE9F04383B0FFF7A1FC0546FFF7AEFA5A
:108E200010B903B0BDE8F083534C2046FFF7B2FA07
:108E3000524BD3F800340646002BF2D00528F0DD63
:108E4000D4F802304E4A94F8089012681BBA002BEE
:108E500051D1DFF854814B48D8F800100068691AE6
:108E6000814240F287804849484F0D60D7F8080595
:108E70004749C7F80031A1FB00135B09642101FBDE
:108E80001303612B434F14D94FF0100C130E22FA29
:108E90000CF1BB70130AF9703B713846012361462F
:108EA0007A7101923B70BB7187F801C0FFF712FA2B
:108EB000019A2AB33849394A0E60012126F003008D
:108EC00011602D4B334A204453F8041B42F8041B15
:108ED0008342F9D126F003039E42A2D0E25CFA5409
:108EE0005A1CB2429DDA0233A15CB9549E4298DD0D
:108EF000E25CFA5495E79A4293D1DFF8AC80254FB3
:108F00002549264A0E60012126F0030011601A4B04
:108F1000204A204453F8041B42F8041B8342F9D131
:108F200026F003039E420BD0E25CFA545A1C964290
:108F300006DD0233A15CB9549E42C4BFE25CFA5420
:108F4000174C114A2368C8F80050002B15607FF7B2
:108F500068AF144D2B784B453FF463AFFFF79CFB94
:108F600000287FF45EAF2168284603B0BDE8F043D7
:108F7000FFF7B0B9074F9CE77C0C002000100040C1
:108F80005C000020580000209002002000D000402B
:108F90001F85EB517C0D00207C02002098020020F0
:108FA000800200207C10002088020020034B1B68F8
:108FB0000BB1FFF79DBDFFF72BBF00BF9402002050
:108FC000224B70B5224CC3F81C45252A4FF08E0465
:108FD000C3F8244531D0262A33D0272A33D00B2A90
:108FE000B4BF0424062404EB4204184B194DC3F803
:108FF000084542F0400240F25B640028C3F8542563
:10900000C3F83845C3F83C5519DD4B1E124D134AC1
:109010001844C1F10101CC18165D05F8016B13F875
:10902000016F16558342F6D1084BC3F80425FEF7AD
:10903000C3FF0B4B02221A6070BD0224D5E7074A1A
:10904000F2E71A24D1E75024CFE700BF0010004018
:1090500000D6BE89555555005812002090130020A7
:10906000B4020020014B1860704700BF6C00002064
:10907000F0B444185E1C9DF810504654002B6570E7
:1090800001F102072BDD8D1D0544C419161DB442E4
:1090900038BFAA4226D35D1E072D23D923F003062D
:1090A0001644114651F8045B44F8045BB142F9D10F
:1090B00023F003018B4207EB01040FD0555C0555EB
:1090C0004D1CAB4204F1010608DD0231555D8555AA
:1090D0008B4204F1020401DD525C02551F44384604
:1090E000F0BC7047013A01310144D41812F8010F65
:1090F00001F8010FA242F9D1F0E700BF70B40024DB
:109100006FF307049DF81050417063F303049DF85A
:109110000C3065F3861463F3C7140023994204707E
:10912000837024DDC41CC31D151DAC4238BF9A4298
:1091300020D34B1E072B1DD921F0030616441346DE
:1091400053F8045B44F8045BB342F9D121F0030304
:1091500099420CD01844D45CC4705C1CA14206DD5A
:109160000233145D0471994201DDD35C4371C81C64
:1091700070BC7047013A831C541812F8010F03F8B1
:10918000010FA242F9D1C81C70BC7047F8B5254C3C
:10919000254E0225C4F8805001F036FCFFF71CF97B
:1091A000FFF720F92148FFF711F9002001F0D6FF61
:1091B0001F4B204A204801210327C3F8FC1FC3F896
:1091C0001075C3F81425C3F818651C4AC3F81C258C
:1091D0008E26C3F82465002240F20316C3F82C251E
:1091E000C3F83015C3F834659626C3F8446540F2D9
:1091F0005B66C3F83865124EC3F83C650426C3F8B5
:109200000C654FF6FF76C3F81021C3F80C21C3F8A4
:1092100008630A26C3F8046384F80123256001600B
:10922000F8BD00BF00E100E0FA00030269A90000F8
:1092300000100040080110009C02002000D6BE89EA
:10924000555555002DE9F8438E4C8F4B94F8271057
:1092500094F8292094F82A500A4483FB02131344FB
:109260005B1103EBC30103EB8103D31ADEB2252D9F
:1092700084F8296009D004EBD60106F0070091F8C4
:10928000221001228240114263D08048828B92B228
:10929000002A40F0828022697D497E4F100201251C
:1092A000120E0D61C1F81C05C1F824250B2BB4BFAB
:1092B0000422062202EB4302754DA38DC5F8082552
:1092C00046F04006C5F854656269DFF8008240F256
:1092D0005B61C5F838150133C5F83C25A385FFF758
:1092E0002FFA94F83C606C4B032E1860C5F8048587
:1092F0006CD0022E78D0012E00F09A82FEF71AFE72
:10930000664A634B01251560D3F8002242F0020241
:10931000C3F80022D3F8002242F00402C3F800226E
:109320003B68022B00F08B80FFF718FA238C226B2E
:10933000B3F57A7F3CBF03EB83035B00A0EB020035
:1093400034BF03F2DC5342F6EC4398422BD8BDE81D
:10935000F883534B4D481A78B6FBF2F302FB1366C1
:10936000838B504AF6B29BB2965D002B6ED1494F6B
:109370002269474910020123120E252E0B61C1F804
:109380001C053346C1F8242500F06A82262E00F021
:109390006982272E8AD150228EE7A18DC28D9142FB
:1093A0007FF479AF56E0404B01221A60FFF754FA80
:1093B000FFF7ECFE94F83B30002BC8D13B4A136812
:1093C000B3FA83F35B091360BDE8F88300252946EF
:1093D000374884F83C5002F0D1F9284601F0BEFE2F
:1093E00094F83C60022E86D1294BDFF8E4902548A2
:1093F0000025C4F8DC500126C4F8E050C4F8E4505D
:10940000C4F8E850C3F8049584F83C6084F8EC6034
:1094100001F0FCFD274B2849284AC3F80C9530463B
:10942000C3F81085C3F81415C3F80425C3F8005217
:1094300001F094FE31461E4802F0A0F95EE72A468C
:109440001F4920483D60FFF78FF96DE7C28DA38D5E
:109450009A428CD1838B4FF6FF729A423AD0838B1B
:109460000C4F028CC58B22849BB20121A383002365
:109470000A463960838312491348E583FFF774F97C
:1094800076E700BFB8150020A7C867DD481C00209C
:1094900000100040A0020020C0020020B402002002
:1094A00064000020681300209C020020B00200200D
:1094B000BC11002000F00040A014002001000001B9
:1094C00045920000FFFF2F00FFFF1F00D81600206D
:1094D000EC180020D0F82230C4F8223094F8227022
:1094E000DFF804E390F826C084F826C017F00101E5
:1094F00018BFBC4A4FF000031CBF01211370BA070C
:109500008EF800300B4606D50121B64A03EB010860
:10951000D1545FFA88F37A0707D5B24A022103F1E2
:109520000108D15401215FFA88F33A0707D5AD4A03
:10953000032103F10108D15401215FFA88F3FA06EF
:1095400007D5A84A042103F10108D15401215FFA8B
:1095500088F3BA0607D5A34A052103F10108D154BF
:1095600001215FFA88F37A0607D59E4A062103F1A6
:109570000108D15401215FFA88F3FA0905D0994A0C
:1095800007215F1CD1540121FBB294F82370FA0724
:1095900007D5944A082103F10108D15401215FFA4B
:1095A00088F3BA0707D58F4A092103F10108D1547E
:1095B00001215FFA88F37A0707D58A4A0A2103F165
:1095C0000108D15401215FFA88F33A0707D5854A8B
:1095D0000B2103F10108D15401215FFA88F3FA0647
:1095E00007D5804A0C2103F10108D15401215FFA0B
:1095F00088F3BA0607D57B4A0D2103F10108D1543F
:1096000001215FFA88F37A0607D5764A0E2103F125
:109610000108D15401215FFA88F3FA0905D0714A93
:109620000F215F1CD1540121FBB294F82470FA077A
:1096300007D56C4A102103F10108D15401215FFACA
:1096400088F3BA0707D5674A112103F10108D154FD
:1096500001215FFA88F37A0707D5624A122103F1E4
:109660000108D15401215FFA88F33A0707D55D4A12
:10967000132103F10108D15401215FFA88F3FA069E
:1096800007D5584A142103F10108D15401215FFA8A
:1096900088F3BA0607D5534A152103F10108D154BE
:1096A00001215FFA88F37A0607D54E4A162103F1A5
:1096B0000108D15401215FFA88F3FA0905D0494A1B
:1096C00017215F1CD1540121FBB294F82570FA07D1
:1096D00007D5444A182103F10108D15401215FFA4A
:1096E00088F3BA0707D53F4A192103F10108D1547D
:1096F00001215FFA88F37A0707D53A4A1A2103F164
:109700000108D15401215FFA88F33A0707D5354A99
:109710001B2103F10108D15401215FFA88F3FA06F5
:1097200007D5304A1C2103F10108D15401215FFA09
:1097300088F3BA0607D52B4A1D2103F10108D1543D
:1097400001215FFA88F37A0607D5264A1E2103F124
:109750000108D15401215FFA88F3FA0905D0214AA2
:109760001F215F1CD1540121FBB21CF0010F05D059
:109770001C4A20215F1CD1540121FBB21CF0020FB6
:1097800005D0184A21215F1CD1540121FBB21CF0E5
:10979000040F05D0134A22215F1CD1540121FBB2D2
:1097A0001CF0080F05D00F4A23215F1CD154012162
:1097B000FBB21CF0100F05D00A4A24215F1CD154C3
:1097C0000121FBB21CF0200F4ED11CF0400F54D0F1
:1097D000044A2627591CD754CBB25FEADC1109D0C2
:1097E00004E000BF68130020640000202727591CF4
:1097F000D754CBB28EF80030252D43D0272E0CD86D
:1098000004EBD60106F0070591F822100122AA40C8
:10981000114214BF0122002232B9B6FBF3F203FB5E
:109820001263DBB21C4AD65C1C4F002383839FE586
:109830001B4B1C4DC3F804551B4884F8EC6001F029
:10984000E5FB1A4B1A491B4AC3F80C553046C3F8BE
:109850001085C3F81415C3F8042501F07FFC4DE50D
:10986000022229E51A2227E50B4A2527591C1CF05C
:10987000400FD754CBB2ACD1AFE75FEADC1206D0D1
:10988000054AB3E7242E8CBF00220122C4E7002939
:10989000B0D10B46B0E700BF68130020A002002043
:1098A00000100040EC180020B815002000F0004027
:1098B000A01400200100000170B5AA4CAA4AAB49CF
:1098C00094F82200AA4D00231370C2F89430A2F835
:1098D000983017220B710A6010F0010118BFA54AD9
:1098E00084F83C301CBF01211370860784F82930AE
:1098F000A3632B700B4604D501219E4A5E18D154F8
:10990000F3B2420705D59B4A02215E1CD1540121C6
:10991000F3B2060705D5974A03215E1CD1540121F5
:10992000F3B2C20605D5934A04215E1CD15401212D
:10993000F3B2860605D58F4A05215E1CD15401215C
:10994000F3B2420605D58B4A06215E1CD154012193
:10995000F3B2C20905D0874A0721581CD15401210E
:10996000C3B294F82300C60705D5824A08215E1CBD
:10997000D1540121F3B2820705D57E4A09215E1C2C
:10998000D1540121F3B2460705D57A4A0A215E1C5B
:10999000D1540121F3B2020705D5764A0B215E1C92
:1099A000D1540121F3B2C60605D5724A0C215E1CC2
:1099B000D1540121F3B2820605D56E4A0D215E1CF9
:1099C000D1540121F3B2460605D56A4A0E215E1C28
:1099D000D1540121F3B2C20905D0664A0F21581CA7
:1099E000D1540121C3B294F82400C20705D5614ABD
:1099F00010215E1CD1540121F3B2860705D55D4AC2
:109A000011215E1CD1540121F3B2420705D5594AF8
:109A100012215E1CD1540121F3B2060705D5554A27
:109A200013215E1CD1540121F3B2C20605D5514A5F
:109A300014215E1CD1540121F3B2860605D54D4A8E
:109A400015215E1CD1540121F3B2420605D5494AC5
:109A500016215E1CD1540121F3B2C20905D0454A3A
:109A60001721581CD1540121C3B294F82500C60710
:109A700005D5404A18215E1CD1540121F3B282075A
:109A800005D53C4A19215E1CD1540121F3B2460789
:109A900005D5384A1A215E1CD1540121F3B20207C0
:109AA00005D5344A1B215E1CD1540121F3B2C606F0
:109AB00005D5304A1C215E1CD1540121F3B2820627
:109AC00005D52C4A1D215E1CD1540121F3B2460656
:109AD00005D5284A1E215E1CD1540121F3B2C209CA
