:1040000000000120F1CB000019CC00001BCC000007
:104010001DCC00001FCC000021CC000000000000DF
:1040200000000000000000000000000023CC0000A1
:1040300025CC00000000000027CC000029CC0000A7
:104040002BCC0000F98300002BCC0000D15F0000D6
:10405000896F00002BCC00002BCC0000715C0000AD
:104060002BCC00002BCC00008D8900002BCC000055
:104070002BCC00002BCC00002BCC00002BCC000064
:104080002BCC0000F54F00002BCC00002BCC000007
:104090002BCC00002BCC00002BCC00002BCC000044
:1040A0002BCC00002BCC0000C18800002BCC0000E2
:1040B000815A00002BCC000000000000000000002E
:1040C0002BCC00002BCC00002BCC00002BCC000014
:1040D0002BCC00002BCC00002BCC000000000000FB
:1040E00000000000000000000000000000000000D0
:1040F00000000000000000000000000000000000C0
:1041000000000000000000000000000000000000AF
:10411000000000000000000000000000000000009F
:10412000000000000000000000000000000000008F
:10413000000000000000000000000000000000007F
:10414000000000000000000000000000000000006F
:10415000000000000000000000000000000000005F
:10416000000000000000000000000000000000004F
:10417000000000000000000000000000000000003F
:10418000000000000000000000000000000000002F
:10419000000000000000000000000000000000001F
:1041A000000000000000000000000000000000000F
:1041B00000000000000000000000000000000000FF
:1041C00000000000000000000000000000000000EF
:1041D00000000000000000000000000000000000DF
:1041E00000000000000000000000000000000000CF
:1041F00000000000000000000000000000000000BF
:104200000348044B834202D0034B03B11847704765
:10421000EC000020EC0000200000000005480649EA
:104220000B1AD90F01EBA301491002D0034B03B1C4
:1042300018477047EC000020EC0000200000000050
:1042400010B5064C237843B9FFF7DAFF044B13B1DE
:104250000448AFF300800123237010BDEC00002060
:104260000000000024EC000008B5044B1BB1044919
:104270000448AFF30080BDE80840CFE7000000002D
:10428000F000002024EC0000A3F5803A704700BF46
:10429000154B002B08BF114B9D46FFF7F5FF002182
:1042A0008B460F461148124A121A08F0F1FE0C4BC9
:1042B000002B00D098470B4B002B00D098470020D4
:1042C000002104000D000B4808F08EFE08F0BCFE33
:1042D0002000290001F0EAF808F08CFE0000080038
:1042E000000000000000000000000120EC000020A1
:1042F0006C2000201DD000002DE9F04F2DED048B27
:10430000B9B0D14B059308AB0FF2243BDBE900AB0E
:10431000DFEDCE9A039338E186ED008ACC4BCD4E8B
:10432000D3ED007AD6ED008A78EEA78A18EE900ACF
:104330000AF0C2F8C0A3D3E9002304460D460AF0F0
:10434000A3FB002840F06781C6ED008AB0EE480A62
:1043500003F0B4F8C04BBF4CF0EE407A93ED000A86
:1043600017EE907A03F014F9F0EE407A94ED000A1B
:10437000CDED067A03F0A2F8F0EE407A94ED000A53
:1043800017EE904A03F004F9B44B8DED070A186854
:104390000AF092F8AAA3D3E900230AF0E5F80AF09C
:1043A000BBFB059A32F9021F05460846CDE9041207
:1043B0000AF070F8AA4A8046106889460AF07CF82C
:1043C0009FA3D3E900230AF0CFF80AF0A5FB0AF077
:1043D00073F80246384616460F460AF06DF8524604
:1043E0005B460AF0C1F842464B460AF0BDF80B4660
:1043F00002463946304609F001FF0AF08DFB984A23
:1044000008EE900A0698C2ED008A0AF055F8524666
:104410005B460AF0A9F842464B460AF0A5F8064664
:1044200028460F460AF048F802460B463046394601
:1044300009F0E4FE0AF070FB8A4F884B09EE100A7F
:10444000186038680AF038F87DA3D3E900230AF031
:104450008BF80AF061FB844B064618680AF02CF8CA
:1044600077A3D3E900230AF07FF80AF055FB0AF09E
:1044700023F8024620460D4614460AF01DF852461F
:104480005B460AF071F842464B460AF06DF8024668
:104490000B462046294609F0B1FE0AF03DFB724B5F
:1044A00008EE100A079883ED008A0AF005F85246D4
:1044B0005B460AF059F842464B460AF055F8044666
:1044C00030460D4609F0F8FF02460B4620462946C5
:1044D00009F094FE0AF020FB07EE900A68EEA88A25
:1044E00029EE099A28EE088A27EEA77A78EE898ABB
:1044F00038EE078A3860F4EEC88AF1EE10FA68DD0B
:104500005A4B049AD3ED007A594B67EEA97A1C787E
:10451000584B17EE900A43F8242009F0CDFF52467D
:1045200006460F465B46404649460AF01DF80B46D4
:1045300002463946304609F061FE0AF0EDFAA4F170
:104540000B034A4A4B4910604B4A1278002BB8BF04
:104550009B1851F82330049919440B4607EE901A22
:104560004649F8EEE77A41F82430039B0134E3EC46
:10457000017AE4B2944203933D4B26BF00221A70A5
:104580001C70039B10AA9A427CD03D4B324E93ED97
:10459000000A96ED008A38EE008A18EE100A09F03B
:1045A0008BFF25A3D3E9002304460D460AF06CFADD
:1045B00000283FF4B1AE20A3D3E9002320462946CA
:1045C00009F01AFE0AF0A8FA234B08EE100A186048
:1045D000A4E6264B049AD3ED007A254B67EEA97A20
:1045E0001C78244B17EE900A43F8242009F064FF4E
:1045F000524606460F465B464046494609F0B4FF20
:104600000B4602463946304609F0F8FD0AF084FAB6
:10461000A4F1090395E708A3D3E90023204629461E
:1046200009F0EAFD0AF078FA0A4B18608EE600BF3E
:104630007B14AE47E17A843F4AD8124DFB211940E2
:10464000AE47E17A14AEEF3F8A040020A4707D3FAC
:1046500020000020400700203C0700201007002019
:1046600014070020180700201C0700201803002052
:1046700008010020AC040020000000200C010020F4
:104680001C00002028AA08A818A9DFF820821646D6
:1046900001F0C6FB18AC45461CAFB4EC017AF6EC51
:1046A000017A27EE077A67EEA77A77EE277A17EE78
:1046B000900A09F001FF41EC100B09F093FC51EC5A
:1046C000100B0AF029FAA74245F8040BE5D16C4A11
:1046D00013780133137004F04BF86A4A1368C31A55
:1046E0000A2B40F2A18098ED027AD8ED037A10608F
:1046F00077EE277ADFF8B881634C644D17EE900AA5
:1047000009F0DAFE56A3D3E9002309F02DFF06468F
:10471000D8F800000F4609F0CFFE53A3D3E90023D9
:1047200009F022FF0AF0F8F909F0C6FE02460B462E
:104730003046394609F062FD0AF0EEF9544BDFEDE0
:10474000557AD3ED008A544B78EEE78AD4ED007A9F
:1047500093ED009AC3ED008A78EEA77A08EE100A6E
:1047600017EE900A88ED008A09F0A6FE40A3D3E96F
:10477000002309F0F9FE0AF0CFF99FED487A206096
:10478000C8EE877A2C6838EEC99AFDEEE77A17EE04
:10479000900A09F07FFE064619EE100A0F4609F04E
:1047A0008BFE35A3D3E9002309F0DEFE02460B465B
:1047B0003046394609F022FD064620460F4609F0EC
:1047C00069FE0B4602463946304609F017FD0AF0ED
:1047D0007BF940F2FE3398422CDD2B60FDEEC87A67
:1047E000012C17EE902A40F2FE33B8BF01249C4200
:1047F0004FEA4202A8BF1C46C82A1FDDA2F1C80129
:10480000FF29A8BFFF21264B1B785BB1254B1878E9
:10481000B0B95210FC23FF2A0093A8BFFF22234601
:1048200001F070F9204B1C60012039B0BDEC048B05
:10483000BDE8F08F01280EDC0223CEE70021E2E77D
:10484000FC230022009309112346104601F05AF977
:10485000154B1C60E8E72860C0E700BFAFF300809D
:104860009A9999999999B93FCDCCCCCCCCCCEC3FC5
:104870002B8716D9CEF7EF3F9A9999999999A93F25
:104880001503002028070020FC0600200800002057
:10489000180300200000FA452407002000007A4495
:1048A000180000202A0300206C0300202C030020A5
:1048B0001C03002070B57B4A7B4C13780133DBB2BC
:1048C000802B88BF0023137000254FF08052237087
:1048D0006570536E754A190E180C5BBAA38088B0C8
:1048E0005823E070A1701570E38001F07FFAB0F5F5
:1048F000FA6F80F2C6806E4B2A461D7022726D4B95
:104900006D491B780978E1720022A2726B4A117816
:104910006B4A083B48BF5B186520607232F8230081
:1049200001338B42A8BF002340BAA08132F8230094
:1049300001338B42A8BF002340BAE08132F8230044
:1049400001338B42A8BF002340BA208232F82300F3
:1049500001338B42A8BF002340BA608232F82300A3
:1049600001339942D8BF002340BAA08232F8230015
:1049700001339942D8BF002340BAE08232F8235075
:1049800001339942D8BF00234E4932F8230091EDFC
:10499000006AD1ED016A91ED027AD1ED037ABDEEA4
:1049A000C66AFDEEE66ABDEEC77AFDEEE77A41BA69
:1049B00016EE102A16EE903A17EE100A618317EEE3
:1049C000901A52BA5BBA40BA49BAA283E3830DF196
:1049D0000A0203AB208461840DF1060002A96DBABE
:1049E000258302F049FA0DF1120204A90DF10E001F
:1049F00002F078FA06AA0DF1160105A802F080FA75
:104A0000BDF80830BDF80620BDF80A00BDF80C104E
:104A10005BBAE384BDF80E3052BA5BBAA284A385B8
:104A2000BDF81020BDF8123049BA5BBA52BA40BA8C
:104A300023866185E285208502F070FA054602F042
:104A40007FFA064602F08EFA40BA0DF11E02A086E9
:104A500007A90DF11A0076BA6DBA6686E58602F0EE
:104A60009BFCBDF81A10BDF81C20BDF81E3049BAD9
:104A700052BA5BBA3E2021876287A387607008B074
:104A800070BD41F294139842094B02DDFF221A7067
:104A900034E7A0F5FA620A21B2FBF1F2D2B21A7041
:104AA0002CE700BF20070020700300202107002012
:104AB0002003002008010020150300200000002032
:104AC0000C0100202C03002070B5B94BB94C1A78AA
:104AD000227000254FF0805365705B6E82B0190E16
:104AE0001A0C5BBAA170E270A38001F07FF9B0F5F7
:104AF000FA6F80F20C81B04A2B461570AF4DB04A68
:104B0000D5ED007A92ED007AA371FDEEE77A17EE0B
:104B1000902AF3EE047AB4EEE77A42F30722F1EE3C
:104B200010FAE27100F30F810021D5ED016AD5ED95
:104B3000037A95ED027A2172FDEEE66AFDEEE77AE0
:104B400016EE902ABDEEC77A17EE901A17EE103ABD
:104B500042F30720607241F3072043F30725A27256
:104B6000237301AA0DF106036073A17368460DF16A
:104B70000201E57202F080F9BDF900109DF90320F1
:104B80009DF90500002361F3070362F30F238D4AAB
:104B90009DF9071092F800C09DF90120E27360F3BF
:104BA000174361F31F63BCF1080C236100F1C78058
:104BB000854B1978854A0CF101038B42A8BF00236D
:104BC00032F82C5052F82C0052F823606DBAA582AE
:104BD000351A15F1FF0F80F29280FF254FF0400C3F
:104BE00001338B42A8BF0023A57552F82360351A04
:104BF00015F1FF0F7DDAFF254CF0200C01338B42BD
:104C0000A8BF0023E57552F82360351A15F1FF0F90
:104C100069DAFF254CF0100C01339942D8BF00230C
:104C2000257652F82360351A15F1FF0F55DAFF2566
:104C30004CF0080C01339942D8BF0023657652F836
:104C40002360351A15F1FF0F41DAFF254CF0040CF3
:104C500001339942D8BF0023A57652F82360351A54
:104C600015F1FF0F29DAFF254CF0020C01338B42BE
:104C7000A8BF0023E57652F82320131A13F1FF0F83
:104C800021DBFF2B59DC002B74DBD8B2202384F806
:104C90001DC063702077474C0022214604F11E0C92
:104CA000134611F8010B0344DBB21A446145D2B23A
:104CB000F7D1A377E27702B070BDFF2D3BDC002D6A
:104CC0006ADBEDB2D2E7FF204CF0010CDEE7FF2DEE
:104CD0002FDC002D5DDBEDB2BAE7FF2D27DC002DC8
:104CE00054DBEDB2A6E7FF2D1FDC002D4BDBEDB250
:104CF00092E7FF2D17DC002D42DBEDB27EE7FF2DA2
:104D00000DDC002D39DBEDB24FF0000C68E741F20D
:104D100094139842284A42DDFF231370EEE6FF25E4
:104D20004FF0000C5CE7FF2568E7FF2574E7FF25DF
:104D300080E7FF258CE7FF2598E7FF20A6E7224BB9
:104D400019788C4436E737EE677AF2EE047A67EE2C
:104D5000277A17EE900A09F0AFFB41EC100B09F02F
:104D600041F951EC100B09F0AFFEFF28A8BFFF205E
:104D7000C1B2DAE6801AC0B2A6E7851BEDB22DE714
:104D8000851BEDB238E7851BEDB243E7851BEDB21D
:104D90004EE7851BEDB259E7851BEDB264E7A0F540
:104DA000FA630A21B3FBF1F3DBB21370A6E600BF8E
:104DB0001503002070030020200300202C03002096
:104DC0001C03002008010020000000200C0100202E
:104DD000F0B5A7B003F0CCFC7C497D4A0B681468A1
:104DE000C31AA34202D2002027B0F0BD794C7A4BFF
:104DF0002478086053F8243003F007034FF0805103
:104E0000023313604B6E8DF81C301A0E180C190A01
:104E10008DF81920D424D7228DF818408DF81A0067
:104E20008DF81B108DF81D2000F0E0FFB0F5FA6F33
:104E300080F2A780694F00233B70069A08920123F5
:104E4000BDF81C200093ADF82420062112AA0024EE
:104E500008A88DF8484004F0D9FC6149614E054628
:104E600012A808F083F9082203462946009208A8F0
:104E700012AA04F0CBFC3B788DF849305A4BD6EDA2
:104E8000007A93ED007A594BFDEEE77A1B788DF8A6
:104E90004830F3EE046A17EE903AB4EEE67A43F344
:104EA0000723F1EE10FA05468DF84A3076DCD6ED90
:104EB000016AD6ED027A96ED037A8DF84B40FDEE4D
:104EC000E66AFDEEE77A16EE902A42F307238DF8A4
:104ED0004C3017EE903AFDEEC77A8DF84D2017EE64
:104EE000902A8DF84F3043F307238DF84E3042F36C
:104EF00007238DF850308DF851200DF1160305AAC7
:104F00000DF1120104A801F0B7FFBDF910309DF9B1
:104F100011008DF85200002063F307009DF9133053
:104F200063F30F209DF9153063F317409DF9173097
:104F300063F31F60FF2312AA29460093CDF85300A4
:104F40000F2308A804F062FC01460020284D0391BD
:104F5000012404F055FC0023CDE900340399022319
:104F600008AA1CA804F09CFC2A681CA904F0F6FB03
:104F70002B682344272B00DD252320462B6027B0F8
:104F8000F0BD41F294139842144FD7BFA0F5FA63D5
:104F9000FF230A22B3FBF2F33B704EE737EE667A4B
:104FA000F2EE047A67EE277A17EE900A09F084FA97
:104FB00041EC100B09F016F851EC100B09F084FDD0
:104FC000FF28A8BFFF20C4B271E700BF2C07002054
:104FD00014000020080100200C0100202003002004
:104FE000DCEB00002C0300201C0300201503002034
:104FF00004000020054BD3F8402132B100210122EA
:10500000C3F840119A6040BF5A60704700100140D9
:10501000F0B583B002F052FE002003F0BBF903F0BC
:105020003FFC0F4B0F4F104E00220220C3F8FC2F05
:1050300003F0CAFC04F07CFC0324962500231846E8
:10504000FF221946009500F05DFDC7F800664FF499
:10505000967003F0B9FC013CF0D103B0F0BD00BF85
:1050600000100040000001403546526EF0B585B09A
:1050700002F024FE002003F08DF903F011FC144B24
:10508000144F154E0022C3F8FC2F03F089F903F0EA
:105090008DF9032496250023FF221046194600951A
:1050A00000F030FDC7F800664FF4967003F08CFCFA
:1050B000013CF0D12023CDE9014300942346224650
:1050C0004FF47A71532002F021FE05B0F0BD00BF0D
:1050D00000100040000001403546526EF0B583B02C
:1050E00002F0ECFD002003F055F903F0D9FB134B5F
:1050F000134F144E0022C3F8FC2F03F051F903F0B4
:1051000055F903249625002318461A46FF210095D9
:1051100000F0F8FCC7F800664FF4967003F054FCFA
:10512000013CF0D123464FF4FA624FF47A71152016
:1051300003B0BDE8F04003F07DBC00BF00100040AC
:10514000000001403546526E2DE9F0414E4D2C785D
:10515000022C84B03AD024B1012C67D004B0BDE851
:10516000F08101232B7002F0A9FD204603F012F913
:1051700003F096FB454BDFF82881C3F8FC4F022073
:1051800003F022FC04F0D4FB414F032496260023B5
:105190001846FF221946009600F0B4FCC8F80076C5
:1051A0004FF4967003F010FC013CF0D1394B287895
:1051B0001A78394960F3020201201A70087003F06E
:1051C000D7FA364B186004B0BDE8F08100242C708B
:1051D00002F074FD204603F0DDF803F061FB2B4B79
:1051E000DFF8BC80C3F8FC4F03F0DAF803F0DEF818
:1051F000274F032496260023FF22104619460096C7
:1052000000F080FCC8F800764FF4967003F0DCFBE9
:10521000013CF0D12021CDE90141234622460094F2
:105220004FF47A71532002F071FDBFE702232B7017
:1052300002F044FD002003F0ADF803F031FB134B06
:10524000DFF85C80124F0022C3F8FC2F03F0A8F8AF
:1052500003F0ACF803249626002318461A46FF21D3
:10526000009600F04FFCC8F800764FF4967003F0FB
:10527000ABFB013CF0D123464FF4FA624FF47A7154
:10528000152003F0D7FB91E7300700200010004005
:105290003546526E740400208404002088040020E7
:1052A000000001402DE9F04184B003F061FA6F4B3A
:1052B0004FF0A0451B78D5F81025012101FA03F322
:1052C000134004460ED06A4B1A78002A68D1694A06
:1052D00019701060DFF8A88198F8003003BB04B0A3
:1052E000BDE8F081624A10780028F3D01370614A5B
:1052F0001268A21A192AEDD9B2F57A7F80F0A3803C
:105300005D490A68A21AB2F5C87F5C4A02D21378D6
:105310000133DBB25A48137001230C600370DEE7DF
:10532000554B1B68E31AB3F5FA7FD8D9554B1B7858
:10533000002B66D1514B1B78092B6DD90DF10F0253
:105340000DF10E010DF10D0000F076FF4E4B9DF8B2
:105350000D009DF80E104D4A587099709DF80F0081
:10536000D8700121117003F003FA494B494F4A4E9E
:105370001860142496250023FF2108461A4600953C
:1053800000F0C0FBC7F800664FF4967003F01CFBFA
:10539000013CF0D1002388F8003004B0BDE8F08172
:1053A000344D2B68C21A40F2CD311A3A8A4209D8DC
:1053B00000211E230093FF224FF0FF33084600F028
:1053C000A1FB2B686FF47A72A218D21A40F69E7174
:1053D0008A4227D9E31A41F2883293427FF67AAFA4
:1053E0001E23FF22DFF89880009300214FF0FF3347
:1053F000104600F087FB98F80030002B3FF46FAFA9
:105400008EE7264A126841F28733A41A9C4291D84B
:105410001A4B1B78022B21D8FFF796FE002388F841
:105420000030BAE700221E23009311464FF0FF33ED
:10543000FF2000F067FB2B6841F28832E31A9342A9
:105440007FF648AFCCE741F287339A423FF642AF4E
:10545000134B1B789940C5F80C153BE7114B012203
:105460001A7003F085F9104B186093E719000020BB
:1054700028030020240300203407002029030020F3
:1054800038070020F806002074040020840400205F
:1054900088040020000001403546526EF4060020CA
:1054A0001A00002008070020040700202DE9F04F13
:1054B000A84AA94C1178A94D01234FF0A0404FF004
:1054C000804203FA01F14FF01026C0F818154FF48E
:1054D0000047C0F808150021C2F87835C4F80475F3
:1054E0002360C6F80C122C7804F5E07491B040F8F3
:1054F0002410C2F800111360D2F80031002BFBD049
:10550000954C974D03F0C8F81A230822C4F80056AA
:105510000721062000F0C0FA11221023C4F800561B
:105520000D210E2000920F2201F076FCFA2601F0E8
:10553000CBFD00231A4619460096FF2000F0E2FA40
:105540004FF49670C4F8005603F03EFA00231A4652
:105550001846FF21009600F0D5FA4FF49670C4F873
:10556000005603F031FA00231846FF221946009630
:1055700000F0C8FA08AE4FF49670C4F8005603F075
:1055800023FA3046C4F8005602F0B0FA96E80F004D
:10559000744C84E80F00237803F00703012B02D03A
:1055A000002B40F03C82DFF8E4B18BF800306D4B0B
:1055B0005878FF2803D0DA78997800F0CDFE694A50
:1055C00090884FF6FF7398420FD0B2F90E300193D6
:1055D000B2F90C3000931146B2F90A30B1F9061055
:1055E000B2F9082000B201F047FF9BF80030022B0F
:1055F00000F00982002B00F00D82012B00F01682D2
:1056000000F0F6FA584B544D554E002201241C6010
:10561000C3F80022C3F804454FF08053586E03F0DE
:1056200025FA3220C5F8006603F0CEF900F0DEFB63
:1056300007EE900A9FED4D7A4D4BF8EE677AF4EE47
:10564000C77AC3ED007AF1EE10FA4A4B079312D5F0
:105650001C704FF4967703240023FF201A46194646
:10566000009700F04FFAC5F800664FF4FA7003F0A7
:10567000ABF9013CF0D100260A23CDE905639BF884
:1056800000703D4DDFF8D080DFF804A1DFF8049111
:10569000CDF80CB0324BC8F80036022F01D103F020
:1056A000EDFB03F065F88346002E3AD144F6206303
:1056B000984200F22F81314B1B7843B1304B1B686D
:1056C00042F21072ABEB0303934200F21B812D4BAD
:1056D0001B78002B40F0B180FFF7E4FD00F058FB91
:1056E000002840F0A5805146484600F057FB0028AE
:1056F00052D1039B1F78022F15D0002F40F0F3806A
:105700002B7833B1059B069AABEB0303934200F26F
:105710005C81134BC8F8003603F02AF88346002E4C
:10572000C4D00126C7E72B78002BB3D0FFF7C2F80F
:10573000154B5978184603F09FF9039B1F780023F7
:105740002B70002F40F0CD80054BC8F80036CDF807
:1057500014B0A6E71A000020000001401900002044
:105760003546526E7404002000D00040008054453D
:10577000100000202A030020440700208404002099
:105780008804002008070020700300203007002054
:10579000B40600208C040020FEF7AEFD0028A8D03F
:1057A000A44A1378013313702B781D2B9CBF01334F
:1057B0002B7000F01BFB07EE900A9F4BF8EE677A08
:1057C000C3ED007A9D4B1B68049307EE103AB8EEC8
:1057D000C77AF4EEC77AF1EE10FA25D5079B1C784C
:1057E00014BB974A13680133642B136081DD02F008
:1057F0009BFF4FF080420123C2F818459360D2F816
:105800000431002BFBD08F4B012454600022C3F8DD
:105810000025022003F0D8F88B4B1B789C404FF0FA
:10582000A043C3F80C4564E7854A0023136060E792
:1058300001F0C2FA01F0B2FC55E7844B00241C7061
:1058400001F0BEFD824B1B685B45C0F0B080814B10
:105850001B6844F62062ABEB030393427FF63CAF38
:105860007A4B7D4A01241C700023137001F0D2FD95
:105870000DF13E0301930EAB00930DF136020FAB19
:105880000DF13A010DA801F0CBFD744B744A1C7068
:10589000BDF834309380BDF83A30D380BDF836304F
:1058A0001381BDF83C305381BDF838309381BDF889
:1058B0003E30D38102F05CFF6A4B0A2418609627C1
:1058C0000023FF2218461146009700F01BF9664B93
:1058D000C8F800364FF4967003F076F8013CEFD12B
:1058E000FAE6CDF814B0012F7FF4D4AE2B78002B5C
:1058F0003FF40FAFFFF76CFA08B100232B70039B46
:105900001F78C7E6564B0FCB02F01EF9534A00230F
:105910001370DCE600F08CFD00283FF402AF504C21
:105920000DF13E020FA90DF13A0000F085FC9DF843
:105930003A0063789DF83C109DF83E201B1A03FB4B
:1059400003F3012B0ADCA3785B1A03FB03F32BB9E7
:10595000E3789B1A03FB03F3012B50DD404C434ECD
:1059600060700123A170E270337000F0F5FC94E8E0
:105970000F0002F0E9F83378002B3FF4D2AE032495
:1059800096260023FF2108461A46009600F0BAF832
:10599000354BC8F800364FF4967003F015F8013C0B
:1059A000EFD102F0E5FE324B0126186083E6FF22BC
:1059B000FA23009310464FF0FF33214600F0A2F87F
:1059C000234A0BF5FA73136041E7FFF77DF8294B83
:1059D0005978184602F094FB274B2F70D3F800211A
:1059E0005C4642B1D3F80825C3F800711B6802F089
:1059F000070306330693039B05941F784AE61B4A68
:105A000001231370BBE7FFF769FB9BF80030002B05
:105A10007FF4F3ADFFF72AFB9BF80030EDE5DFF8EC
:105A20005CB0022B08BF8BF80030C0E5FFF7F0FA3E
:105A3000E6E500BF14030020100000200C00002049
:105A400000070020003000401A000020180000204D
:105A50000C07002004070020080700208404002011
:105A600074040020880400203546526EF806002099
:105A7000F40600207003002000D000403007002012
:105A8000044BD3F8042122B10022C3F80025C3F847
:105A90000421704700C0014030B4002460F30704C3
:105AA00061F30F24154D62F3174463F31F642C60F8
:105AB0004FF0010C124CC0B2C9B2D2B2DBB20CFA38
:105AC00000F00CFA01F10CFA02F20CFA03F3C4E94B
:105AD0000001C4E902234FF0A04C40EA0105154340
:105AE0002561CCF81805CCF81815CCF81825CCF899
:105AF0001835CCF8085530BC704700BF5C07002053
:105B000048070020002870B467DB00FB00F080111C
:105B100040F2FF35324CA842A8BF28462060002939
:105B200008DB01FB01F1891140F2FF308142A8BF7F
:105B300001466160002A08DB02FB02F2921140F28A
:105B4000FF318A42A8BF0A46A260002BA8BFE360CB
:105B5000244BD3F8002512B10022C3F800252249B6
:105B6000204B0A78C3F860250398204A0501206875
:105B700010804878C3F86405606850808878C3F85E
:105B80006805C878A168C3F86C059180E168D18088
:105B9000002440F2FF310120C3F800054FF4806675
:105BA000C3F80445118151819181D1810221C3F84B
:105BB0000865C3F80C45C3F81015C3F81445C3F8BD
:105BC00020250822C3F82425C3F82855C3F800135C
:105BD0009860C3F8000270BC7047014C9FE700BF9B
:105BE0002400002000C001405C0700206007002066
:105BF00030B4194B194D1A48002101240522C3F86D
:105C00000045C3F81025C3F814152A681040154A3A
:105C100002432A6003200725C3F81825C3F8F005BE
:105C2000C3F8F4551048C3F8F8150A25C3F8005313
:105C30000E4AC3F82C060820C3F8300680201060F6
:105C4000C3F800111C60D3F80021002AFBD0012208
:105C50005A6030BC704700BF0070004094070020BD
:105C6000CCE8E8FE100001017007002000E100E030
:105C70003F4BD3F80C211AB1D3F80421002A5CD091
:105C80003B4BD3F8042172B3F0B400223948C3F877
:105C90000421C3F80C21017801F0FF0721B3364C31
:105CA00036490270208A088035490520C3F810055E
:105CB0008D78012060F302058D700968C3F818150E
:105CC0000721C3F8F4150821C3F82C46C3F8301691
:105CD000C3F800211860D3F80021002AFBD001226C
:105CE0005A60F0BC70477047264D274C224A27491E
:105CF00001262E702568354425601568D4F800C04B
:105D00000D6055684D6095688D60BCF57A7FD568EB
:105D1000CD6017DC0821C3F82C26C3F83016144ACE
:105D200000210123C2F800111360D2F80031002BCA
:105D3000FBD001235360F0BC70470121C3F80C2154
:105D400059609DE7062127600670C3F810150C49BD
:105D50008878042464F3020088700968C3F8181571
:105D60001032C3F8F475C3F82C26C3F83066D6E7B2
:105D70000070004099070020700700209007002065
:105D80009407002098070020340000209C07002082
:105D9000014B1878704700BF9807002011490A7816
:105DA00002F0FF037AB1104B9A1C90420DD01A6892
:105DB00002605A6842609A688260DB68C3600023B0
:105DC0000B7008207047184670471A885A809A80CE
:105DD000DA801A815A819A81DA811A8200230B7043
:105DE00008207047980700209C0700200A4A138863
:105DF0009BB273B113889FED097A9BB207EE903A7C
:105E0000F8EEE77A67EE877AFDEEE77A17EE900A0A
:105E100070474FF4616070479007002005C0283F2D
:105E200090ED075AD0ED055AD0ED034A90ED014AA6
:105E3000D0ED062A90ED041AD0ED023AD0ED007AAA
:105E40009FED432A9FED433ADFED430A34EEC56AE6
:105E500074EE656A74EE854A34EE254A73EEE21AF2
:105E600026EE027A37EE815A73EEA23A77EEC17AC5
:105E700034EE641A75EE235A77EE262A35EE635A0D
:105E800076EEC76A2DED028B61EE023A21EE828A30
:105E900026EE037A62EE832A26EE206A26EE833A05
:105EA00066EEA06A75EE230A75EE633A38EE275A5D
:105EB00077EEC87A35EE848A75EEC45A38EE244AF5
:105EC00076EEA76A81ED004A35EE624A35EE225A37
:105ED00077EE837A35EE475A82ED002A76EE876AAE
:105EE00081ED015A77EEC77A75EEE45A34EE074A2F
:105EF00071EEC74A37EE215A36EE616A37EE617AA3
:105F000074EEE24A36EE436A75EE222A37EE037AE1
:105F1000B1EE410AC2ED012ABDEC028BC1ED020ACD
:105F200082ED021AC1ED036A82ED037AC1ED045AD3
:105F300082ED042A81ED054AC2ED054AC1ED063A1B
:105F400082ED060AC1ED077A82ED076A704700BF4D
:105F500000000000F304353FF30435BF184B70B464
:105F6000C3F808050024C3F80C154FF00046154986
:105F7000C3F81025C3F824651022C3F84045C3F8C0
:105F800034151149C3F83825C3F85045C3F84415F2
:105F90004FF0FF31C3F848250C4DC3F800420722EB
:105FA000C3F808134021C3F80413C3F85445C3F8D9
:105FB0000025082385F803432B6070BC704700BFA1
:105FC00000300040C8070020EC07002000E100E09E
:105FD00010B50C4BD3F818313BB10B4B1A7822B1EA
:105FE0000A4A0021126819709047094B0549094A6D
:105FF0001C684FF0A0400023C0F80845C1F81831D4
:10600000137010BD00300040C4070020E8070020D6
:10601000C0070020BC070020F0B5104C237803F027
:10602000FF05002BFAD10E4B0E4E0F4FDFF83CE070
:1060300032604FF0A04CC3F834E50126C3F8447534
:10604000CCF80C25022238707970C3F84825C3F8C3
:106050005055C3F8386526701E61F0BDBC0700209E
:1060600000300040C0070020EC070020C8070020D7
:1060700030B5114A137803F0FF0C002BFAD10F4B07
:106080000F4C19604FF0A04E0E4B0F4DC3F8345516
:10609000C3F84445CEF80C1520700121022084F885
:1060A00001C0C3F84815C3F8380511701961137899
:1060B000002BFCD1687830BDBC070020C007002051
:1060C000EC07002000300040C80700202DE9F04117
:1060D000069E124D2C7804F0FF0C002CFAD14C1CBB
:1060E0000F49104FC1F834354FF0A0480E4BC1F89E
:1060F00044353E600D4FC8F80C65DFF834E0187089
:1061000083F801C00123C1F84835C1F838452B7028
:106110000B613B70CEF80020BDE8F081BC07002089
:1061200000300040C0070020EC070020C40700201A
:10613000E807002000B53C4A3C4B1179D07892F832
:1061400006E0D3ED027A93ED016A92F802C000EB0B
:10615000012000B25179D88607EE100A01EB0E211A
:10616000D07992F808E0B8EEC77A00EB0E2027EE5F
:10617000277A09B200B292F80AE083ED067A06EEB9
:10618000901A07EE100A1987517A588701EB0E21F1
:10619000F8EEE66AB8EEC77A09B266EEA76A27EEAD
:1061A000277A07EE901A92F80CE0D07A1986F8EE6A
:1061B000E77A517BC3ED076A67EE867A00EB0E2023
:1061C00092F80EE0C3ED037A00B207EE900A52781F
:1061D00083ED087A01EB0E2109B2F8EEE76A02EBD3
:1061E0000C2207EE901A12B2B8EEE77A07EE902A68
:1061F0000F4A58864FF0000C186C82F800C0F8EE79
:10620000E77A66EE866A27EE067A0A4A99860130B0
:106210000121C3ED157AC3ED046A186483ED057A94
:1062200011705DF804FB00BF940800201C080020DA
:1062300090080020BD08002010B5444BD3ED007A33
:10624000FDEEE77A17EE90CABCF1000FACBF17EE77
:1062500090EA0CF1030E4FEAAE0EBCF1FF0F73464D
:1062600006DDBEF1400348BFAEF13D039B10403355
:1062700013F13F0F07DA13F1400C48BF03F1430C51
:106280004FEAAC03403B6FF07E04A342B8BF234605
:106290007F2BA8BF7F237F332D4C0370D4ED007A72
:1062A000FDEEE77A17EE900A17EE90CA0028B8BF05
:1062B00000F1030C4FEAAC0CFF28634606DDBCF18D
:1062C000400348BFACF13D039B10403313F13F0F37
:1062D00006DA13F1400048BF03F143008310403B4E
:1062E0006FF07E008342B8BF03467F2BA8BF7F2399
:1062F00018487F330B70D0ED007AFDEEE77A17EE89
:10630000901A17EE900A0029B8BFC81C8010FF2908
:10631000034606DDB0F1400348BFA0F13D039B10EA
:10632000403313F13F0F06DA13F1400148BF03F188
:1063300043018B10403B6FF07E018B42B8BF0B4690
:106340007F2BA8BF7F237F33137010BDD808002098
:10635000E0080020E8080020B0F17F0C57D4BCF121
:106360003F0F43DC4FEA8C0306EE903AB1F17F0019
:10637000F8EEE66A43D43F2826DC830007EE103AA5
:10638000B2F17F03B8EEC77A27D43F2B17DC9B000E
:1063900007EE903A224B234993ED026A224A234B9F
:1063A000F8EEE77A66EE866A27EE067A67EE867A78
:1063B000C1ED006A82ED007AC3ED007A7047AF3A12
:1063C000130107EE903AE5E7AF390B0107EE103AFB
:1063D000B2F17F03B8EEC77AD7D513F13F0FD6DA03
:1063E000A2F14F031B0107EE903AD3E7AF38030148
:1063F00006EE903AB1F17F00F8EEE66ABBD510F1F7
:106400003F0FBADA4F390B0107EE103AB8E71CF12B
:106410003F0FA7DA4F38030106EE903AA6E700BF18
:106420001C080020D4080020DC080020E40800201C
:10643000014B1878704700BFC5080020000000001D
:106440002DE9F04F2DED088BDD4FBDB002F082F944
:106450003B680646C01A4CF25033984200F29083D3
:10646000B0F57A7FC0F0878307EE900AF8EEE77AFE
:1064700017EE900A08F020F8C9A3D3E9002308F02A
:1064800073F808F049FBCF4A137809EE900A002B05
:1064900000F07D83CC4CCD4D3E6002F069F944F6AE
:1064A0001F639842064600F2C28042F20F73984280
:1064B00040F27C83B5F93600C54FDFF844B307F0EE
:1064C000E9FFC44BC44A03930492B7A3D3E9002362
:1064D00008F04AF841EC1B0BB5F9380007F0DAFF79
:1064E000B1A3D3E9002308F03FF841EC1A0BB5F94A
:1064F0003A0007F0CFFFACA3D3E9002308F034F84B
:106500003A684FF47A7302FB033303F51C5AB14B1C
:10651000D3ED007A8946CDED007A511CDBED007A8F
:10652000AD4ACDED017AD2ED007A059180460AF1AF
:10653000100ACDED027A009807F0BEFF9CA3D3E9C4
:10654000002308F011F808F0E7FA07F0B5FF53EC64
:106550001B2B07F053FE08F0DFFA039B08EE100A2E
:106560001860019807F0A8FF91A3D3E9002307F072
:10657000FBFF08F0D1FA07F09FFF53EC1A2B07F04E
:106580003DFE08F0C9FACBF8000008EE900A029828
:1065900007F092FF86A3D3E9002307F0E5FF08F098
:1065A000BBFA07F089FF4B46424607F027FE08F08A
:1065B000B3FA049B564507EE900A186037D9874B0B
:1065C00093ED007A864B38EE478A93ED007A854B3F
:1065D00078EEC78A93ED007AB5EEC08A77EEC77A77
:1065E000F1EE10FAF5EEC08A48BFB1EE488AF1EE3E
:1065F00010FA48BFF1EE688AF5EEC07AF1EE10FAB3
:1066000038EE288A48BFF1EE677A38EE278AB2EE74
:106610000E7AB4EEC78AF1EE10FA03D5724A1378F7
:1066200001331370059B3B60062B00F369836F4BAE
:10663000D5ED077A93ED007A6D4A6E4B95ED096AB8
:10664000D2ED004A93ED005AD5ED066A9FED6A9AA5
:1066500077EEC77A95ED087ACDED297A67EEA95ADB
:1066600076EEE46A35EE866A37EE457A16EE100A63
:10667000CDED286A8DED2A7A07F01EFF4EA3D3E9EF
:10668000002307F071FF08F047FAEB680A932B69C3
:1066900068620B930AA86B690C9301F017F9DDEDA2
:1066A000281A9DED292ADDED2A2A9DED0C1ADDED33
:1066B0000B0A9DED0A0A01F00BFADDED287ADDEDFB
:1066C000296A9DED2A7A95ED0A6A66EEA66A67EE5A
:1066D000A77A27EE077A77EEA67A20EE290A77EED8
:1066E000877A36EE006A17EE900A85ED0A6A07F09F
:1066F000E3FE41EC100B07F075FC59EC108B19EE22
:10670000900A07F0D9FE42464B4607F02DFF3B4B5F
:10671000002207F029FF08F0FFF900EE100A0AEE48
:10672000100A00F0CBFEF0EE409AB0EE4A0A00F0FC
:106730002FFF28A8B0EE40AA8DED2B9A01F07EF82D
:106740009DED282ADDED292A9DED2A3A94ED000AD7
:10675000D4ED010A94ED021AD4ED031A8DED2BAAA3
:1067600022EE292A62EEA92A23EE293AF0EE4A3ACD
:106770008DED282ACDED292A8DED2A3A01F0ECF88D
:106780002CAF38468DED2C0ACDED2D0A8DED2E1A4D
:10679000CDED2F1A01F052F897E80F0038E000BF56
:1067A0008DEDB5A0F7C6B03E7B14AE47E17A743FDD
:1067B000D7A3703D0AD7EF3F1EA7E8482EFFEF3F53
:1067C000B8080020BC0800200C0800201C0800208D
:1067D000C0080020C8080020D0080020D8080020E9
:1067E000E0080020E8080020C4080020DC080020A1
:1067F000D4080020E4080020000000000000E03F72
:10680000CC08002017B7D1380AD7233C00401C46DB
:1068100084E80F00FFEE008A94ED000AD4ED010A2F
:1068200094ED021AD4ED031A8DED109A8DED119AA4
:10683000CDED128A01F086F89DED123A9DED102AF9
:10684000DDED112A5FED119A01F0C2F88DED100A0D
:10685000CDED110A8DED121A01F08AFF5FED167A67
:10686000DDED0A1A9DED0B2ADDED0C2A9DED100AD7
:10687000DDED110A9DED121A41F28733984298BF5F
:10688000F0EE679A01F00EF920EE690A60EEE90A6F
:1068900021EE691AB7EE008A34A88DED378A8DEDA6
:1068A000340ACDED350A8DED361A00F0C7FFDDED67
:1068B000373A9DED363A94ED000AD4ED010A94ED95
:1068C000021AD4ED031A9DED342ADDED352A01F0CC
:1068D00043F809A90DF126020DF1220084ED000A0A
:1068E000C4ED010A84ED021AC4ED031A00F054FD50
:1068F000BDF9223006EE903ABDF9243007EE103A89
:10690000BDF9263007EE903AF8EEE66AB8EEC77A9F
:10691000F8EEE77A16A8CDED166A8DED177ACDED73
:10692000187A00F0D3FF9DED0C1ADDED161A9DEDDF
:10693000172ADDED182ADDED0B0A9DED0A0AB1EEEE
:10694000411A8DED0C1A01F0C3F8DDED0A6A9DEDD8
:106950000B7ADDED0C7A60EE265A20EE076ADDED4B
:10696000166A9DED177A20EE270ADDED187A76EE8D
:10697000E56A37EE467A37EEC00A19A8CDED196AF6
:106980008DED1A7A8DED1B0A00F0A0FFF0EE491A8A
:10699000B0EE482AF0EE492ADDED0B0A9DED0C1A07
:1069A0009DED0A0A8DED1C9A8DED1D8A8DED1E9AC6
:1069B00001F08EF8DDED0C6A9DED0A7ADDED0B7AC3
:1069C00020EE077A60EE277A20EE260A39EE477A23
:1069D00078EE677A39EE409A1FA88DED1F7ACDEDDB
:1069E000207A8DED219A00F071FFDDED200A9DEDFA
:1069F000211ADDED191A9DED1A2ADDED1B2A9DEDF8
:106A00001F0A01F04FF8DDED0A1A9DED0B2ADDEDAE
:106A10000C2A01F05DF8B5EEC00AF1EE10FADDEDDA
:106A2000191A9DED1A2ADDED1B2ADDED200A9DEDD8
:106A3000211A9DED1F0A58BFB0EE688A01F048F890
:106A400000F092FE5FED8F7AC94B9DED1C2ADDEDC3
:106A50001D2A9DED1E3A94ED021AD4ED031AD4EDD1
:106A6000010A20EE088A94ED000A68EE277AFDEE0E
:106A7000E77A17EE902A1A8000F0AAFFF0EE607A0B
:106A8000F0EE400AB0EE670A00F0F2FD38EE408A00
:106A900018EE100A07F010FDABA3D3E900238046DF
:106AA000894607F0F1FF70B1A9A3D3E9002340465E
:106AB000494607F0A1FB08F02FF808EE100A07F08E
:106AC000FBFC80468946A4A3D3E9002340464946FF
:106AD00007F0BCFF50B19EA3D3E9002340464946CE
:106AE00007F08CFB08F018F808EE100A9FEDA10AD9
:106AF0009FEDA13A44F61F639E4298BFB0EE403A24
:106B000028EE038A18EE100A07F0D6FC9B4B0646C7
:106B10000F46002207F028FD32463B4607F024FDD1
:106B200002460B460020964907F066FB07F0F4FF8B
:106B30009DED0A2ADDED0B2A9DED0C3A94ED000A3D
:106B4000D4ED010A94ED021AD4ED031A03EE900A73
:106B500022EE082A62EE882A23EE083A00F0FCFEB4
:106B6000884884ED000AC4ED010A84ED021AC4EDE0
:106B7000031A00F063FE3DB0BDEC088BBDE8F08F5A
:106B8000814ADFED829A1378002B7FF483AC7D4C31
:106B90007F4D002323606360A3606B62AB62EB6296
:106BA0004FF07E53E3600123137075E4DFF8FC813E
:106BB000B5F93600D8ED008AF5EE408AF1EE10FA0C
:106BC00000F09380734B0393D3ED007ACDED007A00
:106BD000DFF8DC9199ED008AB5EE408AF1EE10FA0B
:106BE00000F0A380DFF8CCB1B5F93830DBED007AE6
:106BF0000693CDED017A684B93ED009AB5EE409A7D
:106C0000F1EE10FA00F08580644BB5F93A20D3ED2F
:106C1000007A04930792CDED027A07F03BFC012342
:106C200005934FA3D3E9002307F09EFC41EC1A0B18
:106C300041EC1B0B18EE900A07F03EFC4AA3D3E987
:106C4000002307F091FC07F067FF07F035FC53ECD9
:106C50001A2B07F0D3FA07F05FFFC8F80000069878
:106C60004F4F07F017FC3EA3D3E9002307F07CFC4D
:106C700041EC1A0B18EE100A07F01EFC3AA3D3E9F8
:106C8000002307F071FC07F047FF07F015FC53ECF9
:106C90001A2B07F0B3FA07F03FFFC9F80000079876
:106CA00007F0F8FB2EA3D3E9002307F05DFC804634
:106CB00019EE100A894607F0FFFB2BA3D3E9002346
:106CC00007F052FC07F028FF07F0F6FB42464B4660
:106CD00007F094FA07F020FF2F4B324A1860002388
:106CE00042F6F82A13703B6025E407EE900A294B20
:106CF0000393F8EEE78AC3ED008ACDED008A67E7DB
:106D0000284B1B78062B7FF692AC274B01221A707A
:106D10008DE4B5F93A30079307EE903AB8EEE79A6A
:106D20001E4B04938DED029A77E7B5F93830DFF802
:106D300084B0069307EE903AB8EEE78A8BED008AAE
:106D40008DED018A57E700BFA7E8482EFF210940D3
:106D50004AD8124DFB211940A7E8482EFF2109C04F
:106D60007B14AE47E17A743FD7A3703D0AD7EF3F5B
:106D7000B40800206F12833A17B7D1380000E03F03
:106D80000000F03F0C080020BC080020CDCC4C3D9A
:106D90001C080020C8080020E8080020D0080020B7
:106DA000C0080020C4080020C5080020D808002022
:106DB000E0080020CC08002030B5124C237883B0C6
:106DC000D3B9114C237813B1002003B030BD0F4D5F
:106DD0009E202968FFF74CF900F003000328F3D147
:106DE000296800910A4B0B4A0E21A020FFF76EF98B
:106DF0000120207003B030BDFFF722FB0023237079
:106E0000DFE700BFBD080020900800201C0800201C
:106E1000940800203561000038B584460C460125F1
:106E20001046614622464FF0A04C104C05FA03F381
:106E3000CCF818352360CCF8083500232364FFF71D
:106E40008DF80B490B4B2268616028462946A360E8
:106E5000FFF7E2F8226860211020FFF7DDF82268D2
:106E60006421BDE838401120FFF7D6B81C08002087
:106E7000CDCC1C3AA721A0392DE9F041174C804612
:106E8000E06816461D460F4607F016FB144B00221D
:106E900007F06AFB07F018FEA8F80000206807F06A
:106EA0000BFB0F4B002207F05FFB07F00DFE388055
:106EB000606807F001FB0A4B002207F055FB07F062
:106EC00003FE3080A06807F0F7FA054B002207F0B8
:106ED0004BFB07F0F9FD2880BDE8F0810C0800208D
:106EE0000040DF40054BB3F930C0A0F800C0B3F953
:106EF00032000880B3F93430138070471C0800203A
:106F0000054BB3F936C0A0F800C0B3F938000880CB
:106F1000B3F93A30138070471C080020064B9FEDF0
:106F2000077AD3ED097A67EE877AFDEEE77A17EEF6
:106F3000903A18B2704700BF1C08002000007A4445
:106F4000064B9FED077AD3ED0A7A67EE877AFDEE5E
:106F5000E77A17EE903A18B2704700BF1C0800207D
:106F600000007A44064B9FED077AD3ED0B7A67EE6B
:106F7000877AFDEEE77A17EE903A18B2704700BFB5
:106F80001C08002000007A444FF04023D3F804315D
:106F900023B1044B1A780AB100221A70024B002266
:106FA0001A70704779090020780900202DE9F04116
:106FB000204C237805460F4616464BBB4FF0402326
:106FC0001D4A1E4C1770022056700021C3F88855C8
:106FD000C3F84805C3F844254FF400700122C3F8F4
:106FE0005015C3F83815C3F83445C3F84015C3F835
:106FF0000002C3F80411C3F824119A6002E0D3F828
:1070000024211AB9D3F80421002AF8D0BDE8F08170
:1070100001F0AEFB804605E001F0AAFBA0EB0803FF
:10702000312B02D82378002BF6D12378002BC5D042
:10703000BDE8F0817809002038090020F808002018
:10704000F8B51E4C237805460E463BBB4FF0402357
:107050001B4C1C4826700121C3F888550022C3F838
:107060004815C3F844454FF48454C3F85025C3F879
:107070003815C3F83405C3F84025C3F80042C3F8F7
:107080000421C3F82421996002E0D3F824211AB91D
:10709000D3F80421002AF8D00078F8BD01F068FB8D
:1070A000074604E001F064FBC31B312B02D82378B0
:1070B000002BF7D12378002BC8D0F8BD7809002029
:1070C00038090020F80800204FF0402370B5062250
:1070D0004FF0C86102240320C3F80845C3F80C052B
:1070E000C3F824150120C3F8002501F06DFC0D2123
:1070F0002C20FFF7A5FF0D210446013C0846FFF7B1
:107100009FFFE4B2FD2C214D214C8CBF0D202C2083
:10711000892209212870FFF749FF2878FF220B21D7
:10712000FFF744FF23782E78FBB94FF0402319482E
:10713000194C002201210270C3F88865C3F8481574
:10714000C3F844050620C3F85025C3F838054FF4AA
:107150008450C3F83445C3F84025C3F80002C3F88F
:107160000421C3F82421996070BD01F001FB05469C
:1071700004E001F0FDFA401B312802D82378002BEF
:10718000F7D12378002BD0D070BD00BF4400002081
:107190007809002038090020F80800202DE9F04F78
:1071A00083B001F0E5FA6D4A1368C31A092B78D948
:1071B0006B4B6C4C1D78A188B4F9047010600D2DD8
:1071C0002088B4F90020DFF8C4A16688B4F9023041
:1071D000DFF8BC91DFF8BCB10191009700F0A4800A
:1071E000614E3678002E5FD16048DFF89C81B0F99F
:1071F00000705F48B8F90080B0F900E05D48B0F970
:1072000000605D48B0F900C05C48B0F9000000992A
:107210009B1BACEB060C5A4ED21B091AA8EB0008BC
:1072200042F2107000FB03F300FB02F293FBFCFC44
:10723000AEEB070701FB00F0ACF59C5C92FBF7F7A7
:1072400090FBF8F0A7F59C57A0F59C503378083FC9
:10725000ACF1080C0838AAF80070A9F800C0ABF827
:107260000000002B69D14FF0402346480022012145
:107270000270C3F88855C3F84815C3F844050620C2
:10728000C3F85025C3F838054FF48450C3F834458B
:10729000C3F84025C3F80002C3F80421C3F8242131
:1072A000996003B0BDE8F08F314EB6F900E0964525
:1072B00005DA00F1010E0FFA8EFEA6F800E02B4E63
:1072C000B6F90070974202DD013807B237802A48CC
:1072D000B0F900C09C4505DA03F1010C0FFA8CFCF3
:1072E000A0F800C02348B0F900609E4202DD5E1E97
:1072F00036B2068024480099B0F90080414506DD89
:10730000019901F101080FFA88F8A0F800801B48E4
:107310000099B0F900008142BFF679AF0199481E8B
:10732000164900B2088072E7474230460E4E367862
:107330001A463BB2002EB7D156E701F019FA0746BC
:1073400004E001F015FAC01B312802D83378002B75
:10735000F7D13378002B86D0A3E700BFF4080020D4
:1073600044000020F8080020EC0800203A0000202B
:10737000380000203E0000203C0000204200002099
:10738000780900203809002040000020EE08002085
:10739000F0080020F2080020064BB3F900C0064BAD
:1073A000A0F800C0B3F90000044B0880B3F9003026
:1073B00013807047EE080020F0080020F20800203B
:1073C0000D4B1A78B2B930B40C4C0D4D0D480E4926
:1073D0004FF4FA4222800D4C2A8022804FF0010C9B
:1073E0000B4A83F800C04FF4034303800B801380E3
:1073F00030BC7047704700BFEC0800203E00002002
:107400003A000020380000203C000020420000200C
:1074100040000020014B00221A707047EC08002049
:1074200010B40F4CB4F900C0A0F800C00D48B0F97A
:10743000000008800C480D49B0F900001080B1F937
:1074400000100B4A19800199B2F90020094B0A80FB
:10745000B3F90020029B1A805DF8044B704700BF0F
:107460003A000020380000203E0000203C000020B0
:10747000420000204000002010B40A4CBDF904C0B6
:10748000208009480180094909480A8009490A4AB7
:107490000380BDF90830A1F800C013805DF8044BEB
:1074A000704700BF3A000020380000203E00002056
:1074B0003C0000204200002040000020DFED2E7A3A
:1074C000B4EEE70AF1EE10FA08D59FED2C7A30EE13
:1074D000070AB4EEE70AF1EE10FAF8D4DFED287AE5
:1074E000B4EEE70AF1EE10FA08DD9FED247A30EEF3
:1074F000470AB4EEE70AF1EE10FAF8DCB5EEC00A7E
:10750000F1EE10FA1BD49FED1F7ADFED1F7A20EE0B
:10751000077A60EE277A27EE000A37EEC00AB5EE4A
:10752000C00AF1EE10FA1BD460EE007A9FED177AD4
:1075300077EEC07A67EE877A37EE800A7047DFED24
:10754000117A9FED117A60EE277A20EE077A27EE06
:10755000800A30EE070AB5EEC00AF1EE10FAE3D564
:1075600060EE407A9FED097A77EEC07A67EE877A0F
:1075700037EE800A704700BFDB0F49C0DB0FC94000
:10758000DB0F49407B81CF3E83F9A23F6666663EB2
:107590009FED307ADFED307A30EE070AB4EEE70A7D
:1075A000F1EE10FA08D59FED2D7A30EE070AB4EE11
:1075B000E70AF1EE10FAF8D4DFED297AB4EEE70A23
:1075C000F1EE10FA08DD9FED257A30EE470AB4EEB1
:1075D000E70AF1EE10FAF8DCB5EEC00AF1EE10FAA7
:1075E0001BD49FED207ADFED207A20EE077A60EE43
:1075F000277A27EE000A37EEC00AB5EEC00AF1EE90
:1076000010FA1BD460EE007A9FED187A77EEC07AFC
:1076100067EE877A30EE270A7047DFED127A9FED2A
:10762000127A60EE277A20EE077A27EE800A30EE93
:10763000070AB5EEC00AF1EE10FAE3D560EE407A23
:107640009FED0A7A77EEC07A67EE877A30EE270AE6
:10765000704700BFDB0FC93FDB0F49C0DB0FC940DC
:10766000DB0F49407B81CF3E83F9A23F6666663ED1
:10767000F5EEC00AF1EE10FA9FED336A4CBFF1EE61
:10768000607AF0EE607AB5EEC00AF1EE10FAF4EE30
:10769000C67A4CBFF1EE406AF0EE406AF1EE10FAA5
:1076A000B0EE407A49D4F4EEE67AF1EE10FA27D43F
:1076B00086EEA70ADFED257ADFED255A9FED256AD4
:1076C00060EE006A66EEA77A77EEA57A67EEA67A94
:1076D00077EEC67A67EEA67A67EE807A37EE800A92
:1076E000F5EEC00AF1EE10FA48BFDFED1B7AB5EEF9
:1076F000C07A48BF37EEC00AF1EE10FA20D47047C6
:1077000087EEA66A9FED110A9FED115ADFED115A1F
:10771000DFED127A66EE066A26EE800A30EE050A82
:1077200020EE260A30EE650A20EE260A20EE060A32
:1077300030EE060A37EEC00AD2E79FED090A70471D
:10774000B1EE400A704700BF95BFD63316733EBDF9
:107750004423233E2CBEA73EDA0F4940DB0FC93F2E
:107760000000000000000000B5EEC00AF1EE10FAC3
:1077700048BFB1EE400A30EE007AF7EE007A37EEFD
:10778000677ADFED277ADFED275ADFED274A67EECC
:10779000076A20EE270ADFED257A30EE650A27EE2C
:1077A000266A66EEA77ADFED225A70EE277A67EE38
:1077B000066A26EE256A67EE265A77EEC67A66EEE8
:1077C000A46A9FED1C6A27EE257A77EEE67A65EECD
:1077D000866A9FED196A77EEA67A27EE067A48BF89
:1077E000BFEE005A77EE877A58BFB7EE005A67EEC1
:1077F000857A08B517EE900A06F05EFE02460B4643
:1078000005A1D1E9000106F0F7FC07F085F900EECB
:10781000100A08BDAFF300804AD8124DFB21F93F92
:107820008A1E9E3FCACFCA3D098ED93E6414653E6A
:107830000AE2323EC60E9E3ED955E13E10B590EDAD
:10784000017AD0ED007AD0ED026A27EE076A67EE82
:10785000A77A66EEA66A77EE867A90ED037A77EEDF
:10786000A67A27EE077A044677EE877A17EE900A13
:1078700006F022FE41EC100B06F0B4FB51EC100BAD
:1078800007F04AF907EE900AF5EEC07AF1EE10FA29
:107890001BDDF7EE006A86EEA77AD4ED005A94ED70
:1078A000016AD4ED026AD4ED037A65EE875A26EEBA
:1078B000076A66EE876A27EE877AC4ED005A84ED80
:1078C000016AC4ED026A84ED037A10BD10B5D0EDF3
:1078D000007AD0ED016A90ED027A66EEA66A67EE54
:1078E000A77A27EE077A77EEA67A044677EE877AAC
:1078F00017EE900A06F0E0FD41EC100B06F072FB6B
:1079000051EC100B07F008F907EE900AF5EEC07A7B
:10791000F1EE10FA15DDB7EE007A87EE276AD4EDA6
:10792000006A94ED017AD4ED027A66EE866A27EE5B
:10793000067A67EE867AC4ED006A84ED017AC4EDBA
:10794000027A10BD8CB0F1EE600AB1EE411AB1EED0
:10795000400A0CB0704700BF20EE234A60EEA34AF5
:1079600021EE235A60EEA25A61EE827A21EEA26ADB
:1079700061EE836A20EE027A77EE847A36EE246A2C
:1079800020EE834A61EE024A76EE856A37EE257A6A
:1079900020EE225A61EE035A61EE222A20EE030AFB
:1079A00020EE821A77EE847A36EE246A76EE856AC5
:1079B00061EEA31A37EE257A76EE400A36EEC11A4A
:1079C00071EEC71A37EEE20A90B010B0704700BFF0
:1079D000DFED337A60EEE23A22EE214A62EEA14A0E
:1079E00023EE215A60EE425A20EE677A20EEE76AD3
:1079F00061EE676A75EEA35A37EE047A61EE433A98
:107A000021EE624A36EE246A76EE856A60EE434ADB
:107A100020EEC25A75EEA35A37EE047A36EE246A87
:107A200076EE856A61EEA77A20EEC33A21EE422A0D
:107A300060EE622A37EE433A76EEE22A36EE422ACA
:107A400077EEE57A21EE837A60EE275A20EEA76A78
:107A500061EE826A61EE277A61EEA21A20EEA25AE6
:107A600037EE257A76EE866A61EE035A20EE026AD8
:107A700071EEA71A21EE022A20EE220A20EE831AC6
:107A800037EE057A76EEA56A71EE861A76EEC00AB2
:107A900031EEC11A37EE420A90B010B0704700BF05
:107AA0000000000021EE027A60EEA26A61EE217A07
:107AB00060EE222A20EE022A20EEA11A36EEC70A34
:107AC00077EEE20A32EE411A8EB00EB0704700BF78
:107AD00060EE211A20EE822A61EE222A31EE820A1D
:107AE00086B030EE220A06B0704700BFF0B44FF007
:107AF00080534FF0FF341A695FEA121C4FF42C33A5
:107B00002546B3FBF2F3264602FB03F3224615D0CB
:107B1000002106E08C45D3E90165DC6803F1100320
:107B20000CD017461A68B2F1FF3F01F10101F1D103
:107B3000C0E90076C0E90254F0BC7047C0E90026F5
:107B4000C0E90254F0BC70472DE9F04389B0EE461D
:107B50008EE80F004FF080534FF0FF341B694FF059
:107B6000FF355FEA131C4FF42C39CDE90445B9FB0E
:107B7000F3F9CDE9064509FB03F02CD04FF0FF34B3
:107B8000002503462646274621462A4609E00132BB
:107B90009445D3E90176DC684FF0010503F1100349
:107BA00061D088461968B1F1FF3FF0D11DB1CDE930
:107BB0000487CDE90664DDE900175C68029E4D1C70
:107BC00018BF0125A74218BF01259C68A6426BD0AB
:107BD000039C002A50D1002213460CF1FF3C94452F
:107BE00047DC354AD2F80034002BFBD0022332495F
:107BF000C2F80435D1F80034002BFBD02E4AC1F86E
:107C00000895D2F80034002BFBD000232A49C2F893
:107C10000435D1F80034002BFBD0274AD2F80034C9
:107C2000002BFBD001232449C2F80435D1F80034DD
:107C3000002BFBD0204A714600F1100451F8043BA0
:107C40000360D2F80034002BFBD00430A042F5D101
:107C500000231949C2F80435D1F80034002BFBD0B9
:107C600009B0BDE8F0830CF1FF3C94454FF00003F0
:107C7000B7DD00EB0310D0E7049B31EA0303DDE935
:107C8000051314BF0025012537EA010118BF00259F
:107C900036EA030306D1079B34EA030302D10DB190
:107CA000531E9AE7134698E7DB68039C9C4290D1E9
:107CB000002DD5D08DE700BF00E00140124BD3F876
:107CC0005025A2B1D3F85025042A11D0D3F850255D
:107CD0000C2A0DD000220121C3F80022C3F8102184
:107CE0001961D3F85025002AFBD1C3F81021704741
:107CF000054AD2F85035042BFBD0034AD2F8503550
:107D00000C2BFBD0704700BF00100040F0B5DFF82F
:107D100000C13C4F022501240426FA29C7F88050EF
:107D2000CCF8FC4FCCF80C65CCF8080560D0B1F568
:107D30007A7F55D10021CCF81015079C059EDFF8FD
:107D4000D8E0314F0021084664F30700069C03F099
:107D5000010364F30F202D4C5B0204EA104C43F442
:107D6000827343EA0C0363F31F40294B254CC3F88D
:107D700024E54FF4847566F313450EF1443E254E19
:107D8000C3F828E5C3F81C65C3F820650126C3F8CD
:107D90002C154FF0400CC3F83065C3F81455C3F8E8
:107DA00018051E20C3F854C5C3F84405C3F834258C
:107DB000AA22C3F83C2540F20712C3F838254FF039
:107DC000FF32C3F81011C3F80C11C3F808230822BE
:107DD000C3F804230223396084F801132360F0BD43
:107DE00040F2E930814206D10321CCF81015A4E716
:107DF000CCF81055A1E7B1F5FA6F08BFCCF81045E3
:107E00009BE700BF00E100E0D0090020F8FCFFFF85
:107E100000100040A70DE60E11223344F0B4374B9A
:107E2000374C1E68374B0225C4F8805004270124C4
:107E3000FA29C3F8FC4FC3F80C75C3F8080554D0F1
:107E4000B1F57A7F49D10021C3F8101500212D4BDF
:107E5000DFF8C0C02C48C3F824C50C4666F30704FD
:107E60002A4D2B4E00EA14400CF1443CC3F828C5BF
:107E700040F44170C3F81C55C3F820550125C3F8E0
:107E80002C1560F31F44C3F830554FF48475C3F8C4
:107E900014554027C3F818451E24C3F85475C3F879
:107EA0004445C3F83425AA22C3F83C2540F2071202
:107EB000C3F838254FF0FF32C3F810111048C3F84B
:107EC0000C11C3F808230822C3F8042302233160ED
:107ED00080F801130360F0BC704740F2E930814242
:107EE00006D10321C3F81015B0E7C3F81055ADE76C
:107EF000B1F5FA6F08BFC3F81045A7E748000020A6
:107F000000E100E000100040F8FCFFFFA70DE60EC6
:107F1000D00900201122334410B41E4BD3F8502551
:107F2000032A1FD0D3F85025012A1BD0D3F850259F
:107F3000022A17D0D3F85025A2B1D3F85025042A2D
:107F40001CD0D3F850250C2A18D000220121C3F8E8
:107F50000022C3F810211961D3F85025002AFBD163
:107F6000C3F810210B4B0C4A112401200521C3F842
:107F70000042586011705DF8044B7047054AD2F812
:107F80005035042BFBD0034AD2F850350C2BFBD0D4
:107F9000E8E700BF001000408109002030B4204B0A
:107FA000D3F85025092A03D0D3F850250A2A11D135
:107FB0001C4C1B4A1C481D49002525600123032435
:107FC0004FF0020CC2F80042136080F800C00B6052
:107FD00030BC7047D3F85025002AE9D0D3F850259B
:107FE000042A11D0D3F850250C2A0DD000220121EB
:107FF000C3F80022C3F810211961D3F85025002AD4
:10800000FBD1C3F81021D3E7054AD2F85035042B31
:10801000FBD0034AD2F850350C2BFBD0C8E700BF89
:10802000001000407C09002081090020CC090020BC
:1080300038B52F4C23682BB14BE000F099FB431B64
:10804000022B02D82368002BF7D12A4BD3F85025F6
:10805000092A03D0D3F850250A2A20D12649254AD7
:10806000264B0020086001210320C2F800021160A5
:1080700004211970D2F85035002BFBD0D2F85035BE
:108080000C2BF7D0D2F85035042BF3D0D2F80032B5
:1080900043F018030121C2F80032216038BDD3F843
:1080A0005025002ADAD0D3F85025042A15D0D3F869
:1080B00050250C2A11D000220121C3F80022C3F858
:1080C00010211961D3F85025002AFBD1C3F81021E3
:1080D000C4E700F04DFB0546B4E7064BD3F8502546
:1080E000042AFBD0034BD3F850250C2AFBD0B5E76C
:1080F000CC090020001000407C09002081090020EC
:10810000002970B53D4E21DD431CF31A022B6BD9BB
:108110004B1E072B68D921F0030C034684443246DA
:1081200053F8044B42F8044B6345F9D18A0721F018
:1081300003030BD0C25CF2545A1C914206DD023399
:10814000845CB454994201DDC25CF2542C4C236827
:108150002BB13AE000F00CFB401B022802D8236848
:10816000002BF7D1274BC3F80465D3F85025092A13
:1081700003D0D3F850250A2A0DD12348214A234998
:10818000002505600320C2F80002012302201360CD
:108190000870236070BDD3F85025002AEDD0D3F8C5
:1081A0005025042A15D0D3F850250C2A11D00022CE
:1081B0000121C3F80022C3F810211961D3F850251A
:1081C000002AFBD1C3F81021D7E700F0D1FA054609
:1081D000C5E70C4AD2F85035042BFBD0094AD2F837
:1081E00050350C2BFBD0C8E7431E044A194413F842
:1081F000010F02F8010B8B42F9D1A7E7E00A00203A
:10820000CC090020001000407C09002081090020DA
:1082100010B4214A214B22491068224A0860C3F851
:108220000425D3F85025032A1FD0D3F85025012A5E
:108230001BD0D3F85025022A17D0D3F85025A2B16D
:10824000D3F85025042A1CD0D3F850250C2A18D076
:1082500000220121C3F80022C3F810211961D3F8CC
:108260005025002AFBD1C3F810210C4B0E4A1124D3
:1082700001200521C3F80042586011705DF8044BDD
:108280007047064AD2F85035042BFBD0034AD2F887
:1082900050350C2BFBD0E8E7DC0A00200010004032
:1082A00084090020DC09002081090020891070B5B4
:1082B000214E1DD4031D9E4218BF0B2901F101015F
:1082C0002DD946EA0002540729D14C08324600EB6A
:1082D000C4040346B3EC027BA342A2EC027BF9D1B7
:1082E000CA0721F0010303D550F8232046F82320C4
:1082F000124C23682BB10EE000F03AFA401B022822
:1083000002D82368002BF7D10D4BC3F80465BDE8F4
:108310007040FFF78DBE00F02BFA0546F1E7064AE4
:1083200000EB810000E0043353F8041C42F8041B06
:108330008342F8D1DCE700BFE00A0020CC0900202E
:1083400000100040034A044B10681B68C01A18BF95
:108350000120704784090020DC0A002010B40A4C78
:10836000021F0023214651F8040B42F8040F6078E5
:108370000133B3EB900FF6DD044A054B12681A6027
:108380005DF8044B704700BFDC090020DC0A0020C8
:1083900084090020014B1860704700BFD0090020FD
:1083A000014B00221A607047D4090020014B0022C3
:1083B0001A607047D80900200D4A0E490023C2F800
:1083C0000031C2F80431C2F80831C2F80C31C2F8E9
:1083D0001031C2F81431C2F81831C2F81C31C2F899
:1083E0002831C2F83031C2F834310B60704700BF19
:1083F00000100040CC090020964B1A6802B11047CB
:10840000954BD3F80411002947D1D3F80C21A2B120
:108410009248914B924A00210160C3F80C111178E7
:10842000022936D0117801293FD0117804291ED0B5
:1084300011780529C8B241D0704788490A60C3F84D
:108440000021C3F80421C3F80821C3F80C21C3F8A4
:108450001021C3F81421C3F81821C3F81C21C3F854
:108460002821C3F83021C3F834210A6070477D49C0
:10847000C3F8041503E0D3F85015032903D0D3F84B
:1084800050150229F7D1744911200523C1F80002C3
:108490001370754B1B683BB11847C3F80421D3F820
:1084A0000C31002BB4D170477047704A1368013308
:1084B00013606F4B1B68002BEED1BDE730B56B4CE2
:1084C0002168013121606B49097800295FD0D3F818
:1084D00000346949002B6AD00978684B0124A14215
:1084E0001C6001F1020C40F3AD806548654B0568E6
:1084F0001D604FEA9C04012C1AD045685D60022C77
:1085000016D085689D60032C12D0C568DD60042CF0
:108510000ED005691D61052C0AD045695D61062CE8
:1085200006D0072C856918BFC4699D6118BFDC613E
:108530003CF4FE742CF0030E13D010F80E4003F838
:108540000E408E450EF101040BDC10F804C003F858
:1085500004C0A14204F1010C03DB10F80C0003F885
:108560000C00F1B13C490424147003200122C1F82D
:108570000435C1F800020A60D1F85035002BFBD059
:10858000D1F8003243F01803C1F8003230BD0121A8
:1085900010709960364B1B68002BF7D0BDE8304057
:1085A0007AE72D4B052001211070996030BD0978C4
:1085B000324B4FF0FF300129186001F1020C3ADD17
:1085C0003148304B05681D604FEA9C04012C1AD0DD
:1085D00045685D60022C16D085689D60032C12D022
:1085E000C568DD60042C0ED005691D61052C0AD01C
:1085F00045695D61062C06D0072C856918BFC469E2
:108600009D6118BFDC613CF4FE752CF00304A8D01A
:1086100010F804C003F804C0A14204F1010CA0DB6F
:1086200010F80C4003F80C400CF101046145A4BFA4
:10863000005D185595E71448124B04781C704FF0F4
:10864000010CEDE70E480F4B90F800C083F800C016
:108650007BE700BFD009002000100040CC090020BB
:1086600081090020DC090020D8090020DC0A002054
:10867000D409002080090020C80900207C090020BE
:10868000A8090020E00A002088090020014B186892
:10869000704700BFCC0900201A4B1B48DFF87CC094
:1086A0002DE9F0430022DFF87880C3F804254FF06D
:1086B0000309C3F80895C3F840854FF00408C3F8D0
:1086C00010854FF48038C3F8048301214FF480688B
:1086D000DFF850E00D4F0E4E0E4DC3F800120E4C59
:1086E000C0F800804FF0400880F80A83CEF80020E0
:1086F000CCF800203A6032602A6019602170BDE831
:10870000F08300BF00A0004000E100E0F00B00207B
:10871000E40B0020EC0B00201C0C0020E80B0020D8
:1087200040420F00E00B0020074A0849084B10B4F4
:108730004FF48064C2F880400120002208611A7062
:108740005DF8044B704700BF00E100E000A000406E
:108750001C0C0020044B054A01219964D3F84835CC
:1087600010681844704700BF00A00040E00B0020D4
:10877000064B074901229A64D3F84835054A086830
:10878000A2FB032300EB9310704700BF00A0004042
:10879000E80B0020D34D6210174B70B400241C600E
:1087A000164B174E1C60174B1A60174B1860174B6F
:1087B00001255D6031600321DD60C3F80445C3F825
:1087C00008154FF48031C3F81045C3F84005C3F8CD
:1087D00004134FF48071C3F800120AB1C3F80052B9
:1087E0000B4B0A4A60244FF08060012183F81A4342
:1087F0001860116070BC7047100C0020180C00202D
:10880000F40B0020080C0020040C002000A0014004
:1088100000E100E01A4BDFF87CC02DE9F0410124B3
:10882000184D1C60DFF87080174BDFF870E02C608B
:108830000025C8F80050CEF800505C60CCF800204D
:108840000322DC60C3F80455C3F808254FF48032D6
:10885000C3F810550D4EC3F84005C3F804234FF478
:108860008072C3F800226022C3F80042084F86F8E5
:108870001A234FF0806232601C603960BDE8F081DD
:10888000000C0020080C002000A0014000E100E0E6
:10889000040C0020F40B0020100C0020180C002009
:1088A000014B01225A60704700A001400249034B6E
:1088B000086001221A607047F80B0020FC0B0020B2
:1088C00010B5284BD3F84021A2B1274A0021C3F8A4
:1088D0004011106820B125480068C3F840051160B8
:1088E000234B1B689847234A1368FBB1012B26D002
:1088F000022B1CD01B4BD3F8442142B11E4A00214D
:10890000C3F84411136813B11C4B1B689847154BEF
:10891000D3F8482152B11A4A0021C3F8481113680C
:1089200023B1184BBDE810401B68184710BD0F4B12
:108930000C491868C1F8400500231360DAE70B4BB7
:1089400011491B68096807480B44322B38BF322392
:10895000C0F840350221034B1160D3F84421002AAE
:10896000D5D0CBE700A00140000C0020040C002073
:10897000F40B0020FC0B0020100C00200C0C00203D
:10898000180C0020140C0020F80B00200A4B0B4A96
:108990000021C3F840111368094903F5742303F556
:1089A000107313600B68074A03F57A730B60136842
:1089B00001331360704700BF00A00040E00B0020AF
:1089C000E80B0020F00B0020164B1B7843B370B46B
:1089D0001549164C164D01268E64D1F84825A5FB85
:1089E0000232236883B003EB9213184401908E6423
:1089F000D1F84825A5FB0232236803EB9213019AB4
:108A00009A420AD38E64D1F848252368A5FB020256
:108A1000019803EB92139842F4D803B070BC7047EE
:108A2000704700BF1C0C002000A00040E80B002095
:108A3000D34D621038B5154603221C46FFF7EEF9F8
:108A4000074A084B15601C60FFF7E2FB064B01224A
:108A50000021C3F80012C3F804251A6038BD00BF16
:108A6000500000208013002000D00040014B18600F
:108A7000704700BF5800002030B4354B1B6843BB23
:108A8000002922DD334D431CEB1A022B56D94B1E15
:108A9000072B53D921F0030C034684442A4653F88C
:108AA000044B42F8044B6345F9D18A0721F00303D4
:108AB0000BD0C25CEA545A1C914206DD0233845C3E
:108AC000AC54994201DDC25CEA54234B196030BCBE
:108AD0007047002923DD214A431CD31A022B23D9D6
:108AE0004B1E072B20D921F0030C0346844453F876
:108AF000044B42F8044B6345F9D18C0721F0030382
:108B00000DD0144AC45C1A4414745C1C8C4206DAFE
:108B10000233045D5474994201DDC35C93740E4BBF
:108B20001031196030BC704701380D4B441810F8F3
:108B3000012F03F8012FA042F9D1F0E70138054BCE
:108B4000441810F8012F03F8012BA042F9D1BCE71B
:108B500080130020280D0020280E0020380D002052
:108B6000370D00202DE9F04F85B0FFF7EBFB002813
:108B700040F0E480FFF7EEFDAF4BB0491A6809689A
:108B8000841A8C4202D28242C0F0AB80AC4AAD491A
:108B90001860136803910968029210465A1C8A42B1
:108BA000026040F3A18000230360FFF7E1FD039B17
:108BB00000901D68002D70DDA34BA44AA44C1B68D7
:108BC000019300261746234696460120B44609E045
:108BD000814603F104084D450EF1040E00F1010039
:108BE000434656DD1168009E711A019EB1429346BC
:108BF00002F10402ECD9A842814680F2E48043EA03
:108C00000E0C4CEA020C03F104084CEA080C00F1CB
:108C1000FF3A1CF0070FA5EB0A0A714640F0C68028
:108C2000AAF10206062E40F2C1800AF1FF3AABF12A
:108C300004064FEA5A0BA3F1040C0EEBCB0B083BD6
:108C40009CED027B83ED027B96ED027BA1EC027B27
:108C50008B450CF1080C03F1080306F10806EFD16F
:108C60002AF001039A4503EB000108D04E1E54F888
:108C7000213044F8263057F8213047F82630013D9E
:108C80004D454FF0010C0EF1040E00F1010043467A
:108C9000A8DC66460EB1039B1D606E4C6E4EE571FE
:108CA0004FF4805323803368002BC4BF10336370AC
:108CB000624B1B681BBAA36000220123C4F8022088
:108CC000A371FFF755FD00BAE060FFF7DFFC002855
:108CD0002FD161785F48FFF7E9FA029B1B6803B95F
:108CE000336005B0BDE8F08F002A3FF45EAF594C09
:108CF000594EE17103F10B0222701022627032684A
:108D00005349002AC4BF10326270544A02EBC300B8
:108D100052F83320A2604268E26051F8232031F813
:108D200023305BBAA3800123A371130E120CA3702E
:108D3000E270FFF7ABFC0028FBD1CAE7484D28469C
:108D4000FFF70CFB474B0528D3F8003404467FF7A8
:108D500011AF002B3FF40EAF394B02931A46D5F8F2
:108D6000023016681BBA8EBB002B3FF403AF354AA6
:108D7000039215683F2D3FF7FDAE002D344C09DD01
:108D8000224604EB850052F8041B8B423FF4F2AEFE
:108D90008242F8D144F82530FFF7EAFC03992B4AC8
:108DA0000B6842F8250001330B60E3E62E49764656
:108DB00001EB850C596843F8041B716846F8041BE5
:108DC0009C45F7D15BE703F1040858E7204A013ED0
:108DD00052F826209A427FF4CDAEFFF7C9FC1B4B18
:108DE00043F82600214B224E01221A60214B24F029
:108DF00003001C602A463044334652F8041B43F8F3
:108E0000041B8342F9D1A20724F003030BD0EA5CD0
:108E1000F2545A1C944206DD0233A95CB1549C42C0
:108E2000C4BFEA5CF254029A134B11682A780B44CF
:108E300003F8012C9EE600BF340F002050000020F4
:108E40002C0E0020200C00204C000020400F0020A1
:108E500040100020280D0020280E00208011002046
:108E6000300E0020001000403C100020881300202D
:108E7000240C0020240D002040110020604B1B68B2
:108E80000BB1FFF76FBE2DE9F04F83B0FFF770FC19
:108E90000446FFF757FA10B903B0BDE8F08F594EFA
:108EA0003046FFF75BFA584BD3F800340546002BE9
:108EB000F2D00528F0DDD6F80230DFF8849196F87C
:108EC0000880D9F800A093FA83FB002B3AD0D34551
:108ED000E2D14E4F4E484F4A4F4B156025F0030CE0
:108EE000012284444A481A60464A034652F8041B49
:108EF00043F8041B9C45F9D1AA0725F003030BD0C6
:108F0000F25CC2545A1C954206DD0233B15C8154B6
:108F10009D42C4BFF25CC254404D414A2B683C6044
:108F2000002B1460B8DD3F4E33784345B4D0FFF7D3
:108F3000ADFB0028B0D129683046FFF7B7F93A4BAE
:108F40001C60A9E7F368394A304F1BBA1360FFF77A
:108F50000FFC374B37491A683B680860E31A9342A5
:108F600027D82B48BAF1000FB5D02B4B012225F0A2
:108F700003041A600444274B2548224A1D60034617
:108F800052F8041B43F8041BA342F9D1A90725F0AA
:108F9000030381D0F25CC2545A1C95427FF77CAF28
:108FA0000233B15C81549D427FF776AFF25CC254CC
:108FB00072E71B4B20491C60D1F808251F4BC1F8F4
:108FC00000B1A3FB02135B09642101FB1323612B96
:108FD0000F48C7D9B9F80020D9F80030019052BA2B
:108FE000828041F2010202801A0E1B0CC370012321
:108FF000827083711021FFF759F90198B2E700BF21
:1090000080130020300E002000100040300F0020A0
:10901000240C0020240D002088130020280E00209E
:109020003C0F0020280D0020380F00208413002062
:10903000540000208C13002000D000401F85EB510D
:10904000580000202DE9F843B64CB74B94F8271090
:1090500094F8292094F82A000A4483FB021313444D
:109060005B1103EBC30103EB8103D31ADEB22528A6
:1090700084F8296009D004EBD60206F0070592F8BF
:1090800022100122AA40114265D0A8498A8B92B2CF
:10909000002A40F08780A649A64F01220A61226972
:1090A0001002120EC1F81C05C1F824250B2BB4BF09
:1090B0000422062202EB43039D4DDFF8C082C5F86F
:1090C0000835A38D626946F0400640F25B61C5F841
:1090D00054650133C5F83815C5F83C25A385FFF75D
:1090E00039FB94F83C60944B032E1860C5F8048556
:1090F00000F0BC80022E00F0C880012E00F0EC824F
:10910000FEF70AFF8D498A4B01220A60D3F800124C
:1091100041F00201C3F80012D3F8001241F004013B
:10912000C3F800123B68022B00F0DA80FFF720FB47
:10913000238C226BB3F57A7F3CBF03EB83035B0088
:10914000A0EB020034BF03F2DC5342F6EC4398423A
:109150002ED8BDE8F8837A4B74491D78B6FBF5F339
:1091600005FB13668B8B774AF6B29BB2965D002B9C
:1091700040F0BC806F4F6E4901230B612269252EA0
:109180004FEA02204FEA1262C1F81C053346C1F8CB
:10919000242500F0B982262E00F0B882272E85D132
:1091A000502389E7A58DCA8D95427FF474AFA2E064
:1091B000654E664F01254FF002083D60FFF770FBDA
:1091C000C6F8808001F04AFDFFF7EAF8FFF7EEF8F5
:1091D0005F48FFF7DFF8002002F0FEF8544B94F8E8
:1091E0003B10DFF89CE15B4CDFF898C1C3F8FC5FF3
:1091F0004FF00309C3F81095C3F814E5C3F818C578
:10920000C3F81C458E24C3F82445002240F2031401
:10921000C3F82C25C3F83055C3F834459624C3F859
:1092200044454D4840F25B64C3F83845C3F83C05FB
:109230000420C3F80C054FF6FF70C3F81021C3F8E3
:109240000C21C3F808030A20C3F8040386F801239D
:10925000C6F800803D6000297FF47BAF3F4A136869
:10926000B3FA83F35B091360BDE8F88300253C483B
:1092700084F83C50294602F0C3FB284602F0ACF8C3
:1092800094F83C60022E7FF438AF294BDFF8F89059
:10929000244800250126C4F8DC5084F83C60C4F85A
:1092A000E050C4F8E450C4F8E850C3F8049584F8DA
:1092B000EC6001F0E9FF2B4B2B4AC3F80C95C3F887
:1092C0001085C3F81425294AC3F804253046C3F88D
:1092D000005202F081F82248314602F091FB0FE77C
:1092E000234924483A60FFF757FA1FE7CA8DA38D38
:1092F0009A427FF43FAF8B8B4FF6FF729BB2934243
:1093000044D08B8BD1F81E000A4FC4F81E009BB2CC
:10931000A383002301228B83174815493A60FFF786
:109320003BFA28E7741B0020A7C867DD941C0020C7
:1093300000100040E0140020681B00201C170020D3
:10934000600000209414002000E100E0DC14002004
:109350006DAB000000D6BE8955555500181700208A
:10936000B81D002000F00040E414002001000001BE
:1093700045900000FFFF2F00FFFF1F002017002077
:1093800008011000FA00030230180020D1F8225022
:10939000DFF8D48291F826C0C4F8225015F00103FA
:1093A00018BFB04A84F826C04FF000075FFA85FE68
:1093B00016BF17701A4601221EF0020F88F80070BF
:1093C00005D0A84A0127D7543B44DBB23A461EF0E9
:1093D000040F05D0A34A0227D7540133DBB2012280
:1093E0001EF0080F05D09F4A0327D7540133DBB284
:1093F00001221EF0100F05D09A4A0427D7540133DA
:10940000DBB201221EF0200F05D0964A0527D75463
:109410000133DBB201221EF0400F05D0914A06272E
:10942000D7540133DBB201225FEADE1705D08D4A43
:109430000727D7540133DBB2012215F4807FC5F32F
:10944000072707D0874A4FF0080E02F803E00133E0
:10945000DBB2012217F0020F07D0824A4FF0090E4B
:1094600002F803E00133DBB2012217F0040F07D04A
:109470007C4A4FF00A0E02F803E00133DBB201220E
:1094800017F0080F07D0774A4FF00B0E02F803E0F1
:109490000133DBB2012217F0100F07D0714A4FF0F1
:1094A0000C0E02F803E00133DBB2012217F0200FAB
:1094B00007D06C4A4FF00D0E02F803E00133DBB227
:1094C000012217F0400F07D0664A4FF00E0E02F847
:1094D00003E00133DBB20122FF0905D0614A0F2707
:1094E000D7540133DBB2012215F4803FC5F307479F
:1094F00007D05C4A4FF0100E02F803E00133DBB2F4
:10950000012217F0020F07D0564A4FF0110E02F851
:1095100003E00133DBB2012217F0040F07D0514AF8
:109520004FF0120E02F803E00133DBB2012217F014
:10953000080F07D04B4A4FF0130E02F803E0013337
:10954000DBB2012217F0100F07D0464A4FF0140E7D
:1095500002F803E00133DBB2012217F0200F07D03D
:10956000404A4FF0150E02F803E00133DBB201224E
:1095700017F0400F07D03B4A4FF0160E02F803E0F9
:109580000133DBB20122FF0905D0364A1727D75431
:109590000133DBB201222F0EED0105D5314A18252A
:1095A000D5540133DBB20122BD0705D52D4A19255B
:1095B000D5540133DBB201227D0705D5294A1A258E
:1095C000D5540133DBB201223D0705D5254A1B25C1
:1095D000D5540133DBB20122FD0605D5214A1C25F5
:1095E000D5540133DBB20122BD0605D51D4A1D2528
:1095F000D5540133DBB201227D0605D5194A1E255B
:10960000D5540133DBB20122FD0905D0154A1F25CF
:10961000D5540133DBB201221CF0010F05D0114AF1
:109620002025D5540133DBB201221CF0020F05D0F6
:109630000C4A2125D5540133DBB201221CF0040F62
:1096400005D0084A2225D5540133DBB201221CF093
:10965000080F0BD0034A2325D5540133DBB2012276
:1096600004E000BF94140020600000201CF0100FE4
:1096700005D0324A2425D5540133DBB201221CF037
:10968000200F45D11CF0400F4CD02C4A2625D55434
:109690000133DBB25FEADC1503D02725D554013353
:1096A000DBB288F80030252841D0272E09D804EBFA
:1096B000D60206F0070592F822000122AA401042C5
:1096C00006D1B6FBF3F203FB12631C48DBB2C65CA7
:1096D0001B4F00238B834EE51A4B1B4DC3F80455DB
:1096E0001A4884F8EC6001F0CFFD194B194AC3F811
:1096F0000C55C3F81085C3F81425174AC3F8042580
:10970000304601F069FEFBE40223D5E41A23D3E4DA
:109710000A4A2525D5541CF0400F03F10103DBB2A2
:10972000B4D1B7E75FEADC1504D0044AB5E7242ECC
:10973000C7D8CDE7002AB4D11346B4E7941400206B
:10974000E01400200010004030180020741B00209E
:1097500000F00040E41400200100000138B5224B65
:10976000224CC3F81C45252A4FF08E04C3F824452B
:1097700032D0262A34D0272A34D00B2AB4BF04246E
:10978000062404EB4204184B42F04002C3F808459B
:1097900040F25B65164CC3F854250028C3F83855D1
:1097A000C3F83C451ADD4B1E124D134C1844C1F151
:1097B000010C0CEB0302A15C05F8011B13F8011F5F
:1097C000A1548342F5D1084BC3F80445FEF7E6FBEC
:1097D0000A4B02221A6038BD0224D4E7064CF2E795
:1097E0001A24D0E75024CEE70010004000D6BE89EE
:1097F00055555500501A0020401900201C17002014
:10980000014B1860704700BF6800002030B5441855
:109810009DF80C5003F1010C002B00F801C065709D
:1098200001F102052FDD00EB050C541CACEB040428
:10983000022C2AD95C1E072C27D923F003041444D8
:10984000114651F804EB4CF804EBA142F9D123F096
:1098500003018B4205EB010414D012F801C000F89B
:1098600004C001F1010C634504F1010E0ADD02316F
:1098700012F80CC000F80EC08B4204F1020401DDA6
:10988000525C02551D44284630BD013A0131014465
:10989000D41812F8010F01F8010FA242F9D1F1E733
:1098A00010B59DF80CC09DF808E041704FEA8C1C83
:1098B00003F00F040CF0400C4CEA0403002443EACC
:1098C000CE13A1420370847024DD00F1030C531CFD
:1098D000ACEB0303022B1FD94B1E072B1CD921F025
:1098E00003041346144453F804EB4CF804EBA3426E
:1098F000F9D18C0721F003030CD01844D45CC47058
:109900005C1CA14206DD0233145D0471994201DD45
:10991000D35C4371C81C10BD531E02305C1813F891
:10992000012F00F8012FA342F9D1C81C10BD00BFC0
:10993000F8B5254C254E0225C4F8805001F08EF96B
:10994000FEF72EFDFEF732FD2148FEF723FD002035
:1099500001F042FD1F4B204801210322C3F8FC1FE8
:10996000C3F810251D4AC3F814251D4AC3F818254D
:109970001C4AC3F81C258E22C3F8242540F2031785
:109980000022C3F82C25C3F83015C3F83475962788
:10999000C3F8447540F25B67C3F83875C3F83C659B
:1099A0000426C3F80C654FF6FF76C3F81021C3F800
:1099B0000C21C3F808630A26C3F8046384F8012362
:1099C00025600160F8BD00BF00E100E0555555007D
:1099D0006DAB000000100040DC14002008011000F6
:1099E000FA00030200D6BE8970B59E4C9E4B9F487C
:1099F00094F822109E4D00221A70C3F89420A3F808
:109A000098201723036011F00103027118BF9948D1
:109A100084F83C2084F82920A2632A7016BF0270C3
:109A20001A460122880704D592480122C2541344E1
:109A3000DBB24E0705D58F480222C2540133DBB298
:109A40000122080705D58B480322C2540133DBB23B
:109A50000122CE0605D587480422C2540133DBB269
:109A60000122880605D583480522C2540133DBB2A2
:109A700001224E0605D57F480622C2540133DBB2CF
:109A80000122C90905D07B480722C2540133DBB249
:109A9000012294F82310C80705D576480822C2543D
:109AA0000133DBB201228E0705D572480922C25468
:109AB0000133DBB20122480705D56E480A22C254A1
:109AC0000133DBB201220E0705D56A480B22C254CE
:109AD0000133DBB20122C80605D566480C22C25408
