:1040000000600020CDBF0000F5BF0000F7BF00003A
:10401000F9BF0000FBBF0000FDBF00000000000072
:10402000000000000000000000000000FFBF0000D2
:1040300001C000000000000003C0000005C0000037
:1040400007C00000DD7A000007C00000A55C00008A
:1040500007C000000000000007C0000089580000F1
:1040600007C0000007C00000257F000007C0000057
:1040700007C0000007C0000007C0000007C0000024
:1040800007C00000854E000007C0000007C0000008
:1040900007C0000007C0000007C0000007C0000004
:1040A00007C0000007C00000000000000000000082
:1040B0009956000007C0000000000000000000004A
:1040C00000000000000000000000000000000000F0
:1040D00000000000000000000000000000000000E0
:1040E00000000000000000000000000000000000D0
:1040F00000000000000000000000000000000000C0
:1041000000000000000000000000000000000000AF
:10411000000000000000000000000000000000009F
:10412000000000000000000000000000000000008F
:10413000000000000000000000000000000000007F
:10414000000000000000000000000000000000006F
:10415000000000000000000000000000000000005F
:10416000000000000000000000000000000000004F
:10417000000000000000000000000000000000003F
:10418000000000000000000000000000000000002F
:10419000000000000000000000000000000000001F
:1041A000000000000000000000000000000000000F
:1041B00000000000000000000000000000000000FF
:1041C00000000000000000000000000000000000EF
:1041D00000000000000000000000000000000000DF
:1041E00000000000000000000000000000000000CF
:1041F00000000000000000000000000000000000BF
:1042000010B5054C237833B9044B13B10448AFF310
:1042100000800123237010BDD400002000000000A6
:10422000D0DA000008B5034B1BB103490348AFF3D4
:10423000008008BD00000000D8000020D0DA000097
:10424000154B002B08BF134B9D46A3F5803A002168
:104250008B460F461348144A121A07F0BDFF0F4B46
:10426000002B00D098470E4B002B00D09847002021
:10427000002104000D000D48002802D00C48AFF3C7
:10428000008007F085FF2000290001F033F807F0D7
:104290006BFF00BF0000080000600020000000006D
:1042A00000000000D4000020041E002000000000D8
:1042B00000000000000000002DE9F04FB9B0B24B43
:1042C000069307ABDFF8F8B205932EE13E60AF4BE3
:1042D000DBF80000196809F0DBF8074608F068FD14
:1042E000A3A3D3E9002304460D4609F049F80028AA
:1042F00040F08881CBF80070304602F09FFAA44B62
:104300000546186802F000FB8046DBF8000002F06A
:1043100095FA8146DBF8000002F0F6FA9D4B079013
:10432000186808F045FD94A3D3E9002308F098FD30
:1043300009F058F8069A32F902AF06920446504640
:1043400008F024FD944ACDE90201106808F030FD20
:1043500089A3D3E9002308F083FD09F043F808F0AE
:1043600027FD064628460F4608F022FD84A3D3E920
:10437000002308F075FDDDE9022308F071FD0B460E
:1043800002463946304608F0B5FB09F02BF8824A60
:1043900005461060404608F00BFD79A3D3E90023E1
:1043A00008F05EFDDDE9022308F05AFD06462046CE
:1043B0000F4608F0FDFC02460B463046394608F031
:1043C00099FB09F00FF8734B1860744B044618689A
:1043D00008F0EEFC68A3D3E9002308F041FD09F0E2
:1043E00001F86F4A8046106808F0E2FC62A3D3E946
:1043F000002308F035FD08F0F5FF08F0D9FC06466B
:1044000048460F4608F0D4FC5DA3D3E9002308F02A
:1044100027FDDDE9022308F023FD02460B46304666
:10442000394608F067FB08F0DDFF5D49814608600A
:10443000079808F0BDFC52A3D3E9002308F010FD53
:10444000DDE9022308F00CFD064640460F4608F061
:10445000AFFC02460B463046394608F04BFB08F0ED
:10446000C1FF4E4B064618602946284609F018F948
:1044700021460546204609F013F90146284609F071
:1044800007F849460446484609F00AF93146054608
:10449000304609F005F90146284608F0F9FF0146C3
:1044A000204609F0B9FA002800F08C803D4B3E49C7
:1044B0001C783E4B18683E4B43F824A009F0F0F8F6
:1044C00008F076FC2EA3D3E9002306460F46DDE96B
:1044D000020108F0C5FC0B4602463946304608F09A
:1044E00009FB08F07FFFA4F10B03304A1060314A4A
:1044F00015782F4A002BB8BF5B1952F823002E4BBA
:10450000504443F8240009F077F8059B013443F840
:10451000040FE4B2AC420593224B26BF00221A706E
:104520001C70059B0FAA9A4278D0244B184F19682B
:10453000386808F0ADFF064608F03AFC0CA3D3E952
:10454000002304460D4608F01BFF00283FF4BEAED2
:1045500007A3D3E900232046294608F0C9FA08F04A
:1045600041FF0B4B06461860B1E600BFAFF3008079
:104570004AD8124DFB211940AE47E17A14AEEF3F05
:104580007B14AE47E17A843F860200201C000020A5
:10459000840100205C0100206001002064010020F3
:1045A00068010020F0000020A4707D3FF40000208E
:1045B000FC05002000000020B403002018000020AB
:1045C00088010020724B73491C78734B1868734B39
:1045D00043F824A009F064F808F0EAFB62A3D3E9E9
:1045E000002306460F46DDE9020108F039FC0B46C0
:1045F00002463946304608F07DFA08F0F3FEA4F191
:10460000090372E75AA3D3E900232046294608F09C
:104610006FFA08F0E7FECBF800006DE628AA18A9AB
:1046200008A8DFF89CA101F017FA28AD18AC56468F
:104630000DF1700954F8041B55F8048B084609F075
:104640002FF841460746404609F02AF80146384609
:1046500008F01EFF01F0F0FFA14546F8040BE9D178
:104660004F4A13780133137003F0CEFB4D4A1368A1
:10467000C31A0A2B6ED91060DAF80C10DAF80800A9
:10468000494C4A4E08F004FF08F092FB3AA3D3E9E4
:10469000002308F0E5FB80462068894608F088FB87
:1046A00037A3D3E9002308F0DBFB08F09BFE08F0FA
:1046B0007FFB02460B464046494608F01BFA08F0CD
:1046C00091FE354B20603A490546186808F0DEFE39
:1046D0003168044608F0DCFE08F06AFB2AA3D3E93F
:1046E000002308F0BDFB08F07DFE0021306020466D
:1046F00009F074F9002833D1264620462D4908F0E8
:10470000CFFF314608F0CCFF2B4908F0C1FE09F07D
:104710008DF90128B8BF012040F2FE3304469C42C7
:104720002846A8BF1C4609F081F94000C8284FEA76
:10473000600213DDA0F1C801FF29A8BFFF21FC23FF
:10474000FF2A0093A8BFFF222346002000F0E2FFCB
:104750001A4B1C60012039B0BDE8F08F0021EEE754
:1047600004F10046C9E700BF7B14AE47E17A843FFD
:104770004AD8124DFB2119409A9999999999B93FB4
:10478000CDCCCCCCCCCCEC3F2B8716D9CEF7EF3FA1
:10479000F0000020A4707D3FF4000020FC05002004
:1047A000F200002070010020500100205401002080
:1047B0000000FA45ACC5A73600002F444401002094
:1047C000040100202DE9F043914A924C1378013303
:1047D000DBB2802B88BF00231370237000254FF0BD
:1047E000805365705B6E8C4A6371190E180CA17052
:1047F0001B0A582187B0E571E0702371A171157013
:1048000001F014F9B0F5FA6F80F2F180834A2B467B
:104810001570834A834D1278237283492B780E7862
:10482000E672083A48BFD2180021A172511C994281
:10483000A8BF002164206072481C9842A8BF0020D5
:10484000451C9D42A8BF00256E1CB342D8BF002660
:1048500006F1010C6345D8BF4FF0000C0CF1010EBE
:104860007345D8BF4FF0000E0EF101084345D8BF85
:104870004FF000086D4B6E4F53F82EE053F8266052
:1048800053F8288053F8211053F8209053F82CC087
:1048900053F8255053F8223084F81B804FEA2E221B
:1048A00022764FEA2828321284F81A8084F819E018
:1048B0004FEA2C284FEA252E84F817C066754FEA78
:1048C000292C0E1222751A1284F812E084F810C0F6
:1048D000E17384F81680E57484F81190A67363730D
:1048E0002273386809F0A2F803B21A127868637765
:1048F000227709F09BF803B21A12B868E377A2771F
:1049000009F094F803B21A12F86884F8213084F898
:10491000202009F08BF805B20DF10A032E1202AA2D
:104920000DF1060101A884F8235084F8226001F0FB
:1049300003FE04AA0DF10E0103A801F033FE0DF1F0
:10494000160205A90DF1120001F03CFEBDF904307C
:10495000BDF90E10BDF91020BDF90670BDF9086053
:10496000BDF90A50BDF90C0084F825301B124FEA3E
:10497000252E4FEA202C4FEA27294FEA262884F8D3
:10498000243084F8277013120F1284F82F1084F843
:10499000312084F8303084F82AE084F82CC084F880
:1049A000296084F82B5084F82E7084F8269084F8BF
:1049B000288084F82D0001F015FE054601F020FE48
:1049C000064601F02BFE371201122A12382384F812
:1049D000336084F8327084F8350084F8341084F839
:1049E000375084F83620637007B0BDE8F08341F299
:1049F00094139842094A02DDFF23137009E7A0F5DA
:104A0000FA630A21B3FBF1F3DBB2137001E700BFD5
:104A10006C010020B00200206D010020F800002091
:104A2000F000002000000020F2000020B40300206D
:104A300004010020F0B59C4B9C4C1B782370002592
:104A40004FF0805365705B6E6371190E1A0C83B062
:104A50001B0AA170E270237100F0E8FFB0F5FA6F55
:104A600080F2D280924A2B461570924DA37128682D
:104A700008F0DCFF03B21A1268682372E27108F0D2
:104A8000D5FF03B21A12A868A372627208F0CEFFB3
:104A900003B21A12E8682373E27208F0C7FF00B28B
:104AA00005120DF1060301AA0DF10201A07368467B
:104AB000657301F041FDBDF900307F4A23741B127C
:104AC000E3737E4B9DF90350127865741D789DF950
:104AD0000710E174083A48BF5219531CAB42A8BFF3
:104AE000002377499DF9050051F8222051F82360F1
:104AF000A074B01A171210F1FF0F62752775C0F27B
:104B00009E80FF2800F388800028C0F2AF80C6B2E4
:104B100000200133AB42A8BF0023A67551F82370D3
:104B2000BE1A16F1FF0FC0F28680FF2E00F39280AE
:104B3000002EC0F29E80F6B20133AB42A8BF002324
:104B4000E67551F82370BE1A16F1FF0F7EDBFF2EBB
:104B500000F38280002EC0F28F80F6B201339D42B6
:104B6000D8BF0023267651F82370BE1A16F1FF0F26
:104B700068DBFF2E76DC002EC0F28180F6B20133B6
:104B80009D42D8BF0023667651F82370BE1A16F1F5
:104B9000FF0F4CDBFF2E63DC002E73DBF6B201331C
:104BA0009D42D8BF0023A67651F82370BE1A16F195
:104BB000FF0F38DBFF2E51DC002E66DBF6B201332F
:104BC000AB42A8BF0023E67651F823108B1A13F1ED
:104BD000FF0F24DBFF2B47DC002B59DBDAB239490E
:104BE0002277202300226370607701F11E051346AF
:104BF00011F8010F0344DBB21A44A942D2B2F7D133
:104C0000A377E27703B0F0BD41F294139842284AAB
:104C100041DDFF23137028E7FF26002079E7FF22FC
:104C200040F00100DBE7FF2640F00200C7E7FF2667
:104C300040F00400B3E7FF2640F020007CE7FF26A9
:104C4000402066E7FF2640F0080098E7FF2640F086
:104C5000100083E7FF266FE7FF267FE7FF26AEE71A
:104C6000FF269CE7FF268AE7FF22B8E7961BF6B2ED
:104C7000E6E7D61BF6B2DFE7D61BF6B2E7E7D61BB0
:104C8000F6B2E0E7D61BF6B2D2E7D61BF6B2CBE718
:104C9000521AD2B2C4E7A0F5FA630A21B3FBF1F3CA
:104CA000DBB21370E1E600BFF2000020B00200208A
:104CB000F800002004010020F00000200000002087
:104CC000B4030020AF0200202DE9F043A5B003F0AB
:104CD0009BF86349634A0B681468C31AA34203D262
:104CE000002025B0BDE8F0835F4C604B247808605D
:104CF00053F8243003F0070302334FF08051136060
:104D00004D6ED422280C290A2C0ED723EDB28DF833
:104D100011408DF812008DF813108DF814508DF895
:104D200010208DF8153000F081FEB0F5FA6F80F29A
:104D30008280DFF84C81002388F80030012410AA1B
:104D40002346049F8DF81C500026D725062106A86F
:104D5000009406978DF81D508DF8406003F086FC96
:104D60004349444D814610A807F03EFA08274946BA
:104D7000034610AA009706A803F078FC3E4B98F86B
:104D800000201B788DF84120814628688DF840303E
:104D900008F04CFE43BA6868ADF8423008F046FEB1
:104DA00043BAA868ADF8443008F040FE43BAE8685A
:104DB000ADF8463008F03AFE0DF10E0345BA03AAED
:104DC0000DEB07000DF10A01ADF8485001F0B4FBFE
:104DD0009DF90B30BDF808508DF84C30FF239DF93C
:104DE0000DC09DF90F70009310AA49460F236DBAAC
:104DF00006A88DF84DC0ADF84A508DF84E7003F0FE
:104E000035FC1E4D0746304603F02AFC022306AA55
:104E10003946CDE900641AA803F06EFC1AA92A6885
:104E200003F0CCFB2B682344272B13DC20462B609C
:104E300025B0BDE8F08341F294139842DFF840803A
:104E4000D7BFA0F5FA63FF230A22B3FBF2F388F879
:104E5000003073E7252320462B6025B0BDE8F083A2
:104E60007401002010000020F0000020B403002096
:104E700090DA000004010020F2000020040000206D
:104E8000F8000020054BD3F8402132B10021012267
:104E9000C3F840119A6040BF5A607047001001404B
:104EA000F0B583B002F074FA002002F0E5FD03F0E3
:104EB00029F80F4B0F4F104E0022C3F8FC2F022091
:104EC00003F064F803F060FC0324962500231846E1
:104ED0001946FF22009500F01DFCC7F800664FF44C
:104EE000967003F053F8013CF0D103B0F0BD00BF61
:104EF00000100040000001403546526EF0B585B00C
:104F000002F046FA002002F0B7FD02F0FBFF144B5E
:104F1000144F154E0022C3F8FC2F02F0B3FD02F02F
:104F2000B7FD032496250023FF221046194600955D
:104F300000F0F0FBC7F800664FF4967003F026F817
:104F4000013CF0D120230293CDE9004423462246C0
:104F50004FF47A71532002F043FA05B0F0BD00BF60
:104F600000100040000001403546526EF0B583B09D
:104F700002F00EFA002002F07FFD02F0C3FF134B97
:104F8000134F144E0022C3F8FC2F02F07BFD02F0F9
:104F90007FFD03249625002318461A46FF2100951D
:104FA00000F0B8FBC7F800664FF4967002F0EEFF11
:104FB000013CF0D123464FF4FA624FF47A71152088
:104FC00003B0BDE8F04002F0F5BF00BF00100040A4
:104FD000000001403546526E2DE9F0414E4D2C78CF
:104FE000022C84B03AD024B1012C67D004B0BDE8C3
:104FF000F08101232B7002F0CBF9204602F03CFD3A
:1050000002F080FF454BDFF82881C3F8FC4F0220F7
:1050100002F0BCFF03F0B8FB414F032496260023A7
:1050200018461946FF22009600F074FBC8F8007677
:105030004FF4967002F0AAFF013CF0D1394B28786A
:105040001A78394960F3020201201A70087002F0E0
:10505000DBFE364B186004B0BDE8F08100242C70F4
:1050600002F096F9204602F007FD02F04BFF2B4BB1
:10507000DFF8BC80C3F8FC4F02F004FD02F008FD2D
:10508000274F032496260023FF2210461946009638
:1050900000F040FBC8F800764FF4967002F076FFFF
:1050A000013CF0D120230293CDE90044234622465F
:1050B0004FF47A71532002F093F9BFE702232B706B
:1050C00002F066F9002002F0D7FC02F01BFF134B40
:1050D000DFF85C80124F0022C3F8FC2F02F0D2FCF4
:1050E00002F0D6FC03249626002318461A46FF2118
:1050F000009600F00FFBC8F800764FF4967002F0AF
:1051000045FF013CF0D123464FF4FA624FF47A7127
:10511000152002F04FFF91E77801002000100040B9
:105120003546526E84020020480100204C010020C8
:10513000000001402DE9F04184B002F065FE614BB2
:1051400004464FF0A0401B78D0F81025012101FA49
:1051500003F313400ED05C4B1A784ABB5B4A1970BC
:105160001460DFF8748198F80030002B4ED104B041
:10517000BDE8F081544A1578002DF2D0534D1370DC
:105180002A68A21A192AECD9B2F57A7F80F08E80AB
:105190004F490A68A21AB2F5C87F4E4A02D2137864
:1051A0000133DBB24C48137001230C600370DEE75F
:1051B000464D2B68E21A1A3A40F2CD318A4209D89C
:1051C0001E230021009308464FF0FF33FF2200F01A
:1051D000A1FA2B686FF47A72A218D21A40F69E7167
:1051E0008A4252D9E31A41F288329342B9D91E2336
:1051F000FF22DFF8E480009310464FF0FF330021D8
:1052000000F088FA98F80030002BB0D0304B1B68C3
:10521000E41AB4F5FA7FAAD92E4B1B78092B2CD9A6
:105220000DF10F020DF10E010DF10D0000F060FE09
:105230002A4B9DF80D102A4A9DF80E4059709DF892
:105240000F009C700121D870117002F0DDFD254B1C
:10525000254F264E1860142496250023FF2108466A
:105260001A46009500F056FAC7F800664FF496709B
:1052700002F08CFE013CF0D101E0FFF7ADFE00230F
:1052800088F8003004B0BDE8F08100221E230093AE
:1052900011464FF0FF33FF2000F03CFA2B6841F23B
:1052A0008832E31A93427FF65CAFA0E741F287337E
:1052B0009A423FF656AF0E4B1B789940C0F80C153A
:1052C0004FE700BF1400002000010020FC00002078
:1052D0007C010020010100208001002084020020C8
:1052E000480100204C010020000001403546526E6C
:1052F000150000202DE9F04FB94BBA491B78BA4C84
:1053000001224FF0A04002FA03F3C0F818354FF025
:105310001025C0F808354FF40043C1F804350A6081
:105320000021C5F80C1224784FF0804304F5E07496
:1053300087B040F824101F46C3F800111A60D7F850
:105340000031002BFBD0A74CA84D02F001FD1A2321
:10535000062207210820C4F8005600F0A9F91122FE
:10536000C4F80056102300920D210F220E2001F0E8
:10537000B3F8FA26002301221946C7F87825FF2042
:105380001A46009600F0C6F94FF49670C4F800561D
:1053900002F0FCFD00231A461846FF21009600F09B
:1053A000B9F94FF49670C4F8005602F0EFFD0023EF
:1053B00018461946FF22009600F0ACF94FF496709B
:1053C000C4F8005602F0E2FDC4F8005601F052FFA6
:1053D000874A00F00703012B10600DD0844A854EE8
:1053E0005078002B40F04B81FF28337040F03B8118
:1053F000FFF784FD337808E050787E4EFF28337045
:1054000040F031813378002BF2D0012B00F026815F
:1054100000F0F8F9784B794FDFF8FCB1DFF8FC9138
:10542000774CDFF8FCA1DFF8FC81012100224FF06E
:1054300080501960C3F80022C3F80415406E04922E
:1054400002F0D4FD0A2305933378664A6749C2F80F
:105450000016022B00F09C8002F0D6FC3B7805463B
:1054600033B1DBF8003042F21072C31A93422AD8EB
:10547000FFF760FE00F0A2FA002830D161494046F3
:1054800000F0A2FA002832D13378022B7AD0002B18
:1054900040F0828022782AB1049A0599AA1A8A4299
:1054A00000F2C2804F4B514AC3F8002602F0ACFC18
:1054B0003B780546002BDBD0DBF8003042F210725F
:1054C000C31A9342D4D94A4B186801F0F3FE002363
:1054D0003B70FFF72FFE00F071FA0028CED000F0ED
:1054E000CBFF4849404600F06FFA0028CCD0FEF7C9
:1054F000E3FE0028C8D0227899F800301D2A98BF12
:10550000013203F1010398BF227089F8003000F0E6
:105510008DFA08F06DF83C4B3C4A03901060186817
:1055200008F06AF8039B0146184608F057FA00286D
:1055300040D0DAF800300133642BCAF80030A3DD24
:1055400002F040FC4FF0804100220123C1F81825F1
:105550008B600A46D2F80431002BFBD02C4A012381
:1055600000204B60C2F80005022002F00FFD1C4B2A
:1055700019784FF0A04201238B40C2F80C353378E4
:10558000022B84D12378C3B9164B184AC3F80026DE
:1055900003F00AF860E70495012B7FF456AF2378F7
:1055A000002B3FF47FAFFFF78FFB08B10023237080
:1055B00033784AE7CAF8000066E7FFF703F9154BAE
:1055C0005978184602F018FD337800222270002B1B
:1055D000E1D1044B054AC3F8002604953CE700BF1F
:1055E0001500002000000140140000203546526ED6
:1055F000840200207801002000D0004048010020F3
:105600008C010020BC050020080000200C000020B8
:1056100000300040B00200204C010020F1000020CA
:1056200058010020880200200393FFF703FA174B6C
:105630005978184602F0CCF8154A039B2370D2F82B
:10564000001141B1D2F80815C2F8003101F007038A
:1056500006330593136804953378F6E6FFF720FCCC
:10566000D6E6FF2804D00B4BDA78997800F0CAFC14
:105670003378022B7FF4C6AEFFF778FCC2E6022B2C
:10568000EFD1FF283370F7D0EDE700BFB002002064
:1056900000D0004084020020044BD3F8042122B142
:1056A0000022C3F80025C3F80421704700C0014060
:1056B000DFF85CC0F0B40124CDB2C7B28CF80110A1
:1056C0008CF8033004FA07F704FA05F5D1B2DBB21F
:1056D0008CF802200D4E8CF800004FF0A04204FA26
:1056E00001F19C4047EA05030B43C6E90075C6E992
:1056F0000214C2F818753361C2F81855C2F81815AB
:10570000C2F81845C2F80835F0BC704704080020FC
:1057100018080020F0B40028049D67DB00FB00F0AF
:10572000801140F2FF36324CB042A8BF30462060B4
:10573000002908DB01FB01F1891140F2FF308142B1
:10574000A8BF01466160002A08DB02FB02F2921149
:1057500040F2FF318A42A8BF0A46A260002BA8BFD0
:10576000E360244BD3F8002512B10022C3F80025D2
:105770002149204B0A78C3F860252048204A276831
:105780004E781780C0F8606567688E785780C0F8DB
:105790006465C978A768C0F86815E168D1800024FD
:1057A00001204FF4806197800226C3F800052D0187
:1057B000C3F804450827C3F8081540F2FF31C3F8C1
:1057C0000C451181C3F810655181C3F814459181CE
:1057D000C3F82025D181C3F82475C3F82855C3F830
:1057E00000639860C3F80002F0BC7047004C9FE76C
:1057F0002000002000C001401808002004C0014023
:105800001C080020F0B41A4B1A4D1B481B4A0021FB
:1058100001240526C3F80045C3F81065C3F8141524
:105820002E6830400243164E2A600A204FF0030CC7
:105830000727C3F81825134DC3F8F0C50822C3F88D
:10584000F475C3F8F815C3F800038020C3F82C568C
:10585000C3F8302630601A46C3F800111C60D2F835
:105860000031002BFBD001235360F0BC704700BF18
:10587000007000406C080020CCE8E8FE1000010138
:1058800000E100E04C080020444BD3F80C211AB191
:10589000D3F80421002A61D0404BD3F80421002A18
:1058A00065D0F0B500213E48C3F80411C3F80C11CF
:1058B000027802F0FF071AB33A4C3B4D0170268A7A
:1058C0003A4A2E800520C3F810059578012060F330
:1058D000020595701268C3F8182508250722C3F839
:1058E000F425C3F82C461A46C3F83056C3F8001105
:1058F0001860D2F80031002BFBD001235360F0BDBB
:10590000284A2B492B4D16682B4C0E6001262E7011
:105910002568D2F804C0C1F804C035442560256864
:10592000D2F808E0D2F80CC0C1F808E0B5F57A7FEB
:10593000C1F80CC01CDC0821C3F82C26C3F83016B3
:10594000164B00220121C3F800211A461960D2F833
:105950000031002BFBD001235360F0BD0121C3F8BF
:105960000C2159600D4BD3F80421002A99D17047BE
:105970000E49276006250670C3F810558878042460
:1059800064F3020088700968C3F818151032C3F870
:10599000F475C3F82C26C3F83066D1E700700040D8
:1059A000950100204C0800208E0100206C0800208A
:1059B0002C0800209401002090010020014B187851
:1059C000704700BF9401002016490A7802F0FF03D7
:1059D00092B1154B021D9A4202D91A1D90420DD365
:1059E0001A6802605A6842609A688260DB68C36025
:1059F00000230B7008207047184670471A880280F1
:105A00005A8842809A888280DA88C2801A89028104
:105A10005A8942819A898281DB89C38100230B7074
:105A200008207047940100202C08002008B5084A7F
:105A300013889BB243B1108807F0DEFD054907F0DB
:105A40002FFE07F0F3FF08BD4FF4616008BD00BFF3
:105A50008E01002005C0283F2DE9F04FD0F81080BE
:105A600007688BB00D46064641463846144607F097
:105A70000FFD41468246384607F008FDB768D6F864
:105A8000188081464146384607F002FD414683466C
:105A9000384607F0FBFC7369D6F80480029307468A
:105AA0001946404607F0F4FC029B01901946404617
:105AB00007F0ECFCD6F80C80F669039031464046BE
:105AC00007F0E6FC31460290404607F0DFFC5946FD
:105AD0000646504607F0DCFC0199069007F0D8FC1A
:105AE000029907F0D5FC002128602160384607F0B4
:105AF000D7FD4946089007F0CBFC002104903046C2
:105B000007F0CEFD0399079007F0C2FC464907F065
:105B1000C7FD454905968046304607F0C1FD414620
:105B20000646049807F0B4FC314607F0AFFC39464E
:105B30006860304607F0ACFC414607F0A9FC5946C6
:105B40006060504607F0A2FC02998346019807F076
:105B50009DFC0021824607F0A3FD014609905846AE
:105B600007F096FC089AA8601146C4F808A04846B9
:105B7000CDF820A007F08AFC07998246039807F029
:105B800085FC2A49814607F08BFD514607F080FCD1
:105B9000314607F07DFC2449E860484607F080FD67
:105BA00039468146304607F071FC494607F070FCE3
:105BB0000199E060069807F069FC029907F066FC1D
:105BC0000023286141462361049807F05FFC3146B9
:105BD00007F05EFC31466861384607F057FC4146E5
:105BE00007F054FC099B60611946584607F04EFCCB
:105BF000089BA86103F10043A3614946504607F0A2
:105C000047FC314607F042FC0849E861059807F077
:105C100047FD394607F03AFC494607F037FCE0619A
:105C20000BB0BDE8F08F00BFF304353FF30435BF80
:105C3000184B70B4C3F80805C3F80C154FF00041B9
:105C4000C3F81025144CC3F8241500221021134E5C
:105C5000134DC3F840250720C3F83465C3F8381541
:105C60004FF0FF36C3F85025C3F84455C3F8481524
:105C700040250821C3F80022C3F80863C3F8045381
:105C8000C3F85425C3F8000584F80323216070BCD1
:105C9000704700BF0030004000E100E090080020A5
:105CA0007008002010B50C4BD3F818313BB10B4BEA
:105CB0001A7822B10A4A0021126819709047094BDC
:105CC0000549094A1C684FF0A0400023C0F8084568
:105CD000C1F81831137010BD003000409C01002045
:105CE000A00100209801002096010020F0B4114C82
:105CF000237803F0FF05002BFAD1DFF848C00E4BE4
:105D0000CCF800204FF0A04C0C4E0D4FC3F834756A
:105D1000C3F844650227CCF80C250122307071705D
:105D2000C3F84875C3F85055C3F8382522701A6176
:105D3000F0BC704796010020003000407008002041
:105D40009008002098010020F0B4114A137803F065
:105D5000FF04002BFAD10F4B0F4D104E104F29604E
:105D60004FF0A04CC3F834750125C3F84465CCF856
:105D70000C15022130707470C3F84855C3F83815FB
:105D800015701D611378002BFCD17878F0BC70473A
:105D9000960100200030004098010020700800208B
:105DA000900800202DE9F041DDF818C0134D2C7843
:105DB00004F0FF06002CFAD1114CDFF84C80C4F837
:105DC00034354FF0A0430F4FC4F84475C8F800C0F5
:105DD000C3F80CC5DFF834C0DFF834E038700123B5
:105DE00001317E70C4F84835C4F838152B70236132
:105DF000CCF800208EF80030BDE8F081960100203C
:105E0000003000407008002098010020A001002010
:105E10009C01002070B5324D324CAB78687800EBB5
:105E2000032000B207F0E8FB2A79EB78A6686065EA
:105E300003EB02231BB21846E38607F0DDFB314675
:105E400007F02EFCAA796B79A06103EB02231BB249
:105E50001846238707F0D0FB314607F021FC2A7A49
:105E6000EB79E06103EB02231BB21846638707F06E
:105E7000C3FB314607F014FCAA7A6B7A666820628D
:105E800003EB02231BB21846238607F0B5FB31460D
:105E900007F006FC2A7BEB7AE06003EB02231BB2DF
:105EA0001846638607F0A8FB314607F0F9FBAA7B8A
:105EB0006B7B206103EB02231BB21846A38607F01D
:105EC0009BFB314607F0ECFB236C074D074A6061F2
:105ED00001330020012123642870117070BD00BFC0
:105EE00034090020B0080020A4010020AD010020EA
:105EF00070B5414B0646186814460D4607F096FDEE
:105F00000028B4BFC21C02469210FF28134606DDCB
:105F1000B2F1400348BFA2F13D039B10403313F19F
:105F20003F0F0EDA13F1400248BF03F14302931012
:105F3000403B6FF07E029342B8BF13467F33DBB223
:105F400003E07F2BC8BFFE23F3DD2C4A33701068BB
:105F500007F06CFD00280246B8BFC21C9210FF2853
:105F6000134606DDB2F1400348BFA2F13D039B108A
:105F7000403313F13F0F0EDA13F1400248BF03F133
:105F800043029310403B6FF07E029342B8BF13462A
:105F90007F33DBB203E07F2BC8BFFE23F3DD184A5B
:105FA0002B70106807F042FD00280246B8BFC21CE3
:105FB0009210FF28134606DDB2F1400348BFA2F15C
:105FC0003D039B10403313F13F0F0FDA13F14002F2
:105FD00048BF03F143029310403B6FF07E029342AF
:105FE000B8BF13467F33DBB2237070BD7F2BC8BFB1
:105FF000FE23F2DD237070BDB4010020BC0100203F
:10600000C4010020B0F17F032DE9F0410D46144694
:1060100050D43F2B30DC980007F0EEFA0646B5F17D
:106020007F0031D43F2843DDA5F1AF00000107F028
:10603000E3FA0746B4F17F0032D43F2836DDA4F1FD
:10604000AF0004011E4BDFF884809D68304629466E
:1060500007F026FB2946C8F80000384607F020FB69
:10606000184B194E1860204607F0C6FA294607F06B
:1060700017FB3060BDE8F081AF38000107F0BCFAD3
:106080000646B5F17F00CDD510F13F0F10DAA5F12E
:106090004F00000107F0B0FA0746B4F17F00CCD5FD
:1060A00010F13F0F02DA4F3C2401CBE78400C9E72F
:1060B0008000BCE713F13F0FADDA4F380001ABE7CA
:1060C000B0080020B8010020C0010020B00100206D
:1060D0002DE9F04FA5B001F089FEBB4E07463068B0
:1060E0004CF25033381A984200F2A981B0F57A7F09
:1060F000C0F0A28107F07CFA06F05AFEAAA3D3E909
:10610000002306F0ADFE07F06DF9B04A137805469E
:10611000002B00F09A81AE4C376001F075FE42F220
:106120000F73984200F29080DFF8C492B4F93660A1
:10613000D9F8008000960021404607F045FC18B1D0
:10614000304607F059FA8046DFF8A8A2B4F9386063
:10615000DAF8007003960021384607F035FC18B1D4
:10616000304607F049FA0746DFF88CB2B4F93A3006
:10617000DBF8006002930021304607F025FC18B1DF
:10618000029807F039FA0646009806F0FFFD88A34A
:10619000D3E9002306F064FECDE90001404606F095
:1061A00007FE85A3D3E9002306F05AFE07F01AF98B
:1061B00006F0FEFD02460B46DDE9000106F09AFC02
:1061C00007F010F9C9F80000039806F0DFFD78A386
:1061D000D3E9002306F044FE80463846894606F09F
:1061E000E7FD75A3D3E9002306F03AFE07F0FAF8BD
:1061F00006F0DEFD02460B464046494606F07AFCB4
:1062000007F0F0F8CAF80000029806F0BFFD68A396
:10621000D3E9002306F024FE80463046894606F086
:10622000C7FD65A3D3E9002306F01AFE07F0DAF8EC
:1062300006F0BEFD02460B464046494606F05AFCB3
:1062400007F0D0F8CBF80000624BA069196807F09E
:106250001DF9614B10901968E06907F017F95F4B61
:1062600007461968206A119707F010F9294612901D
:10627000384607F015FA616A07F00AF906F098FD4A
:106280004FA3D3E9002306F0EBFD07F0ABF8E1687C
:1062900022696369606204A804910592069300F084
:1062A000D7FC1099129B119A079104A807A909938A
:1062B000089200F0C5FF294607F0F2F90146A06AEE
:1062C00007F0E6F81099A062084607F0E9F9DDF852
:1062D0004480129F04464146404607F0E1F90146DA
:1062E000204607F0D5F839460446384607F0D8F975
:1062F0000146204607F0CCF800F09EF9294607F049
:10630000CFF94FF07C5107F0CBF9054600F096FA33
:106310000446284600F0F8FA0026054610A8139611
:1063200000F05EFB2146109807F0BAF92146109064
:10633000119807F0B5F921461190129807F0B0F9BD
:1063400014AA10A912902648139500F0BBFD14A8BA
:1063500000F046FB14A9224800F0AAFD214B20487A
:106360000C9318A90A960B9600F092FD0AA918A89A
:1063700000F030FE01F048FD41F2873398420DAA4B
:1063800004A90AA894BF184C184C00F029FF0D98D6
:106390004FF07E53214600F100401F9307F080F933
:1063A0002CE000BFAFF300808DEDB5A0F7C6B03E86
:1063B0007B14AE47E17A843FAE47E17A14AEEF3FFB
:1063C0001EA7E8482EFFEF3FA8010020AC010020E7
:1063D000B0080020B0010020B8010020C00100205A
:1063E00024090020000080BF0AD7233C17B7D1380A
:1063F000B4010020BC010020C40100200E9B1C90B1
:10640000214603F1004007F04BF90F9B1D902146F8
:1064100003F1004007F044F91E901CA800F0E0FAD8
:106420001CA920AA104800F04DFD0F4820A900F03B
:106430003FFD0D4800F0D4FA25B0BDE8F08F0B4ABF
:106440000B4D1378002B7FF466AE0749094C4FF0D3
:106450007E53CB6000230B604B608B600121636235
:10646000A362E362117057E624090020AC0100200A
:10647000CDCC4C3DB008002030B5124C237883B011
:10648000D3B9114C237813B1002003B030BD0F4DA8
:106490009E202968FFF758FC00F003000328F3D181
:1064A0002B6800930A4A0B4B0E21A020FFF77AFCC1
:1064B0000120207003B030BDFFF70AFE00232370D7
:1064C000DFE700BFAD010020A4010020B0080020DC
:1064D000155E000034090020F8B5144C01254FF07A
:1064E000A04605FA03F31746C6F818350A46236096
:1064F0000146C6F80835384600232364FFF798FBA9
:106500000B490C4B2268616028462946A360FFF7BF
:10651000EDFB226860211020FFF7E8FB2268642170
:106520001120BDE8F840FFF7E1BB00BFB008002034
:10653000CDCC1C3AA721A0392DE9F041174C80465B
:10654000E06816461D460F4606F032FC0022144B4A
:1065500006F086FC06F01EFFA8F80000206806F092
:1065600027FC00220E4B06F07BFC06F013FF388060
:10657000606806F01DFC0022094B06F071FC06F075
:1065800009FF3080A06806F013FC0022044B06F0DF
:1065900067FC06F0FFFE2880BDE8F081240900209A
:1065A0000040DF4010B4064BB3F930400480B3F92B
:1065B00032000880B3F93430138010BC704700BF3C
:1065C000B008002010B4064BB3F936400480B3F98C
:1065D00038000880B3F93A30138010BC704700BF10
:1065E000B008002008B5044B0449586A07F058F871
:1065F00007F01CFA00B208BDB008002000007A4481
:1066000008B5044B0449986A07F04AF807F00EFAF7
:1066100000B208BDB008002000007A4408B5044B61
:106620000449D86A07F03CF807F000FA00B208BD48
:10663000B008002000007A442DE9F84F00210446FC
:1066400007F0CCF9002840F0D5800021204607F063
:10665000BBF9002840F0CB807549204607F0DCF9F3
:10666000002800F0CA800FF2B819D9E900894FF06C
:106670007E55DFF8C4A16E4F012602E00136152ECB
:1066800049D0204606F094FB42464B4606F0E8FB14
:1066900006F0A8FE51460446284607F001F83946A0
:1066A0000546204607F0B8F90028E7D1204606F055
:1066B0007FFB5BA3D3E9002306F044FE58B3142EFE
:1066C00006F1010A27D0DFF868B10FF25C19D9E9A9
:1066D000008953A7D7E9006703E0BAF1130F1AD86E
:1066E0009A462046594606F0DBFF0446284606F047
:1066F0005FFB42464B4606F0B3FB06F073FE0546D1
:10670000204606F055FB3B46324606F01BFE0AF1DA
:1067100001030028E1D128464FF07C5106F0C0FF6C
:1067200007464FF07E51204606F0B2FE4FF07C51F6
:1067300006F0B6FF06460146204607F065F83146EA
:10674000044606F0A5FE4FF07C5106F0A9FF054671
:106750000146304607F058F8214606F0A1FF2946C9
:10676000064606F095FE4FF07C5106F099FF044670
:106770000146284607F048F8314606F091FF2146C9
:10678000064606F085FE4FF07C5106F089FF05466F
:106790000146204607F038F8314606F081FF2946C9
:1067A000064606F075FE4FF07C5106F079FF044670
:1067B0000146284607F028F8314606F071FF2146C9
:1067C000064606F065FE4FF07C5106F069FF05466F
:1067D0000146204607F018F8314606F061FF2946C9
:1067E00006F056FE394606F05BFFBDE8F88F002044
:1067F000BDE8F88F0F48BDE8F88F204606F0D8FABC
:1068000007A3D3E9002306F09DFD4FF07C57002835
:1068100087D04FF07E554FF0010A54E7AFF3008068
:106820007B14AE47E17A843F9A9999999999B93F37
:106830000000C842000080BF0000204170B52C4914
:10684000044607F0CBF858B12A4E294D2046314670
:1068500006F01EFE2946044607F0C0F80028F5D1D0
:106860002549204607F0D8F858B1224E224D20463F
:10687000314606F00BFE2946044607F0CDF8002805
:10688000F5D11E49204606F00BFF1D49054620465E
:1068900006F006FF214606F003FF002106462046CB
:1068A00007F09CF83146A8B9284606F0EFFD002114
:1068B000044607F093F8B0B92146204606F0F0FEF2
:1068C000214606F0E3FD0F4906F0EAFE214606F0F8
:1068D000DFFD70BD284606F0DBFD0021044607F011
:1068E0007DF80028E8D004F100402146E6E700BF2B
:1068F000DB0F49C0DB0FC940DB0F494083F9A23FE2
:106900007B81CF3E6666663E70B52E4906F0C0FDBF
:106910002D49044607F062F858B12C4E2A4D204606
:10692000314606F0B5FD2946044607F057F8002821
:10693000F5D12749204607F06FF858B1234E244D72
:106940002046314606F0A2FD2946044607F064F8C9
:106950000028F5D11F49204606F0A2FE1E49054633
:10696000204606F09DFE214606F09AFE00210646CE
:10697000204607F033F83146B0B9284606F086FDC8
:106980000021044607F02AF8B8B92146204606F04F
:1069900087FE214606F07AFD104906F081FE014689
:1069A000204606F075FD70BD284606F071FD0021F9
:1069B000044607F013F80028E7D004F10040214610
:1069C000E5E700BFDB0FC93FDB0F49C0DB0FC94064
:1069D000DB0F494083F9A23F7B81CF3E6666663E6E
:1069E0002DE9F04FD0F800B04368D0F80880D0F817
:1069F0000C9083B05946054658461E46019306F052
:106A00004FFE31460446304606F04AFE0146204617
:106A100006F03EFD41460446404606F041FE014672
:106A2000204606F035FD49460446484606F038FE45
:106A30000146204606F02CFD0021044606F0CEFF5C
:106A4000002840F0E4800021204606F0BDFF002829
:106A500040F0DD807C49204606F0DEFF002800F093
:106A6000D9804FF07E56DFF8E0A1012702E0013720
:106A7000152F44D0204606F09BF96FA3D3E90023DD
:106A800006F0EEF906F0AEFC70490446304606F01A
:106A900007FE51460646204606F0BEFF0028E6D116
:106AA000204606F085F964A3D3E9002306F04AFCEA
:106AB00028B3142F07F1010A21D0634F03E0BAF184
:106AC000130F1CD89A462046394606F0E9FD0446C5
:106AD000304606F06DF95AA3D3E9002306F0C0F959
:106AE00006F080FC0646204606F062F952A3D3E980
:106AF000002306F027FC0AF101030028DFD130460D
:106B00004FF07C5106F0CCFD06464FF07E512046FA
:106B100006F0BEFC4FF07C5106F0C2FD82460146F5
:106B2000204606F071FE5146044606F0B1FC4FF0D7
:106B30007C5106F0B5FD07460146504606F064FE5E
:106B4000214606F0ADFD3946824606F0A1FC4FF025
:106B50007C5106F0A5FD04460146384606F054FE79
:106B6000514606F09DFD2146824606F091FC4FF00D
:106B70007C5106F095FD07460146204606F044FE8E
:106B8000514606F08DFD3946824606F081FC4FF0F5
:106B90007C5106F085FD04460146384606F034FE79
:106BA000514606F07DFD2146824606F071FC4FF00D
:106BB0007C5106F075FD01460746204606F024FE8E
:106BC000514606F06DFD394606F062FC314606F08E
:106BD00067FD0021044606F01FFFC0B121464FF0BB
:106BE0007E5006F011FE5946044606F059FD019903
:106BF0002860204606F054FD41466860204606F0B5
:106C00004FFD4946A860204606F04AFDE86003B003
:106C1000BDE8F08F204606F0CBF807A3D3E90023A8
:106C200006F090FB4FF07C5600283FF46EAF4FF01B
:106C30007E564FF0010A40E77B14AE47E17A843F6D
:106C40009A9999999999B93F0000C842000020414A
:106C50002DE9F84FD0F800B0D0F80480D0F80890B3
:106C600059460546584606F01BFD41460446404637
:106C700006F016FD0146204606F00AFC4946044689
:106C8000484606F00DFD0146204606F001FC0021B5
:106C9000044606F099FE002840F0D8807A49204644
:106CA00006F0BAFE002800F0D3804FF07E56DFF8E1
:106CB000D8A1012702E00137152F44D0204606F065
:106CC00077F86DA3D3E9002306F0CAF806F08AFB33
:106CD0006E490446304606F0E3FC5146064620461F
:106CE00006F09AFE0028E6D1204606F061F862A37D
:106CF000D3E9002306F026FB28B3142F07F1010A7D
:106D000021D0614F03E0BAF1130F1CD89A462046F8
:106D1000394606F0C5FC0446304606F049F858A34B
:106D2000D3E9002306F09CF806F05CFB06462046FB
:106D300006F03EF850A3D3E9002306F003FB0AF166
:106D400001030028DFD130464FF07C5106F0A8FC4B
:106D500007464FF07E51204606F09AFB4FF07C51DB
:106D600006F09EFC82460146204606F04DFD514647
:106D7000044606F08DFB4FF07C5106F091FC064670
:106D80000146504606F040FD214606F089FC31469A
:106D9000824606F07DFB4FF07C5106F081FC0446F4
:106DA0000146304606F030FD514606F079FC21469A
:106DB000824606F06DFB4FF07C5106F071FC0646F2
:106DC0000146204606F020FD514606F069FC31469A
:106DD000824606F05DFB4FF07C5106F061FC0446F4
:106DE0000146304606F010FD514606F059FC21469A
:106DF000824606F04DFB4FF07C5106F051FC0146F7
:106E00000646204606F000FD514606F049FC314694
:106E100006F03EFB394606F043FC0021044606F02E
:106E2000FBFD98B121464FF07E5006F0EDFC59462F
:106E3000044606F035FC41462860204606F030FC4A
:106E400049466860204606F02BFCA860BDE8F88F34
:106E5000204605F0ADFF08A3D3E9002306F072FA3F
:106E60004FF07C5700283FF474AF4FF07E564FF040
:106E7000010A46E7AFF300807B14AE47E17A843F16
:106E80009A9999999999B93F0000C8420000204108
:106E9000036803F100430B60436803F100434B6058
:106EA000836803F100438B60C368CB60704700BF09
:106EB0000B6803604B6843608B688360CB68C3607A
:106EC000704700BF2DE9F04104460D46C068C9680F
:106ED000164606F0E5FB29680746206806F0E0FB49
:106EE00069688046606806F0DBFB0146404606F0B4
:106EF000CFFAA9688046A06806F0D2FB014640465A
:106F000006F0C6FA0146384606F0C0FAF060296875
:106F1000E06806F0C5FB21680746E86806F0C0FB9C
:106F20000146384606F0B4FAA9680746606806F0DC
:106F3000B7FB0146384606F0ABFA69680746A06819
:106F400006F0AEFB0146384606F0A0FA30606968EC
:106F5000E06806F0A5FB61680746E86806F0A0FB5C
:106F60000146384606F094FA29680746A06806F0FC
:106F700097FB0146384606F08BFAA9680746206859
:106F800006F08EFB0146384606F080FA7060A9686C
:106F9000E06806F085FBA1680746E86806F080FB1C
:106FA0000146384606F074FA69680746206806F01C
:106FB00077FB0146384606F06BFA29680746606899
:106FC00006F06EFB0146384606F060FAB060BDE898
:106FD000F08100BF2DE9F04F87B0C46803680E68E8
:106FE000D0F80490D0F808B004930F4603F10043A2
:106FF00000212046009306F053FB09F1004300995D
:10700000019382463046CDF8149006F049FB7D6826
:107010000199D7F808808146284606F041FB0146D1
:107020004846CDF808B006F033FA0BF1004949465E
:107030008346404606F034FB0146584606F028FADF
:107040000146504606F022FA00210390009806F00F
:1070500027FB21468246304606F022FB0146504679
:1070600006F016FA49468246284606F019FB014604
:10707000504606F00DFADDF804B082465946404607
:1070800006F00EFB0146504606F000FA002182464B
:107090005846CDF804B006F003FB21468346284647
:1070A00006F0FEFA0146584606F0F2F900998346CA
:1070B000404606F0F5FA0146584606F0E9F9494619
:1070C0008346304606F0ECFA0146584606F0DEF9F3
:1070D00000218346484606F0E3FA214681464046B1
:1070E00006F0DEFA0146484606F0D2F901998046DC
:1070F000304606F0D5FA0146404606F0C9F9009937
:107100000646284606F0CCFA0146304606F0BEF99F
:1071100051460546204606F0C3FADDF81080039973
:107120000646404606F0BCFA0146304606F0B0F985
:10713000DDF8149006462946484606F0B1FA0146A5
:10714000304606F0A5F959460646029806F0A8FA18
:107150000146304606F09AF959463860204606F056
:107160009FFA03990646484606F09AFA01463046C9
:1071700006F08EF951460646029806F091FA01464D
:10718000304606F085F929460646404606F088FA5C
:107190000146304606F07AF929467860204606F026
:1071A0007FFA03990446029806F07AFA01462046CF
:1071B00006F06EF959460446404606F071FA01465B
:1071C000204606F065F951460446484606F068FA3E
:1071D0000146204606F05AF9B86007B0BDE8F08FC6
:1071E000F8B504460D4640688968164606F058FA18
:1071F00069680746A06806F053FA0146384606F06B
:1072000045F930602968A06806F04AFAA96807467F
:10721000206806F045FA0146384606F037F97060F6
:107220006968206806F03CFA29680746606806F03D
:1072300037FA0146384606F029F9B060F8BD00BFBC
:1072400070B504460D460068096806F029FA6968B9
:107250000646606806F024FA0146304606F018F942
:10726000A9680646A06806F01BFA0146304606F0FB
:107270000FF970BD10B44FF080534FF42C321C69DD
:10728000B2FBF4F204FB02F2A40810D01068431C15
:107290000BD00432002305E052F8041BB1F1FF3F8C
:1072A00003D0084601339C42F6D110BC70474FF022
:1072B000FF30FAE7F0B44FF080534FF42C3C1C69D8
:1072C000BCFBF4FC0CFB04F7A40856D03E68731C0E
:1072D00056D03D1D002106E055F8042BB2F1FF3FCA
:1072E00044D0164619464B1C9C42F5D10021013C66
:1072F000A34238DB254AD2F80034002BFBD002230E
:107300002249C2F80435D1F80034002BFBD01F4AC3
:10731000C1F808C5D2F80034002BFBD000231B496C
:10732000C2F80435D1F80034002BFBD0174AD2F84C
:107330000034002BFBD001231449C2F80435D1F8E6
:107340000034002BFBD0114A3860D2F80034002BF7
:10735000FBD000230D49C2F80435D1F80034002BCE
:10736000FBD0F0BC704707EB8107DFE7421CF8D089
:1073700030EA060218BF1946B9E723462146B6E7A8
:10738000411CEED000231946B1E700BF00E00140E8
:10739000124BD3F85025AAB1D3F85025042A12D0A5
:1073A000D3F850250C2A0ED000210120C3F800127A
:1073B0001A46C3F810111861D2F85035002BFBD1D2
:1073C000C2F810317047054AD2F85035042BFBD073
:1073D000024AD2F850350C2BFBD070470010004009
:1073E0002DE9F0013C4FDFF8048102250124042639
:1073F000FA29C8F88050C7F8FC4FC7F80C65C7F8E1
:10740000080560D0B1F57A7F55D10021C7F8101575
:107410000799069C314D324E0020074661F307075D
:1074200064F30F27059C2C4905EA17454FF4847C2B
:1074300064F3134C45F4827464F31F4763F3596794
:10744000284BC1F8243503F14433C1F82835CCF377
:107450000F45254BC1F81C3525F48874C1F820353B
:107460000123C1F82C05214DC1F8303564F31F4CC0
:10747000AA231E24C1F814C5C1F81875C1F84445E3
:1074800040F20717C1F834254FF0FF34C1F83C35FE
:1074900008220223C1F83875C1F81001C1F80C01A7
:1074A000C1F80843C1F80423306085F801032B605C
:1074B000BDE8F001704740F2E930814206D1032176
:1074C000C7F81015A4E7C7F81055A1E7B1F5FA6F92
:1074D00008BFC7F810459BE700100040F8FEFFFF0B
:1074E000DC01002011223344A70DE60E00E100E08C
:1074F000F0B4364C364BDFF8ECC026680225012488
:107500000427FA29CCF88050C3F8FC4FC3F80C7557
:10751000C3F8080550D0B1F57A7F45D10021C3F8F2
:1075200010152B4B2B4D2C48C3F8245500210C462D
:1075300066F3070405F14435C3F8285500EA144002
:10754000264DC3F81C5540F44170C3F82055012561
:10755000C3F82C1560F31F44C3F830554FF48475FD
:10756000C3F81455C3F818451E24C3F844451C4EEF
:10757000C3F834251B48AA2540F207144FF0FF3208
:10758000C3F83C55C3F83845C3F810110824C3F8B4
:107590000C11C3F808230222C3F80443316080F8B9
:1075A00001130260F0BC704740F2E930814206D11D
:1075B0000321C3F81015B4E7C3F81055B1E7B1F5CE
:1075C000FA6F08BFC3F81045ABE700BF30000020DA
:1075D0000010004011223344F8FCFFFFA70DE60E17
:1075E000DC01002000E100E010B41E4BD3F8502570
:1075F000032A20D0D3F85025012A1CD0D3F85025D7
:10760000022A18D0D3F85025AAB1D3F85025042A5D
:107610001CD0D3F850250C2A18D000210120C3F823
:1076200000121A46C3F810111861D2F85035002B19
:10763000FBD1C2F810310B4B0B4A1124012005215C
:10764000C3F800425860117010BC7047054AD2F868
:107650005035042BFBD0034AD2F850350C2BFBD00D
:10766000E9E700BF00100040CD01002030B41F4BFF
:10767000D3F85025092A03D0D3F850250A2A0FD170
:107680001B4B1A4A1B481C4900241C60032501237C
:107690000224C2F80052136004700B6030BC7047C3
:1076A000D3F85025002AEBD0D3F85025042A12D065
:1076B000D3F850250C2A0ED000210120C3F8001267
:1076C0001A46C3F810111861D2F85035002BFBD1BF
:1076D000C2F81031D4E7054AD2F85035042BFBD05C
:1076E000024AD2F850350C2BFBD0C9E700100040FD
:1076F000C8010020CD010020D801002038B5304C51
:1077000023682BB14CE000F07FFB401B022802D81D
:107710002368002BF7D12B4BD3F85025092A03D02F
:10772000D3F850250A2A20D12749264A274B002082
:107730000860032501200421C2F80052106019706E
:10774000D2F85035002BFBD0D2F850350C2BF7D0A7
:10775000D2F85035042BF3D0D2F8003243F018039E
:107760000121C2F80032216038BDD3F85025002A2B
:10777000DAD0D3F85025042A16D0D3F850250C2A95
:1077800012D000210120C3F800121A46C3F81011CC
:107790001861D2F85035002BFBD1C2F81031C3E785
:1077A00000F032FB0546B3E7064BD3F85025042A18
:1077B000FBD0044BD3F850250C2AFBD0B4E700BF14
:1077C000D801002000100040C8010020CD01002099
:1077D0000029F8B53F4E23DD031D321D824288BFCC
:1077E000B3426CD84B1E072B69D921F0030707441D
:1077F0000346324653F8044B42F8044BBB42F9D1DE
:1078000021F0030399420BD0C25CF2545A1C9142FE
:1078100006DD0233845CB454994201DDC25CF2544B
:107820002D4C23682BB13BE000F0EEFA401B022800
:1078300002D82368002BF7D1284BC3F80465D3F88E
:107840005025092A03D0D3F850250A2A0DD1244BFC
:10785000224A244900201860032501230220C2F88F
:107860000052136008702360F8BDD3F85025002A39
:10787000EDD0D3F85025042A16D0D3F850250C2A81
:1078800012D000210120C3F800121A46C3F81011CB
:107890001861D2F85035002BFBD1C2F81031D6E771
:1078A00000F0B2FA0546C4E70C4AD2F85035042B72
:1078B000FBD00A4AD2F850350C2BFBD0C7E7013871
:1078C000044B014410F8012F03F8012B8842F9D131
:1078D000A6E700BF94090020D80100200010004056
:1078E000C8010020CD01002010B4214A214B2249BB
:1078F0001068224A0860C3F80425D3F85025032AEB
:1079000020D0D3F85025012A1CD0D3F85025022AC4
:1079100018D0D3F85025AAB1D3F85025042A1CD08A
:10792000D3F850250C2A18D000210120C3F80012EA
:107930001A46C3F810111861D2F85035002BFBD14C
:10794000C2F810310B4B0E4A112401200521C3F857
:1079500000425860117010BC7047064AD2F850358A
:10796000042BFBD0034AD2F850350C2BFBD0E9E7AF
:10797000E801002000100040D0010020940A0020FF
:10798000CD01002089102DE97043254D27D400F149
:10799000080305F10802824288BFAB4294BF01236D
:1079A00000230B2994BF002303F0010301316BB3C3
:1079B00040EA05035B0729D14C0800EBC4042A46C2
:1079C0000346F3E802899C42E2E80289F9D121F0FA
:1079D0000103994203D050F8232045F82320114C8D
:1079E00023682BB10EE000F00FFA801B022802D8AA
:1079F0002368002BF7D10C4BC3F80455BDE8704346
:107A0000FFF77CBE00F000FA0646F1E7044B00EBFE
:107A1000810150F8042B43F8042B8142F9D1DEE7B1
:107A200094090020D801002000100040034A044BB4
:107A300010681B68C01A18BF01207047D0010020D1
:107A4000E801002010B4094C0022234653F8041B1F
:107A500040F8041B61780132B2EB910FF6DD044A65
:107A6000044B12681A60084610BC7047940A002044
:107A7000E8010020D0010020014B1860704700BFD2
:107A8000DC010020014B00221A607047E001002059
:107A9000014B00221A607047E40100200D4A0E4994
:107AA0000023C2F80031C2F80431C2F80831C2F82C
:107AB0000C31C2F81031C2F81431C2F81831C2F8D2
:107AC0001C31C2F82831C2F83031C2F834310B60B1
:107AD000704700BF00100040D80100208B4B1A688F
:107AE00002B110478A4BD3F80411002948D1D3F8CA
:107AF0000C21A2B18748864A874900230360C2F857
:107B00000C310B78022B37D00B78012B40D00B783F
:107B1000042B1ED00B78DBB2052B42D070477D4979
:107B20000A60C3F80021C3F80421C3F80821C3F890
:107B30000C21C3F81021C3F81421C3F81821C3F88D
:107B40001C21C3F82821C3F83021C3F834210A606E
:107B50007047724BC2F80435134603E0D3F8502542
:107B6000032A03D0D3F85025022AF7D1684A1120FE
:107B70000523C2F800020B70694B1B683BB1184724
:107B8000C3F80421D3F80C31002BB3D170477047F0
:107B9000644A136801331360634B1B68002BEED1FA
:107BA000BCE770B45F4C614D20682D7801302060D7
:107BB000002D59D0D2F800345D4A1278002B62D0E3
:107BC0005C4B5D480124A2421C6002F102065B4B43
:107BD00040F3998004681C60B408012C1AD04568F1
:107BE0005D60022C16D085689D60032C12D0C5689C
:107BF000DD60042C0ED005691D61052C0AD0456995
:107C00005D61062C06D0072C856918BFC4699D618B
:107C100018BFDC6126F00305AE420DD0445D5C5513
:107C2000AA4205F1010407DB055D1D55A24204F1DE
:107C3000010501DB405D5855FAB1354804220325A2
:107C400001240A70C0F804350246C0F800520460EE
:107C5000D2F85035002BFBD0D2F8003243F0180395
:107C6000C2F8003270BC70470B7001202E4B906040
:107C70001B68002BF6D070BC81E7254B0520012244
:107C800008709A60EEE72B4B4FF0FF30012A186026
:107C900002F102052A48294B31DD04681C60AC085A
:107CA000012C1AD046685E60022C16D086689E6051
:107CB000032C12D0C668DE60042C0ED006691E614B
:107CC000052C0AD046695E61062C06D0072C866911
:107CD00018BFC4699E6118BFDC6125F00304A5428A
:107CE000AAD0055D1D55A24204F10105A4DB445D47
:107CF0005C556C1CAA42A4BF005D18559CE7047833
:107D00001C700125F3E705781D708DE7DC0100206C
:107D100000100040D8010020CD010020940A00206E
:107D2000E4010020E8010020E0010020CC01002057
:107D3000D4010020C801002074090020940900200B
:107D400054090020014B1868704700BFD80100207B
:107D5000144B1548F0B4FA27C3F8407500220121EE
:107D60000427C3F80425C3F80815C3F810754FF4A9
:107D70008037C3F804730D4D0D4CC3F800124FF457
:107D800080670760402780F80A730A4E2A600A4815
:107D900022600A4D0A4C32602A602260196001702C
:107DA000F0BC704700A0004000E100E0EC010020C2
:107DB000F4010020FC0100201C020020F001002042
:107DC000F801002030B40649064C074B4FF480659B
:107DD00001200022C4F8805008611A7030BC70473E
:107DE00000A0004000E100E01C020020044B054A16
:107DF00001219964D3F8480513681844704700BFFF
:107E000000A00040EC010020014B1868704700BF43
:107E1000F4010020F0B4164C164D174B174F184EB6
:107E200022602860002401253C605D6003273160EA
:107E30004FF480364FF48071DD60C3F80445C3F819
:107E40000875C3F81045C3F84005C3F80463C3F8C8
:107E500000120AB1C3F800520A4B074A60244FF0DF
:107E60008060012183F81A4318601160F0BC7047EC
:107E7000140200201002002000A00140180200207F
:107E80000002002000E100E0F0B5174D174B184F3D
:107E9000DFF868E0DFF868C0164E01242C6000258A
:107EA0003D60CEF800405C60CCF800200322DC602E
:107EB000114FC3F80455C3F808254FF48032C3F8B6
:107EC0001055C3F840054FF48075C3F804236020B3
:107ED0004FF08062C3F80052C3F8004286F81A03DC
:107EE00032601C603960F0BD1402002000A0014027
:107EF0001802002000E100E0100200200C02002027
:107F000000020020014B01225A60704700A001408E
:107F1000024A034B106001221A60704704020020DD
:107F20000802002010B4124A1249134B134C0020CF
:107F3000C2F840010A682468FA320A601A680132FD
:107F40001A601A68A24211D30D4C0E4A2168013101
:107F5000216018601368013313601368B3F57A7FEA
:107F600004D309490B6801330B60106010BC7047E3
:107F700000A00040EC010020F001002034000020AF
:107F8000F4010020F8010020FC010020074B1A78C2
:107F900052B107490B6882B0034401930A68019B00
:107FA0009A42FBD102B07047704700BF1C0200200C
:107FB000F401002038B5154603221C46FFF798FA55
:107FC000074B084A1D601460FFF78EFC064B012228
:107FD0000021C3F80012C3F804251A6038BD00BFA1
:107FE0003C0000203C02002000D00040014B186003
:107FF000704700BF4400002070B4374B1B6853BB70
:10800000002924DD354E031D321D824288BFB34254
:1080100057D84B1E072B54D921F0030505440346BE
:10802000324653F8044B42F8044BAB42F9D121F0ED
:10803000030399420BD0C25CF2545A1C914206DDF4
:108040000233845CB454994201DDC25CF254244B87
:10805000196070BC70470029F9DD224A031D141D08
:10806000844288BF934222D84B1E072B1FD921F090
:1080700003050544034653F8044B42F8044BAB4256
:10808000F9D121F003039942E1D0144AC55C1A44A6
:108090005C1C8C421574DADA0233045D5474994224
:1080A000D5DDC35C93740E4B196070BC704701380A
:1080B0000D4B441810F8012F03F8012FA042F9D1FD
:1080C000C5E70138054B441810F8012F03F8012BC0
:1080D000A042F9D1BBE700BF3C020020980F00206E
:1080E00028020020A80F0020A70F00202DE9F04F44
:1080F00085B0FFF79BFC002840F0DC80FFF776FEA0
:10810000B24AB34913680968C41A8C4202D2834246
:10811000C0F09E80AF4CB04923680391096810609D
:108120005A1C8A420294226040F395800023236007
:10813000FFF76AFE039B00901C68002C60DDA74BD4
:10814000DFF8B4B2DFF8A0A21B68019300265B46FB
:1081500052463146A14606E002F1040CC145624692
:108160000346414647DD009C1D68019F651B181DA5
:10817000BD42044601F10108EED9C14540F3EC804F
:1081800042EA000502F1040C45EA0C051D436D07A7
:1081900040F0D280A9F102056D1A062D40F2CC8084
:1081A00009F1FF39A9EB01014FEA510E141F03EB4E
:1081B000CE0E1D1F083AF4E90267E2E90267F5E90D
:1081C0000267E3E802677345F5D121F001039942A4
:1081D00003EB080208D0511E5AF822305BF8222027
:1081E0004AF821304BF82120C1454FF00106624684
:1081F00003464146B7DC4C4616B1039BC3F80090DA
:10820000774E784D3368EC7100218B424FF01002AD
:10821000C8BF9B186A70C8BF6B706D4B29701B6814
:10822000EB72190E1A14297200211B126A72C5F81A
:1082300002100122AB72AA71FFF784FD002834D12D
:1082400069786848FFF79EFB029B1B6803B933609F
:1082500005B0BDE8F08F002A3FF46AAF614D604E73
:10826000E97103F10B022A705F4A306852F823105B
:1082700010240028C8BF00196C704FF000024FEAAC
:10828000116464F307024FEA114464F30F22C8BF7C
:1082900068700C0A554864F3174261F31F62C15CB1
:1082A000C5F8022001232972AB71FFF74BFD0028AE
:1082B000FBD1C5E74E4C2046FFF7C4FB4D4B0528CC
:1082C0000546D3F800347FF719AF002B3FF416AF03
:1082D000404B02931A46D4F8023016681BBA002E9F
:1082E0003FD1002B3FF40AAF3B4A039214683F2C66
:1082F0003FF704AF002CDFF8F0A011DDDAF8002022
:1083000093423FF4FBAEAAF1040000EB8400524616
:1083100004E052F8041F8B423FF4F0AE8242F8D1E1
:108320004AF82430FFF770FD0399334A0B6842F88E
:10833000240001330B60E1E6304901EB890500E0E0
:108340000434516842F8041B59681960AA42234654
:10835000F6D109F1FF3947E709F1FF3902F1040CC1
:1083600042E7013E204A52F826209A427FF4C6AEE8
:10837000FFF74AFD2049224A224B41F82600224EAF
:10838000156025F0030001221A602044324623467E
:1083900053F8041B42F8041B8342F9D125F0030370
:1083A0009D420BD0E25CF2545A1CAA4206DA023318
:1083B000A15CB1549D42C4BFE25CF254029B22789E
:1083C00019680A4B0B4403F8012C97E6340200208D
:1083D0003C0000202C020020200200203800002059
:1083E00028020020980F0020980D002098100020EF
:1083F000980B002000100040980E0020940D0020E3
:108400002402002040020020980C00202DE9F043B7
:1084100083B0FFF7F9FC0546FFF708FB10B903B07E
:10842000BDE8F083534C2046FFF70CFB524BD3F8CA
:1084300000340646002BF2D00528F0DDD4F80230D7
:108440004E4A94F8089012681BBA002B51D1DFF8FD
:1084500054814B48D8F800100068691A814240F2F4
:1084600087804849484F0D60D7F808054749C7F845
:108470000031A1FB00135B09642101FB1303612B95
:10848000434F14D94FF0100C130E22FA0CF1BB70AD
:10849000130AF9703B713846012361467A710192E3
:1084A0003B70BB7187F801C0FFF76CFA019A2AB3E1
:1084B0003849394A0E60012126F0030011602D4B26
:1084C000334A204453F8041B42F8041B8342F9D179
:1084D00026F003039E42A2D0E25CFA545A1CB24238
:1084E0009DDA0233A15CB9549E4298DDE25CFA54F5
:1084F00095E79A4293D1DFF8AC80254F2549264A6B
:108500000E60012126F0030011601A4B204A20441E
:1085100053F8041B42F8041B8342F9D126F00303ED
:108520009E420BD0E25CFA545A1C964206DD02339E
:10853000A15CB9549E42C4BFE25CFA54174C114A84
:108540002368C8F80050002B15607FF768AF144D02
:108550002B784B453FF463AFFFF7F4FB00287FF423
:108560005EAF2168284603B0BDE8F043FFF70ABAC2
:10857000074F9CE7980B00200010004044000020AB
:10858000400000203802002000D000401F85EB5141
:10859000980C002024020020400200202802002025
:1085A000980F002030020020034B1B680BB1FFF72F
:1085B0009DBDFFF72BBF00BF3C020020224B70B5D2
:1085C000224CC3F81C45252A4FF08E04C3F82445DD
:1085D00031D0262A33D0272A33D00B2AB4BF042423
:1085E000062404EB4204184B194DC3F8084542F029
:1085F000400240F25B640028C3F85425C3F83845B4
:10860000C3F83C5519DD4B1E124D134A1844C1F1F5
:108610000101CC18165D05F8016B13F8016F1655B2
:108620008342F6D1084BC3F80425FFF71FF80B4B24
:1086300002221A6070BD0224D5E7074AF2E71A2425
:10864000D1E75024CFE700BF0010004000D6BE891C
:108650005555550074110020AC1200205C0200201A
:10866000014B1860704700BF54000020F0B444185C
:108670005E1C9DF810504654002B657001F10207F6
:108680002BDD8D1D0544C419161DB44238BFAA4206
:1086900026D35D1E072D23D923F003061644114669
:1086A00051F8045B44F8045BB142F9D123F00301B3
:1086B0008B4207EB01040FD0555C05554D1CAB42B6
:1086C00004F1010608DD0231555D85558B4204F148
:1086D000020401DD525C02551F443846F0BC70476D
:1086E000013A01310144D41812F8010F01F8010FC9
:1086F000A242F9D1F0E700BF70B400246FF3070481
:108700009DF81050417063F303049DF80C3065F33D
:10871000861463F3C714002399420470837024DD28
:10872000C41CC31D151DAC4238BF9A4220D34B1E3A
:10873000072B1DD921F003061644134653F8045B9A
:1087400044F8045BB342F9D121F0030399420CD001
:108750001844D45CC4705C1CA14206DD0233145D75
:108760000471994201DDD35C4371C81C70BC704731
:10877000013A831C541812F8010F03F8010FA242AA
:10878000F9D1C81C70BC7047F8B5254C254E0225A0
:10879000C4F8805001F036FCFFF774F9FFF778F960
:1087A0002148FFF769F9002001F0D4FF1F4B204A50
:1087B000204801210327C3F8FC1FC3F81075C3F834
:1087C0001425C3F818651C4AC3F81C258E26C3F867
:1087D0002465002240F20316C3F82C25C3F8301597
:1087E000C3F834659626C3F8446540F25B66C3F867
:1087F0003865124EC3F83C650426C3F80C654FF685
:10880000FF76C3F81021C3F80C21C3F808630A26C9
:10881000C3F8046384F8012325600160F8BD00BF3C
:1088200000E100E0FA000302659F00000010004034
:10883000080110004402002000D6BE89555555009D
:108840002DE9F8438E4C8F4B94F8271094F829208B
:1088500094F82A500A4483FB021313445B1103EB80
:10886000C30103EB8103D31ADEB2252D84F82960FE
:1088700009D004EBD60106F0070091F8221001227E
:108880008240114263D08048828B92B2002A40F02D
:10889000828022697D497E4F10020125120E0D61F2
:1088A000C1F81C05C1F824250B2BB4BF04220622F5
:1088B00002EB4302754DA38DC5F8082546F040062E
:1088C000C5F854656269DFF8008240F25B61C5F863
:1088D00038150133C5F83C25A385FFF787FA94F8CE
:1088E0003C606C4B032E1860C5F804856CD0022EDA
:1088F00078D0012E00F09A82FEF776FE664A634B2E
:1089000001251560D3F8002242F00202C3F80022CC
:10891000D3F8002242F00402C3F800223B68022B85
:1089200000F08B80FFF770FA238C226BB3F57A7F0F
:108930003CBF03EB83035B00A0EB020034BF03F2F8
:10894000DC5342F6EC4398422BD8BDE8F883534BF6
:108950004D481A78B6FBF2F302FB1366838B504A3C
:10896000F6B29BB2965D002B6ED1494F2269474902
:1089700010020123120E252E0B61C1F81C0533468F
:10898000C1F8242500F06A82262E00F06982272E85
:108990008AD150228EE7A18DC28D91427FF479AFAA
:1089A00056E0404B01221A60FFF7ACFAFFF7ECFEED
:1089B00094F83B30002BC8D13B4A1368B3FA83F3D9
:1089C0005B091360BDE8F88300252946374884F821
:1089D0003C5002F0CFF9284601F0BCFE94F83C6010
:1089E000022E86D1294BDFF8E49025480025C4F8F3
:1089F000DC500126C4F8E050C4F8E450C4F8E85054
:108A0000C3F8049584F83C6084F8EC6001F0FAFD4A
:108A1000274B2849284AC3F80C953046C3F81085DF
:108A2000C3F81415C3F80425C3F8005201F092FEF0
:108A300031461E4802F09EF95EE72A461F4920484B
:108A40003D60FFF7E7F96DE7C28DA38D9A428CD1A7
:108A5000838B4FF6FF729A423AD0838B0C4F028C75
:108A6000C58B22849BB20121A38300230A4639606F
:108A7000838312491348E583FFF7CCF976E700BFFB
:108A8000D4140020A7C867DD641B0020001000403C
:108A900048020020680200205C0200204C000020F8
:108AA000841200204402002058020020D810002028
:108AB00000F00040BC1300200100000141880000CC
:108AC000FFFF2F00FFFF1F00F415002008180020F3
:108AD000D0F82230C4F8223094F82270DFF804E392
:108AE00090F826C084F826C017F0010118BFBC4AD0
:108AF0004FF000031CBF01211370BA078EF800303D
:108B00000B4606D50121B64A03EB0108D1545FFAA2
:108B100088F37A0707D5B24A022103F10108D1543C
:108B200001215FFA88F33A0707D5AD4A032103F123
:108B30000108D15401215FFA88F3FA0607D5A84A43
:108B4000042103F10108D15401215FFA88F3BA0628
:108B500007D5A34A052103F10108D15401215FFA89
:108B600088F37A0607D59E4A062103F10108D154FD
:108B700001215FFA88F3FA0905D0994A07215F1CA1
:108B8000D1540121FBB294F82370FA0707D5944A17
:108B9000082103F10108D15401215FFA88F3BA07D3
:108BA00007D58F4A092103F10108D15401215FFA49
:108BB00088F37A0707D58A4A0A2103F10108D154BC
:108BC00001215FFA88F33A0707D5854A0B2103F1A3
:108BD0000108D15401215FFA88F3FA0607D5804ACB
:108BE0000C2103F10108D15401215FFA88F3BA0680
:108BF00007D57B4A0D2103F10108D15401215FFA09
:108C000088F37A0607D5764A0E2103F10108D1547C
:108C100001215FFA88F3FA0905D0714A0F215F1C20
:108C2000D1540121FBB294F82470FA0707D56C4A9D
:108C3000102103F10108D15401215FFA88F3BA072A
:108C400007D5674A112103F10108D15401215FFAC8
:108C500088F37A0707D5624A122103F10108D1543B
:108C600001215FFA88F33A0707D55D4A132103F122
:108C70000108D15401215FFA88F3FA0607D5584A52
:108C8000142103F10108D15401215FFA88F3BA06D7
:108C900007D5534A152103F10108D15401215FFA88
:108CA00088F37A0607D54E4A162103F10108D154FC
:108CB00001215FFA88F3FA0905D0494A17215F1CA0
:108CC000D1540121FBB294F82570FA0707D5444A24
:108CD000182103F10108D15401215FFA88F3BA0782
:108CE00007D53F4A192103F10108D15401215FFA48
:108CF00088F37A0707D53A4A1A2103F10108D154BB
:108D000001215FFA88F33A0707D5354A1B2103F1A1
:108D10000108D15401215FFA88F3FA0607D5304AD9
:108D20001C2103F10108D15401215FFA88F3BA062E
:108D300007D52B4A1D2103F10108D15401215FFA07
:108D400088F37A0607D5264A1E2103F10108D1547B
:108D500001215FFA88F3FA0905D0214A1F215F1C1F
:108D6000D1540121FBB21CF0010F05D01C4A202177
:108D70005F1CD1540121FBB21CF0020F05D0184A30
:108D800021215F1CD1540121FBB21CF0040F05D03E
:108D9000134A22215F1CD1540121FBB21CF0080FA1
:108DA00005D00F4A23215F1CD1540121FBB21CF0D6
:108DB000100F05D00A4A24215F1CD1540121FBB2B7
:108DC0001CF0200F4ED11CF0400F54D0044A26272F
:108DD000591CD754CBB25FEADC1109D004E000BFC4
:108DE000841200204C0000202727591CD754CBB2F6
:108DF0008EF80030252D43D0272E0CD804EBD60159
:108E000006F0070591F822100122AA40114214BF72
:108E10000122002232B9B6FBF3F203FB1263DBB28C
:108E20001C4AD65C1C4F002383839FE51B4B1C4DC3
:108E3000C3F804551B4884F8EC6001F0E3FB1A4BBF
:108E40001A491B4AC3F80C553046C3F81085C3F8BD
:108E50001415C3F8042501F07DFC4DE5022229E537
:108E60001A2227E50B4A2527591C1CF0400FD7541E
:108E7000CBB2ACD1AFE75FEADC1206D0054AB3E76C
:108E8000242E8CBF00220122C4E70029B0D10B465A
:108E9000B0E700BF8412002048020020001000400C
:108EA00008180020D414002000F00040BC1300205B
:108EB0000100000170B5AA4CAA4AAB4994F82200FF
:108EC000AA4D00231370C2F89430A2F898301722EC
:108ED0000B710A6010F0010118BFA54A84F83C30FC
:108EE0001CBF01211370860784F82930A3632B70FF
:108EF0000B4604D501219E4A5E18D154F3B24207B5
:108F000005D59B4A02215E1CD1540121F3B206070C
:108F100005D5974A03215E1CD1540121F3B2C20644
:108F200005D5934A04215E1CD1540121F3B2860673
:108F300005D58F4A05215E1CD1540121F3B24206AA
:108F400005D58B4A06215E1CD1540121F3B2C2091A
:108F500005D0874A0721581CD1540121C3B294F887
:108F60002300C60705D5824A08215E1CD154012181
:108F7000F3B2820705D57E4A09215E1CD154012136
:108F8000F3B2460705D57A4A0A215E1CD154012165
:108F9000F3B2020705D5764A0B215E1CD15401219C
:108FA000F3B2C60605D5724A0C215E1CD1540121CC
:108FB000F3B2820605D56E4A0D215E1CD154012103
:108FC000F3B2460605D56A4A0E215E1CD154012132
:108FD000F3B2C20905D0664A0F21581CD1540121B1
:108FE000C3B294F82400C20705D5614A10215E1C63
:108FF000D1540121F3B2860705D55D4A11215E1CCB
:10900000D1540121F3B2420705D5594A12215E1C01
:10901000D1540121F3B2060705D5554A13215E1C30
:10902000D1540121F3B2C20605D5514A14215E1C68
:10903000D1540121F3B2860605D54D4A15215E1C97
:10904000D1540121F3B2420605D5494A16215E1CCE
:10905000D1540121F3B2C20905D0454A1721581C49
:10906000D1540121C3B294F82500C60705D5404A62
:1090700018215E1CD1540121F3B2820705D53C4A68
:1090800019215E1CD1540121F3B2460705D5384A97
:109090001A215E1CD1540121F3B2020705D5344ACE
:1090A0001B215E1CD1540121F3B2C60605D5304AFE
:1090B0001C215E1CD1540121F3B2820605D52C4A35
:1090C0001D215E1CD1540121F3B2460605D5284A64
:1090D0001E215E1CD1540121F3B2C20905D0244ADD
:1090E0001F21581CD1540121C3B294F82600C20795
:1090F00005D51F4A20215E1CD1540121F3B28607F9
:1091000005D51B4A21215E1CD1540121F3B242072F
:1091100005D5174A22215E1CD1540121F3B206075E
:1091200005D5134A23215E1CD1540121F3B2C20696
:1091300005D50F4A24215E1CD1540121F3B28606C5
:1091400073D50B4A591C2526D654CBB2410603D5FC
:109150002626591CD654CBB2C1096BD10AE000BFF8
:10916000D4140020D8100020041700204C00002048
:10917000841200202B700023A385FEF745FE606358
:10918000FEF742FE226994F8293034492063252BEA
:109190004FEA02204FEA1262C1F81C05C1F82425EB
:1091A00056D0262B56D0272B56D00B2BB4BF0422DB
:1091B000062202EB4302668B284D6169C5F808253B
:1091C00040F2E24000FB06F043F0400340F25B62F5
:1091D000A0F59670C5F854350001C5F83825002271
:1091E000C5F83C151E49FEF715FE1E4A1E491F4BC9
:1091F000C5F8043500234B7013705370FEF7F4F973
:10920000D5F800321A481B491B4A43F00203C5F83F
:109210000032D5F8003243F00403C5F800320124CF
:10922000022304600B60136070BD420607D4C209BC
:109230000BD0124A2720591CD054CBB29AE70F4AC0
:109240002626591CD654CBB286E7002993D091E745
:109250000222B0E71A22AEE75022ACE7001000402D
:109260004188000074110020AC120020F415002089
:109270005C020020480200204402002084120020EA
:1092800070B52F4B2F4C1E7959799D79DA79187A60
:1092900084F83D6084F83E105E7A84F83F50997AF5
:1092A00084F84020DD7A84F841001A7B587B84F8EA
:1092B000431042EA0022987BD97B84F8426084F80C
:1092C00044501E7CA4F84E205D7C84F8520084F843
:1092D0005310987CD97C1A7D84F8555084F8560038
:1092E00084F8546084F8571084F858205A7D84F824
:1092F00059209D7DD97D1A7E5B7E84F85C2004F127
:109300005E0084F85D3084F85B1084F85A5000F0F9
:10931000EDFE00F0C9FEB4F84E30A4F86600020C71
:10932000000E84F8682084F86900A4F850300BB966
:10933000042070BD204601F0DBFA042070BD00BFA0
:10934000F4150020D4140020F0B57E4E3368002BB5
:1093500085B013DB082B44D0092B12D00C2B50D036
:10936000042B5DD0052B00F08B80062B00F0828053
:10937000152B00F0D680072B00F0CA80002005B026
:10938000F0BD714C714DE37000222121217118460E
:1093900062711946A271E27122726272A272E27265
:1093A00095F8397095F838504FF0030C00226CF3A3
:1093B000070267F38202042B65F3C302DFF898C14A
:1093C000634D02F0EF024FF002070CBF05234FF090
:1093D000FF3322706170CCF804452F60336005B014
:1093E000F0BD594C594DE370002221200921207114
:1093F00062710846A271E27122726272A272E27216
:10940000CEE7514C514DE37008212171FF2200201D
:10941000042706216271A271E77120720846BFE736
:109420004A4D494C95F85E10E37095F85F00217144
:1094300095F8602095F861106071A27195F862004E
:10944000E17195F8632095F864102072627295F8C6
:109450006500A17295F8662095F86710E072227396
:1094600095F86800617395F86920A0730D21E27387
:10947000084695E7344C354DE370012108468FE7E7
:10948000324D314C05F18A00E37000F06BFED5F8E7
:109490005210D5F85E00D5F85620D5F8623000910C
:1094A000029005F1CC0168460192039300F07EFE24
:1094B000002395F8661095F85A70C5F8DC3095F8D9
:1094C0005B00C5F8E03095F86720C5F8E430C5F8D2
:1094D000E83085F8ED7095F85C3085F8F11095F876
:1094E000681085F8EE0085F8F22095F85D0085F8A3
:1094F000EF30022285F8F31095F8693085F8F00016
:10950000012185F8F43085F83C200846336847E7A8
:10951000104A0D4C1278E37002210C4D227108465E
:109520003EE7094C094DE3700022402104202171DF
:109530006271A271E071217209216272A272E072FD
:1095400008462DE750000020AC120020D414002063
:109550005C020020281A002000100040F8B5724A72
:10956000724D92F8393092F838100126002466F3D3
:10957000070463F382042B6861F3C304002B6FF3C9
:10958000041438DA002835D06949CB78DBB24FF0C3
:10959000FF37022B2F6040D0082B39D0092B2ED05B
:1095A000032B51D0581F012841D90A2B44D00C2B32
:1095B00050D0122B5BD0012B5ED0002B00F08180AD
:1095C000142B00F09D80152B00F09F80594A072B2B
:1095D000116803D05848072203702A6099B9574B85
:1095E0005748584AE4B2002502211C705D70C0F84B
:1095F00004351160F8BDBDE8F840FFF7A5BE4D4B3E
:1096000019680029EBD0FFF79FFE0028E7DDF8BDC1
:10961000484A092311682B60E0E7FEF773FC4A4BC8
:109620001E60FFF7B1F8434B2F601968D6E7414A37
:10963000062311682B60D1E73E4903200B230968FC
:1096400082F83C002B60C9E7FFF71AFE394B28600F
:109650001968C3E78A794B7943EA02230F2B354A0D
:109660002AD0752B23D00C2311682B60B6E7314A22
:10967000132311682B60B1E7344B0D794A7983F8D5
:1096800022508E7983F82320C8790D7A4A7A897A14
:1096900083F8250042EA0122264983F824604FF628
:1096A000FF7083F82650DA859883096896E70021D1
:1096B0000C2311602B6092E701210C2311602B60B9
:1096C000A1E70E794A798F79C8790D7A1F4B40EA64
:1096D000052098834D7A1E768E7AC87A45EA06254B
:1096E0000E7BDD8342EA072240EA06205A834A7B4A
:1096F0008E7B1049188442EA0622DA8509686DE7F4
:109700000C4A152311682B6068E70B7948790A7AAF
:109710004A7A43EA002001F0C3FC064A4FF0FF33C7
:1097200011682B605AE700BFD414002050000020BD
:10973000F415002058020020281A0020AC12002046
:10974000001000405C02002044020020641B002046
:109750002DE9F843674F684C97F8390097F838308F
:109760006649674E674A4FF00108002568F3070510
:1097700060F3820563F3C3056FF304150023E8B2B9
:1097800020706370A370C1F8044573780221032B25
:1097900011600BD9F07832797379B17943EA0123FA
:1097A000042B40EA02204ED0062B7AD0737803F0C7
:1097B000FF0203BB544E3379FBB1F0880227C1B2DC
:1097C00067F301050B1DDBB2EDB24FEA102C042745
:1097D00025706370E17084F804C06771A27140B1B4
:1097E0000730F21D072312F8011FE154013398429C
:1097F000F9D100233371BDE8F883444F97F8008016
:10980000B8F1000F2BD078880226C1B266F30105AB
:109810000A1DD2B2EDB24FEA102C062625706270F6
:10982000E17084F804C06671A37140B10730FA1C7E
:10983000072312F8011FE15401339842F9D10023A4
:109840003B70BDE8F883304AF11D01F037FC7378B6
:1098500087F83B8003F0FF02002BCCD1AAE730460B
:1098600002F070FB814610B3F0880221C2B261F3AE
:109870000105131DDBB2EDB2070A042125706370E8
:10988000E2702771617184F806800028B1D007303A
:10989000F21D072312F8011FE15401338342F9D16D
:1098A000A7E73B46194AF11D01F06CF97EE7114923
:1098B000384601F063FA00289DD078880221C2B2B0
:1098C00061F30105131DDBB2EDB2060A0621257016
:1098D0006370E2702671617184F806900028AED042
:1098E0000730FA1C072312F8011FE15401338342A9
:1098F000F9D1A4E7D4140020AC12002000100040DD
:10990000F41500205C02002004170020D81000206D
:10991000F8B5FEF76BFA924B924A18601B68126812
:1099200091499B1AA3F28B22B2F5957F0AD8086859
:109930005A02C0EB801400EB840002EB03230344C3
:109940001B0A0B60894C0A682368120A40F25231E4
:1099500001338A42236033D840F2ED218A42844D9C
:1099600005D8052B03DDAB8D642B00F2AF80814C55
:109970002368012B00F08D80FEF746FA95F83C3005
:1099800028634BBB95F839707B497C4C7C4A4E78F8
:1099900000236370D2F80004F6B2002800F0B6800D
:1099A00008780021C0B260F30701C1F3C00CBC45C8
:1099B0002FD0D2F8003223F00403C2F80032F8BDF1
:1099C000052B6B4DD3DDAB8D642BD0D9A020FEF7DA
:1099D0009FFA00232360CAE7674995F839704B78EE
:1099E000002BD2D0674BD3F80034002B75D0D5F8BC
:1099F000E430654A0133C5F8E430D5F8E43000209E
:109A00001060002BC1D1D5F8E8300133C5F8E8303B
:109A1000BBE795F838E0C1F3800171450FD1D2F86A
:109A200000025A4940F00400C2F8000248780330AE
:109A300011F8012BE25401338342F9D11AE0D2F834
:109A40000012B7FA87F300F0030041F004015B094C
:109A50000328C2F8001285F8387085F839302BD009
:109A60004B4A1268002A00DB46B3013801285FD850
:109A7000FFF76EFE454963780023E05C627801F8E9
:109A8000010B013302329342F7DD424B02221A608E
:109A9000F8BDAE8BA98B404A40F2E24000FB06F0D5
:109AA000A0F5487044F62066000106FB01F1FEF7C0
:109AB000EBF9032323605FE7002E4BD0A0F10300F6
:109AC000B0FA80F04009FFF749FDD3E76FF09F003F
:109AD000FEF71EFA0023236049E70124002295F8CF
